:03000000020B30C0
:0C0B3000787FE4F6D8FD758172020B7727
:0710370002093A98010800CC
:100EAE001200038F087B007A007911C003C002C0C4
:100EBE00017B007A0079088B2C8A2D892ED001D0E7
:060ECE0002D00312078FA1
:010ED40022FB
:100DB80075543A7555981210297FE87E03120FA0D2
:100DC800120F847F0112000E7FE87E03120FA07FAE
:100DD800987E3A12101A7D107C277F987E3A120C62
:0E0DE800A07D987C3A7F107E27120CA080E838
:010DF60022DA
:0E10290053B3FE43B4017FF47E01120FA022E8
:0F101A008E688F6912100AAF69AE68120F4422F8
:020D73008F35BA
:100D7500AC35E41202CE7B007A007920784112026C
:100D8500278F398E388D378C367F007E007D167C17
:100D950043AB39AA38A937A83612011EA804A905FC
:100DA500AA06AB077F007E487D557C4612002912B6
:020DB500030237
:010DB7002219
:080CA0008E238F248C258D2684
:100CA800752700752800C3E5249526E5239525407A
:100CB8002A852327852428D3E5289526E527952501
:100CC8004042AF28AE27120F447F0A7E00120FA0C1
:100CD800E52815287002152780DD2285232785241D
:100CE80028D3E5289526E52795255018AF28AE275F
:100CF800120F447F0A7E00120FA00528E528700213
:040D0800052780DD5E
:010D0C0022C4
:100F840053B3DF43B42053B1FE43B20153B1FD4325
:0C0F9400B2025390DF5380FE5380FD2218
:10000E008F6EAF6E7E00EF64014E7004439020221F
:04001E005390DF22FA
:0410440043800122C2
:041048005380FE22B1
:04104C0043800222B9
:041050005380FD22AA
:05103E00035900000051
:100A08008F428E418D408C3F53B1BF53B2BF53B11B
:100A18007F53B27FAB42AA41A940A83F7F407E42A4
:100A28007D0F7C001205E9A804A905AA06AB07C337
:100A380074FF9BFF74FF9AFEE499FDE498FC780824
:100A48001206898FC6AB42AA41A940A83F7F407EC3
:100A5800427D0F7C001205E9A804A905AA06AB0788
:100A6800C374FF9BFF74FF9AFEE499FDE498FCEFC2
:100A780054FFFFEE5400FEED5400FDEC5400FC8FD3
:100A8800C575987043878053C4F843C42043C4088D
:040A980012105722BF
:03105400D2AC22F9
:03105700C2AC2206
:020FF9008F6AFD
:0E0FFB00C299E56A64FFF56B856A993099FD2D
:0110090022C4
:080E5A008B3A8A3B893C8D3D77
:100E6200753E00E53EC3953D5018AB3AAA3BA93CFE
:100E7200AF3E8F82758300120479FF120FF9053E8F
:020E820080E10D
:010E8400224B
:0500030085996FAF6F4D
:0100080022D5
:100A9C00E5875410FF7E00EF64104E6003020B2FAD
:100AAC00900000E584F0900001E585F0900000E0F6
:100ABC00FF7E00EF25E0FFEE33FE900001E0FDED40
:100ACC005401FD7C00EF2DFFEE3CFE900002EEF099
:100ADC00A3EFF0900003E024F1F0900002E034FF6B
:100AEC00F0900002E0FEA3E0FFEF5401FF90000144
:100AFC00EFF0900002E0FEA3E0FFEEC313FEEF1355
:100B0C00FF900000EFF075C7AA75C755900000E084
:100B1C00FF8F8475C7AA75C755900001E0FF8F85BC
:030B2C005387EFFD
:010B2F0022A3
:100FD3008B568A578958AB56AA57A9588B598A5AA0
:030FE300895B2205
:03002300020C309C
:100C3000C0E0C0F0C083C082C0D075D000C000C08A
:100C400001C002C003C004C005C006C00730983010
:100C5000C2987B007A007900C003C002C001AB5982
:100C6000AA5AA95BD082D083D0E06B7008E9658274
:100C70007003EA65836009AB59AA5AA95B12073170
:100C8000309902C299D007D006D005D004D003D045
:100C900002D001D000D0D0D082D083D0F0D0E032CA
:100FA0008E6C8F6DE56D456C60117FE87E03120ECF
:0C0FB000D5E56D156D7002156C80E9220E
:040ED5008E438F4475
:100ED900AC43AD44E41202C91203028E458F46E5C4
:100EE900464545600B00E54615467002154580EFFD
:010EF90022D6
:10100A0043DE0443D81053DF3F43DF0453DFFC229F
:040F44008E478F48FD
:100F480053D87F85474985484A75D10075D942E508
:0C0F580049FF7E008FD4854ADC43D8801E
:010F6400226A
:040E29008E4B8F4C11
:100E2D00854B4D854C4ED3E54E9498E54D943A50F7
:100E3D001BAF4EAE4D120F447F647E00120FA07497
:0C0E4D0064254EF54EE4354DF54D80DA7D
:010E59002276
:040DF7008E4F8F503C
:100DFB0075513A755298D3E5529550E551954F4040
:100E0B001CAF52AE51120F447F647E00120FA074C0
:0D0E1B009C2552F55274FF3551F55180D9D8
:010E280022A7
:100E85008F70E57012070B0E9C000EA8010EA802CC
:100E95000EA80300000EA8438E08758A80758CC1C4
:090EA5004389017F00120F1F2296
:100FE6008B5C8A5D895EAB5CAA5DA95E8B5F8A605D
:030FF600896122EC
:100EFA008F71E57112070B0F11000F15010F180200
:100F0A000F1B0300000F1E4388102243884043C86A
:050F1A000443C408229D
:100F1F008F72E57212070B0F36000F3A010F3D0269
:100F2F000F400300000F435388EF225388BF53C86D
:050F3F00FB53C4F72282
:03000B00020D0DD6
:100D0D00C0E0C0F0C083C082C0D075D000C000C0AC
:100D1D0001C002C003C004C005C006C0077B007A35
:100D2D00007900C003C002C001AB5FAA60A961D009
:100D3D0082D083D0E06B7008E965827003EA658329
:100D4D006009AB5FAA60A961120731D007D006D048
:100D5D0005D004D003D002D001D000D0D0D082D0A5
:060D6D0083D0F0D0E0325B
:100BBC008B1B8A1C891DAB1BAA1CA91D7582067573
:100BCC008300E475F000120580AB1BAA1CA91D75EF
:100BDC008208758300E475F000120580AB1BAA1C1B
:100BEC00A91D758205758300E41204D9AB1BAA1CE0
:100BFC00A91D758203758300E5221204D9AB1BAACB
:100C0C001CA91D758204758300E5211204D9AB1E45
:100C1C00AA1FA920C003C002C001AB1BAA1CA91D9E
:040C2C001206BC22CE
:10078F008B298A2A892BAB29AA2AA92B120FBCAB3A
:10079F0029AA2AA92B758204758300120479FEEF0A
:1007AF00C39E500302083EAB29AA2AA92B758204C7
:1007BF00758300120479FFAB29AA2AA92B7582032E
:1007CF00758300120479FEEE8FF0A4FFAEF0AB2913
:1007DF00AA2AA92B7582087583001204FBFDACF0C1
:1007EF00C3ED9FEC9E4013AB29AA2AA92B75820853
:1007FF00758300E475F000120580AB29AA2AA92B96
:10080F00758203758300120479FF7E00AB29AA2A33
:10081F00A92B758208758300EE8FF0120533AB2973
:10082F00AA2AA92B75820575830074FF1204A6AB43
:10083F0029AA2AA92B758204758300120479FFABAC
:10084F0029AA2AA92B758203758300120479FEEE5B
:10085F008FF0A4FFAEF0AB29AA2AA92B75820675DB
:10086F0083001204FBFDACF0C3ED9FEC9E4013AB75
:10087F0029AA2AA92B758206758300E475F0001248
:10088F000580AB29AA2AA92B758203758300120450
:10089F0079FF7E00AB2CAA2DA92EC003C002C00188
:1008AF00AB29AA2AA92B7582067583001204FBFDBA
:1008BF00ACF0AB29AA2AA92B12069CE92DF9EA3C28
:1008CF00FAA801AC02AD03D001D002D00312045339
:1008DF00AB29AA2AA92B758203758300120479FF0D
:1008EF007E00AB29AA2AA92B758206758300EE8F8D
:1008FF00F0120533AB29AA2AA92B7582057583003F
:08090F0074011204A67F01220D
:100917008B2F8A308931AB2FAA30A931120FBCEF48
:100927007003020A05AB2FAA30A9317582047583BB
:1009370000120479FFAB2FAA30A9317582037583A2
:1009470000120479FEEE8FF0A4FFAEF0AB2FAA30B1
:10095700A9317582087583001204FBFDACF0C3ED65
:100967009FEC9E4013AB2FAA30A93175820875837F
:1009770000E475F000120580AB2FAA30A93175820B
:1009870003758300120479FF7E00AB2FAA30A931CB
:100997007582087583001204FBFDACF0AB2FAA30FB
:1009A700A93112069CE92DF9EA3CFAC003C002C03E
:1009B70001AB32AA33A934A801AC02AD03D001D0F0
:1009C70002D003120453AB2FAA30A93175820375E5
:1009D7008300120479FF7E00AB2FAA30A9317582FC
:1009E70008758300EE8FF0120533AB2FAA30A931BB
:1009F70075820575830074FF1204A67F01227F00AC
:010A070022CC
:100F65008B628A638964AB62AA63A964758205751D
:0F0F75008300120479FFEF60037F00227F0122C7
:100FBC008B658A668967AB65AA66A96775820575B4
:070FCC008300120479FF22EB
:1000260002036EE86480F8E933E83360110460F097
:10003600ED33EC337009E8FCE9FDEAFEEBFF220440
:1000460060DED3EB9FEA9EE99DE8C2E78CF0C2F73B
:1000560095F0400CE8CCF8E9CDF9EACEFAEBCFFB07
:1000660012033985D0F05804700320D5B3E8047024
:10007600075002B2D502037892D5EC0460F7E4CCBF
:10008600C0E0C398F8603B94186008400DD0E0FBD0
:10009600020350E4FBFAC9FC8028E830E406E4C910
:1000A600FBE4CAFCE830E305E4C9CACBFCE8540724
:1000B6006010F8C3E913F9EA13FAEB13FBEC13FC2F
:1000C600D8F130F52FC3E49CFCEF9BFFEE9AFEEDD2
:1000D60099FDD0E0FBEF4E4D4C701222DB0302037C
:1000E60075EC2CFCEF33FFEE33FEED33FDED30E720
:1000F600EB020350EF2BFFEE3AFEED39FDD0E0FBAD
:1001060050130BBB0003020378ED13FDEE13FEEF55
:0801160013FFEC13FC0203507F
:10011E00EC4D6011E8497017ED33EC3304600DE4DB
:10012E00FCFFFEFD22E933E8330470F802036E1281
:10013E00033958046009E4CC248150062850090282
:10014E000378284003020375C0E0EB4A7044B9807F
:10015E0006D0E0FB020364EF4E701CBD8008EBFF7F
:10016E00EAFEE9FD80EBE98DF0A4FEE5F002020760
:10017E00E9CDF9EAFEEBFFEF89F0A4FCE5F0CE89BC
:10018E00F0A42EFFE435F0CD89F0A42DFEE435F079
:10019E008067EF4E7005BD80D780C3EF8BF0A4ACA7
:1001AE00F0EE8BF0A42CFCE435F0F8EF8AF0A42CE2
:1001BE00E5F038FCE433CB8DF0A42CFCE5F03BF8F5
:1001CE00EE8AF0A42CFCE5F038F8E433CF89F0A4E5
:1001DE002CFCE5F038CF3400CE89F0A42FFFE5F0EB
:1001EE003EFEE433C98DF0A42EFEE5F039CD8AF043
:1001FE00A42FFFE5F03EFEE43DFD33D0E0FB5007BB
:10020E000BBB000F020378EC2CFCEF33FFEE33FE3A
:06021E00ED33FD02035068
:10022400020378EC5D046005E85904700302036E70
:10023400120339580460F6EC4860F2EC7004FDFED9
:10024400FF22C860DB2481C85009C39860025006AD
:100254000203759850CAF582E9294B4A7005AB82AE
:1002640002036475F0007C1A7880C3EF9BEE9AED6C
:1002740099400DC3EF9BFFEE9AFEED99FDE842F025
:10028400DC23ACF0D0E0FFD0E0FED0E0FDAB822078
:10029400E7101BEB60BAEC2CFCEF33FFEE33FEED02
:1002A40033FD020350E803F830E705C0F075F000B1
:1002B400EF2FFFEE33FEED33FD40B830E7C280AAE6
:1002C40075F020800E75F010800575F0087D007EB5
:1002D400007F003392D530D50312067BEC334010F7
:1002E400EF33FFEE33FEED33FDEC33FCD5F0ED22BE
:0E02F400E5F0247EA2D513CC92E7CDCEFF22FA
:10030200EDD2E7CD33EC3392D524814006E4FFFEF3
:10031200FDFC22FCE4CFCECDCC24E0501174FF8052
:10032200EDC3CC13CCCD13CDCE13CECF13CF0470EF
:07033200F030D5DE02067B6E
:10033900E9D2E7C933E833F892D5EDD2E7CD33EC0A
:0703490033FC5002B2D52283
:10035000EC30E7100FBF000C0EBE00080DBD00040E
:100360000BEB6014A2D5EB13FCED92E7FD2274FFBA
:10037000FCFDFEFF22E480F8A2D574FF13FC7D8013
:03038000E480EF27
:100B3C00020DB8E493A3F8E493A34003F68001F20A
:100B4C0008DFF48029E493A3F85407240CC8C333BA
:100B5C00C4540F4420C8834004F456800146F6DF89
:100B6C00E4800B0102040810204080901037E47ED2
:100B7C00019360BCA3FF543F30E509541FFEE4937E
:100B8C00A360010ECF54C025E060A840B8E493A345
:100B9C00FAE493A3F8E493A3C8C582C8CAC583CA70
:100BAC00F0A3C8C582C8CAC583CADFE9DEE780BE28
:0110430000AC
:10038300E709F608DFFA8046E709F208DFFA803E5C
:1003930088828C83E709F0A3DFFA8032E309F60849
:1003A300DFFA8078E309F208DFFA807088828C83B1
:1003B300E309F0A3DFFA806489828A83E0A3F60865
:1003C300DFFA805889828A83E0A3F208DFFA804C3F
:1003D30080D280FA80C680D4806980F28033801016
:1003E30080A680EA809A80A880DA80E280CA80337F
:1003F30089828A83ECFAE493A3C8C582C8CCC583F7
:10040300CCF0A3C8C582C8CCC583CCDFE9DEE780C6
:100413000D89828A83E493A3F608DFF9ECFAA9F045
:10042300EDFB2289828A83ECFAE0A3C8C582C8CC9B
:10043300C583CCF0A3C8C582C8CCC583CCDFEADEB4
:10044300E880DB89828A83E493A3F208DFF980CC16
:1004530088F0EF60010E4E60C388F0ED2402B4040F
:100463000050B9F582EB2402B4040050AF232345B6
:0604730082239003D37305
:10047900BB010CE58229F582E5833AF583E0225038
:1004890006E92582F8E622BBFE06E92582F8E22282
:0D049900E58229F582E5833AF583E493229C
:1004A600BB010FF8E58229F582E5833AF583E0285A
:1004B600F0225009C58229F8E58226F622BBFE09FC
:1004C600C58229F8E22582F222F8EA2583F583E936
:0304D60093282246
:1004D900F8BB010DE58229F582E5833AF583E8F059
:1004E900225006E92582C8F622BBFE05E92582C805
:0204F900F222ED
:1004FB00BB0110E58229F582E5833AF583E0F5F03F
:10050B00A3E0225009E92582F886F008E622BBFE1B
:10051B000AE92582F8E2F5F008E222E5832AF58361
:08052B00E993F5F0A3E9932226
:10053300BB010DC58229C582C5833AC5830207372E
:100543005011C58229F808E5F026F618F5F0E58282
:1005530036F622BBFE11C58229F808E225F0F5F034
:10056300F218E23582F222F8E58229F582E5832A40
:0D057300F58374019325F0F5F0E493382230
:10058000F8BB0111E58229F582E5833AF583E8F0AD
:10059000E5F0A3F0225009E92582C8F608A6F0226A
:0D05A000BBFE09E92582C8F2E5F008F22251
:1005AD0075F008758200EF2FFFEE33FECD33CDCC05
:1005BD0033CCC58233C5829BED9AEC99E582984088
:1005CD000CF582EE9BFEED9AFDEC99FC0FD5F0D665
:1005DD00E4CEFBE4CDFAE4CCF9A88222B800C1B98F
:1005ED000059BA002DEC8BF084CFCECDFCE5F0CBCD
:1005FD00F97818EF2FFFEE33FEED33FDEC33FCEB06
:10060D0033FB10D703994004EB99FB0FD8E5E4F9C0
:10061D00FA227818EF2FFFEE33FEED33FDEC33FCAD
:10062D00C933C910D7059BE99A4007EC9BFCE99AA1
:10063D00F90FD8E0E4C9FAE4CCFB2275F010EF2FE6
:10064D00FFEE33FEED33FDCC33CCC833C810D707E6
:10065D009BEC9AE899400AED9BFDEC9AFCE899F821
:0E066D000FD5F0DAE4CDFBE4CCFAE4C8F922B4
:0E067B00C3E49FFFE49EFEE49DFDE49CFC2290
:10068900E8600FECC313FCED13FDEE13FEEF13FF4F
:03069900D8F12273
:10069C00BB010789828A8302075F5005E9F80207CC
:1006AC004DBBFE05E9F802077189828A8302078334
:1006BC00BB011A89828A83D0F0D0E0F8D0E0F9D05F
:1006CC00E0FAD0E0FBE8C0E0C0F00207685016E9A1
:1006DC00F8D083D082D0E0F9D0E0FAD0E0FBC08231
:1006EC00C083020756BBFE16E9F8D083D082D0E057
:0F06FC00F9D0E0FAD0E0FBC082C08302077A2277
:10070B00D083D082F8E4937012740193700DA3A37D
:10071B0093F8740193F5828883E473740293686091
:06072B00EFA3A3A380DF91
:060731008A838982E47353
:10073700C5F0F8A3E028F0C5F0F8E582158270024D
:060747001583E038F022EA
:09074D00E6FB08E6FA08E6F922D1
:09075600EBF608EAF608E9F622C8
:09075F00E0FBA3E0FAA3E0F9229B
:09076800EBF0A3EAF0A3E9F02292
:09077100E2FB08E2FA08E2F922B9
:09077A00EBF208EAF208E9F222B0
:0C078300E493FB740193FA740293F922D2
:00000001FF
