:03000000020FE309
:0C0FE300787FE4F6D8FD75810702102A23
:0A0D6A004201920050420190000A7D
:0C16FB001216261212F7120A7E80F82246
:100D74004101490041014B0041014F004101510033
:100D84004101470041014D0041014A0041014C002D
:100D940041014E004101500041014600410148011A
:100F510090015BEFF090015CEDF090015DEBF0A38F
:050F6100EAF0A3E9F035
:100F660090015CE0FF900161EFF0900160E0FF907E
:100F76000162EFF090015BE0FFEF1204DD0FDF0F7F
:100F86000FA5100FA9200FAD300FB1400FB5500FB0
:100F9600C4700FC8730FCC800FDB9000000FE212F5
:100FA6001731221217382212173F221217462290A3
:100FB600015DE0FBA3E0FAA3E0F91214FF22121789
:100FC6004D221217542290015DE0FBA3E0FAA3E044
:0C0FD600F91215252212175B2212176277
:010FE20022EC
:071731009001497401F02250
:0717380090014B7401F02247
:07173F0090014F7401F0223C
:071746009001517401F02233
:1014FF009001A4EBF0A3EAF0A3E9F0900147740187
:10150F00F09001A4E0FBA3E0FAA3E0F91201A9FF18
:06151F00900148EFF022EC
:07174D0090014D7401F02230
:0717540090014A7401F0222C
:101525009001A7EBF0A3EAF0A3E9F090014C740158
:10153500F09001A7E0FBA3E0FAA3E0F91201A9FFEF
:06154500900146EFF022C8
:07175B0090014E7401F02221
:071762009001507401F02218
:100DA4004600D820A100010A8A4600F130A10001C2
:100DB4000A9A4600C240A100010AEA4600C950A1AD
:100DC40000010AFA4600E470A1000172A24600D2B2
:100DD40073A1000175A64600DE80A100010A2A471E
:100DE40000EA90A100022171634600F80FA10001FE
:020DF4000AA54E
:100A7E00900149E0FF7E00EF64014E606B90014BE8
:100A8E00E0FF7E00EF64014E605E90014FE0FF7E5E
:100A9E0000EF64014E6051900151E0FF7E00EF6463
:100AAE00014E6044900147E0FF7E00EF64014E600E
:100ABE003790014DE0FF7E00EF64014E602A9001F9
:100ACE004AE0FF7E00EF64014E601D90014CE0FF96
:100ADE007E00EF64014E601090014EE0FF7E00EF4D
:100AEE0064014E6003020B8E900149E0FF7E00EF21
:100AFE0064014E70041217862290014BE0FF7E00B7
:100B0E00EF64014E70041216572290014FE0FF7EE3
:100B1E0000EF64014E70041214AD22900151E0FFFB
:100B2E007E00EF64014E700412168522900147E09C
:100B3E00FF7E00EF64014E70041216D02290014D1C
:100B4E00E0FF7E00EF64014E70041216AE2290019B
:100B5E004AE0FF7E00EF64014E70041216BF229031
:100B6E00014CE0FF7E00EF64014E70041213DA2296
:100B7E0090014EE0FF7E00EF64014E7003121243AF
:010B8E002244
:011786002240
:1016570090014BE4F07B017A0079D87D0612154B97
:071667009000F77401F0226E
:1014AD0090014FE4F07B017A0079F17D0612154B26
:1014BD007F011215F27D007C007F057E00120C7FEE
:0914CD009000CFE4F0A3E4F0224A
:10168500900151E4F09000CFE0FEA3E0FF1212A319
:061695007F001215F22295
:1016D000900147E4F0900148E0FF7E00120561228E
:1016AE0090014DE4F07B017A0079E47D0612154B32
:0116BE002209
:1016BF0090014AE4F07B017A0079D27D0612154B36
:0116CF0022F8
:1013DA0090014CE4F07B017A0079DE7D0612154B10
:1013EA00900146E0FF7E009001B9EEF0A3EFF09085
:1013FA0000CFE0FEA3E0FF9001B9E0FCA3E0FD12FC
:0D140A000C7F12169B9000CFEEF0A3EFF0C8
:0114170022B2
:1012430090014EE4F09000F7E0FF7E00EF64014E62
:1012530070089000EE7421F080069000EE7422F086
:101263009000D1E0FF7E00EF64014E70089000EF24
:101273007471F080069000EF7472F07B017A00794C
:10128300EA90016FE4F0A37406F07D0012116A90F6
:1012930000F0EFF07B017A0079EA7D0712154B220B
:101626001216E01215D67F007E0012166E1217698A
:0916360012134712160CD2AF2268
:10163F000001000200030004000500060007000877
:08164F000009000A000B000C69
:10106F009001BBE4F0A3E4F09001BBE0FEA3E0FF2E
:10107F00C3EF940CEE648094805065900190E0FE75
:10108F00A3E0FF900192E0FCA3E0FDC3ED9FFFEC16
:10109F009EFE9001BBE0FCA3E0FD1202447C007DAC
:1010AF000C120256900190E0FCA3E0FDEF2DFDEE37
:1010BF003CFC9001BBE0FEA3E0FFEF25E0FFEE3329
:1010CF00FE741B2FF58274013EF583ECF0A3EDF057
:1010DF009001BCE004F070069001BBE004F0808842
:0110EF0022DE
:041769001200262222
:080561009000FEEEF0A3EFF0A4
:100569009001027402F07BFF7A16793FC003C00242
:10057900C0017B017A017903A801AC02AD03D00166
:10058900D002D0037E007F181201839000FEE0FEA6
:10059900A3E0FFD3EF940CEE940040047F018002A6
:1005A9007F009000FEE0FCA3E0FDC3ED9401EC9414
:1005B9000050047E0180027E00EE4FFFEF60057E51
:1005C900FF7FFF2212106F900100E4F0A3E4F09086
:1005D9000100E0FEA3E0FFC3EF940CEE6480948079
:1005E9005066900100E0FEA3E0FFEF25E0FFEE3347
:1005F900FE74032FF58274013EF583E0FEA3E0FF4C
:100609009000FEE0FCA3E0FDEDB5072CECB5062853
:10061900900100E0FEA3E0FFEF25E0FFEE33FE745A
:100629001B2FF58274013EF583E0FEA3E0FF9000E5
:10063900FEEEF0A3EFF08010900101E004F07006E7
:10064900900100E004F080871211D8900133EEF098
:10065900A3EFF09000FEE0FEA3E0FF900133E0FC81
:10066900A3E0FDC3ED9FEC9E5007900102E4F080EA
:100679004A9000FEE0FEA3E0FFEF24FEFFEE34FF08
:10068900FE900133E0FCA3E0FDC3ED9FEC9E402505
:100699009000FEE0FEA3E0FFEF2402FFEE3400FE2F
:1006A900900133E0FCA3E0FDD3ED9FEC9E5006E4FE
:1006B9007E007F00229001027401F0900102E0FFA8
:1006C900EF1204DD06D7000713010000074F1217C8
:1006D900797F0A7E0012145512176D1211D89001F4
:1006E90033EEF0A3EFF09000FEE0FEA3E0FFEF246D
:1006F900FEFFEE34FFFE900133E0FCA3E0FDC3ED05
:100709009FEC9E40D612177180421217717F0A7EA4
:10071900001214551217751211D8900133EEF0A377
:10072900EFF09000FEE0FEA3E0FFEF2402FFEE34BD
:1007390000FE900133E0FCA3E0FDD3ED9FEC9E5059
:10074900D61217798006E47E007F0022E47E007FBE
:01075900009F
:01075A00227C
:03177D00524A00CD
:0D0DF6004100000042000100004100030028
:101347007FB07E047D007C00120EB37BFF7A0B79A1
:101357008F1215937B017A0079B8C003C002C001D0
:101367007B017A007904900166EBF0A3EAF0A3E928
:10137700F09001697414F090016A7409F0D001D0FB
:0A13870002D003120E0F121780228D
:0C1707009001AAEBF0A3EAF0A3E9F022A5
:100B8F00900135E4F0A3E4F0121713900000EFF09A
:100B9F00900000E0FF900001E475F0011202ABAD90
:100BAF00F0FC74372DF58274013CF583EFF0900162
:100BBF0037E0FF7E00EF64404E70099001BFE4F014
:100BCF00A37401F0900001E0FEA3E0FFC3EF9404D3
:100BDF00EE94005003020C7E90013AE0FF7E00EF8E
:100BEF002405FFEE3400FE900001E0FCA3E0FDEFD2
:100BFF006D7002EE6C70787B017A01793790013A53
:100C0F00E0FF7E00EF2404FFEE3400FE90016FEE54
:100C1F00F0A3EFF07D0012116A90013AE0FE743BF1
:100C2F002EF582E43401F583E0FEEFB506287B0153
:100C3F007A0079B8C003C002C0017B017A0179370D
:100C4F00900182EBF0A3EAF0A3E9F0D001D002D03B
:100C5F000312075B8011900003E004F07BFF7A170B
:0F0C6F00797D7D02121391900001E4F0A3E4F06F
:010C7E002253
:1012F7007B017A0079B81214D6EF70437B017A002C
:1013070079B8C003C002C0017B017A01795290010C
:1013170088EBF0A3EAF0A3E9F0D001D002D00312E2
:10132700094C900152E0FF900153E0FD7B017A01E7
:0F1337007956900155E0FE900160EEF0120F51D3
:011346002284
:10154B00900194EBF0A3EAF0A3E9F0900197EDF092
:10155B00900194E0FBA3E0FAA3E0F9900197E0FD82
:04156B0012139122A4
:050E03004201BF0000E8
:0E16E00053B3FE43B4017FF47E011214552271
:10166E009001BDEEF0A3EFF012156F9001BDE0FEFC
:07167E00A3E0FF121481221A
:10169B00AFD27E00EF7F00FEADDA7C00EE4CFEEFAA
:0316AB004DFF22CE
:100C7F00900173EEF0A3EFF0900175ECF0A3EDF09F
:100C8F00900177E4F0A3E4F0900175E0FEA3E0FF9C
:100C9F00900173E0FCA3E0FDD3ED9FEC9E405C90D0
:100CAF000173E0FEA3E0FF900177EEF0A3EFF09069
:100CBF000175E0FEA3E0FF900177E0FCA3E0FDD318
:100CCF00ED9FEC9E5003020D619001BFE0FEA3E08B
:100CDF00FFEF64014E607B900177E0FEA3E0FF120F
:100CEF0014817F0A7E00121455900178E024FFF0E2
:100CFF00900177E034FFF080B68057900173E0FEEB
:100D0F00A3E0FF900177EEF0A3EFF0900175E0FE06
:100D1F00A3E0FF900177E0FCA3E0FDC3ED9FEC9E05
:100D2F0050309001BFE0FEA3E0FFEF64014E602260
:100D3F00900177E0FEA3E0FF1214817F0A7E00127C
:100D4F001455900178E004F07006900177E004F0FC
:0A0D5F0080B99001BFE4F0A3E4F0B6
:010D69002267
:0812A300900198EEF0A3EFF0BA
:1012AB0090019AE4F0A3E4F0900198E0FEA3E0FF34
:1012BB0090019AEEF0A3EFF090019AE0FEA3E0FF0D
:1012CB00D3EF9405EE9400402290019AE0FEA3E048
:1012DB00FF1214817F147E0012145590019BE024A1
:0B12EB00FFF090019AE034FFF080CD8E
:0112F60022D5
:1015D60053B3EF43B41053B3FE43B40153B3F743CD
:0C15E600B4085390EF5390FE5390F7228E
:1015F2009001C7EFF09001C7E0FF7E00EF64014E5B
:0A1602007004439010225390EF2271
:04176D004390012282
:041771005390FE2271
:041775004390082273
:041779005390F72270
:1000260043B12053B2DF43E101C2EF53E8FF43E897
:050036000543F6102255
:09171F00C2EF43E84030EFFD2267
:1011D800900179E4F0A3E4F090017BE4F0A3E4F05B
:1011E80090017DE4F0A3E4F012171FE5C2540FFF4D
:1011F8007E00900179EEF0A3EFF0AFC37E0090017E
:101208007BEEF0A3EFF090017BE0FEA3E0FFEFC4DC
:10121800F8540FC868FFEEC454F048FE900179E016
:10122800FCA3E0FDEE4CFEEF4DFF90017DEEF0A338
:0A123800EFF090017DE0FEA3E0FF5F
:011242002289
:101455009001C1EEF0A3EFF09001C1E0FEA3E0FF23
:10146500EF4E60177FE87E031214189001C2E02446
:0C147500FFF09001C1E034FFF080DD22A8
:0814180090019CEEF0A3EFF03F
:1014200090019CE0FCA3E0FDE412004312007C90DC
:10143000019EEEF0A3EFF090019EE0FEA3E0FFEF2F
:101440004E60110090019FE024FFF090019EE03477
:04145000FFF080E346
:011454002275
:10156F0053B3FB53B4FB43DE0153DF3F53DFEFD2E3
:10157F00DC538EBF43DF0353DFFB75D60075D100FD
:04158F0075D9852263
:101481009001C3EEF0A3EFF0C2DF9001C3E0FEA331
:10149100E0FF7F00EEFF7E008FD29001C3E0FEA34C
:0C14A100E0FFEF54FFF5DAD2DED2DF22CC
:060E08004301B0000000F0
:100EB3009001A012046253B1BF53B2BF53B17F5329
:100EC300B27F9001A0E0F8A3E0F9A3E0FAA3E0FB6E
:100ED3007F407E427D0F7C001203AFA804A905AAC0
:100EE30006AB07C374FF9BFF74FF9AFEE499FDE40E
:100EF30098FC780812044F8FC69001A0E0F8A3E095
:100F0300F9A3E0FAA3E0FB7F407E427D0F7C001251
:100F130003AFA804A905AA06AB07C374FF9BFF741C
:100F2300FF9AFEE499FDE498FCEF54FFFFEE5400B2
:100F3300FEED5400FDEC5400FC8FC575987043879B
:0E0F43008053C4F843C42043C408121783220D
:03178000D2AC22C6
:03178300C2AC22D3
:050003009001C5EFF0C3
:10000800C2999001C5E0FFEF64FFFF9001C6EFF0D1
:0A0018009001C5E0FF8F993099FDBB
:0100220022BB
:1013910090018BEBF0A3EAF0A3E9F090018EEDF060
:1013A10090018FE4F090018EE0FF90018FE0FEEE5E
:1013B100C39F502490018BE0FBA3E0FAA3E0F990D6
:1013C100018FE0FF8F827583001201C2FF120003BB
:0813D10090018FE004F080CDD3
:0113D90022F1
:0B1713009001C8E599F09001C8E0FFCC
:01171E0022A8
:101593009001ADEBF0A3EAF0A3E9F09001ADE0FB1D
:1015A300A3E0FAA3E0F99001B0EBF0A3EAF0A3E91A
:0215B300F02224
:030023000210F0D8
:1010F000C0E0C0F0C083C082C0D075D000C000C0C6
:1011000001C002C003C004C005C006C00730983A41
:10111000C2987B007A007900C003C002C001900130
:10112000B0E0FBA3E0FAA3E0F9D082D083D0E06B7B
:101130007008E965827003EA6583600E9001B0E093
:10114000FBA3E0FAA3E0F9120503309902C299D09B
:1011500007D006D005D004D003D002D001D000D0F3
:0A116000D0D082D083D0F0D0E0326E
:10160C0043B38053B47F43E90143E98043EA8053F9
:0A161C00EB7F439B02D2AFD297226E
:0917280053B3DF43B420C2952243
:03003B000216EEBC
:0D16EE00C0D053EC7FA295B39295D0D032BE
:100E0F00900163EBF0A3EAF0A3E9F0900163E0FB3C
:100E1F00A3E0FAA3E0F9758206758300E475F0008C
:100E2F00120346900163E0FBA3E0FAA3E0F9758299
:100E3F0008758300E475F000120346900163E0FB30
:100E4F00A3E0FAA3E0F9758205758300E41202228C
:100E5F0090016AE0FF900163E0FBA3E0FAA3E0F9E1
:100E6F00758203758300EF120222900169E0FF90F3
:100E7F000163E0FBA3E0FAA3E0F975820475830038
:100E8F00EF120222900166E0FBA3E0FAA3E0F9C0A3
:100E9F0003C002C001900163E0FBA3E0FAA3E0F9F5
:040EAF0012048E2279
:10075B0090017FEBF0A3EAF0A3E9F090017FE0FBBF
:10076B00A3E0FAA3E0F91215B590017FE0FBA3E03B
:10077B00FAA3E0F97582047583001201C2FEEFC380
:10078B009E500302083C90017FE0FBA3E0FAA3E03C
:10079B00F97582047583001201C2FF90017FE0FBA3
:1007AB00A3E0FAA3E0F97582037583001201C2FE80
:1007BB00EE8FF0A4FFAEF090017FE0FBA3E0FAA375
:1007CB00E0F97582087583001202C1FDACF0C3ED30
:1007DB009FEC9E401890017FE0FBA3E0FAA3E0F9A9
:1007EB00758208758300E475F00012034690017F53
:1007FB00E0FBA3E0FAA3E0F9758203758300120115
:10080B00C2FF7E0090017FE0FBA3E0FAA3E0F97545
:10081B008208758300EE8FF01202F990017FE0FBE6
:10082B00A3E0FAA3E0F975820575830074FF12014A
:10083B00EF90017FE0FBA3E0FAA3E0F9758204756A
:10084B0083001201C2FF90017FE0FBA3E0FAA3E05B
:10085B00F97582037583001201C2FEEE8FF0A4FFBF
:10086B00AEF090017FE0FBA3E0FAA3E0F9758206FE
:10087B007583001202C1FDACF0C3ED9FEC9E4018D6
:10088B0090017FE0FBA3E0FAA3E0F9758206758384
:10089B0000E475F00012034690017FE0FBA3E0FA41
:1008AB00A3E0F97582037583001201C2FF7E0090ED
:1008BB000182E0FBA3E0FAA3E0F9C003C002C00190
:1008CB0090017FE0FBA3E0FAA3E0F9758206758344
:1008DB00001202C1FDACF090017FE0FBA3E0FAA394
:1008EB00E0F912046EE92DF9EA3CFAA801AC02AD6D
:1008FB0003D001D002D00312018390017FE0FBA350
:10090B00E0FAA3E0F97582037583001201C2FF7E42
:10091B000090017FE0FBA3E0FAA3E0F97582067576
:10092B008300EE8FF01202F990017FE0FBA3E0FA57
:10093B00A3E0F975820575830074011201EF7F0145
:01094B002289
:10094C00900185EBF0A3EAF0A3E9F0900185E0FBC0
:10095C00A3E0FAA3E0F91215B5EF7003020A7B903D
:10096C000185E0FBA3E0FAA3E0F97582047583002E
:10097C001201C2FF900185E0FBA3E0FAA3E0F97538
:10098C0082037583001201C2FEEE8FF0A4FFAEF05D
:10099C00900185E0FBA3E0FAA3E0F975820875836A
:1009AC00001202C1FDACF0C3ED9FEC9E401890010B
:1009BC0085E0FBA3E0FAA3E0F9758208758300E4F7
:1009CC0075F000120346900185E0FBA3E0FAA3E06A
:1009DC00F97582037583001201C2FF7E00900185B8
:1009EC00E0FBA3E0FAA3E0F975820875830012021C
:1009FC00C1FDACF0900185E0FBA3E0FAA3E0F91295
:100A0C00046EE92DF9EA3CFAC003C002C001900162
:100A1C0088E0FBA3E0FAA3E0F9A801AC02AD03D097
:100A2C0001D002D003120183900185E0FBA3E0FA10
:100A3C00A3E0F97582037583001201C2FF7E00905A
:100A4C000185E0FBA3E0FAA3E0F975820875830049
:100A5C00EE8FF01202F9900185E0FBA3E0FAA3E01F
:100A6C00F975820575830074FF1201EF7F01227FF7
:020A7C00002256
:1014D6009001B3EBF0A3EAF0A3E9F09001B3E0FBCF
:1014E600A3E0FAA3E0F97582057583001201C2FF35
:0914F600EF60037F00227F012258
:1015B5009001B6EBF0A3EAF0A3E9F09001B6E0FBE9
:1015C500A3E0FAA3E0F97582057583001201C2FF55
:0115D50022F3
:10116A0090016BEBF0A3EAF0A3E9F090016EEDF0C9
:10117A00900171E4F0900172E4F090016EE0FF904A
:10118A000172EFF0900172E0FF7E0090016FE0FCC7
:10119A00A3E0FDC3EF9DEE9C502E900171E0FF90FD
:1011AA00016BE0FBA3E0FAA3E0F9900172E0FE8E86
:1011BA00827583001201C2FEEF6EFF900171EFF09B
:0D11CA00900172E004F080BC900171E0FF24
:0111D70022F5
:10003E0075F020800E75F010800575F0087D007E3D
:10004E00007F003392D530D503120441EC334010BB
:10005E00EF33FFEE33FEED33FDEC33FCD5F0ED2246
:0E006E00E5F0247EA2D513CC92E7CDCEFF2282
:10007C00EDD2E7CD33EC3392D524814006E4FFFE7C
:10008C00FDFC22FCE4CFCECDCC24E0501174FF80DB
:10009C00EDC3CC13CCCD13CDCE13CECF13CF047078
:0700AC00F030D5DE02044133
:100FEF000216FBE493A3F8E493A34003F68001F207
:100FFF0008DFF48029E493A3F85407240CC8C33303
:10100F00C4540F4420C8834004F456800146F6DFD1
:10101F00E4800B0102040810204080900D6AE47EEA
:10102F00019360BCA3FF543F30E509541FFEE493C6
:10103F00A360010ECF54C025E060A840B8E493A38D
:10104F00FAE493A3F8E493A3C8C582C8CAC583CAB8
:10105F00F0A3C8C582C8CAC583CADFE9DEE780BE70
:010E0E0000E3
:1000B300E709F608DFFA8046E709F208DFFA803E2F
:1000C30088828C83E709F0A3DFFA8032E309F6081C
:1000D300DFFA8078E309F208DFFA807088828C8384
:1000E300E309F0A3DFFA806489828A83E0A3F60838
:1000F300DFFA805889828A83E0A3F208DFFA804C12
:1001030080D280FA80C680D4806980F280338010E8
:1001130080A680EA809A80A880DA80E280CA803351
:1001230089828A83ECFAE493A3C8C582C8CCC583C9
:10013300CCF0A3C8C582C8CCC583CCDFE9DEE78099
:100143000D89828A83E493A3F608DFF9ECFAA9F018
:10015300EDFB2289828A83ECFAE0A3C8C582C8CC6E
:10016300C583CCF0A3C8C582C8CCC583CCDFEADE87
:10017300E880DB89828A83E493A3F208DFF980CCE9
:1001830088F0EF60010E4E60C388F0ED2402B404E2
:100193000050B9F582EB2402B4040050AF23234589
:0601A300822390010373AA
:1001A900BB010689828A83E0225002E722BBFE0254
:0901B900E32289828A83E4932287
:1001C200BB010CE58229F582E5833AF583E02250F2
:1001D20006E92582F8E622BBFE06E92582F8E2223C
:0D01E200E58229F582E5833AF583E4932256
:1001EF00BB010FF8E58229F582E5833AF583E02814
:1001FF00F0225009C58229F8E58226F622BBFE09B6
:10020F00C58229F8E22582F222F8EA2583F583E9EF
:03021F00932822FF
:10022200F8BB010DE58229F582E5833AF583E8F012
:10023200225006E92582C8F622BBFE05E92582C8BE
:02024200F222A6
:10024400EF8DF0A4A8F0CF8CF0A428CE8DF0A42ECE
:02025400FE2288
:10025600BC000BBE0029EF8DF084FFADF022E4CC8C
:10026600F875F008EF2FFFEE33FEEC33FCEE9DEC55
:10027600984005FCEE9DFE0FD5F0E9E4CEFD22ED9B
:10028600F8F5F0EE8420D21CFEADF075F008EF2FE5
:10029600FFED33FD4007985006D5F0F222C398FDD6
:0502A6000FD5F0EA2273
:1002AB00A3F8E0C5F025F0F0E58215827002158306
:0602BB00E0C838F0E82263
:1002C100BB0110E58229F582E5833AF583E0F5F07B
:1002D100A3E0225009E92582F886F008E622BBFE58
:1002E1000AE92582F8E2F5F008E222E5832AF5839E
:0802F100E993F5F0A3E9932263
:1002F900BB010DC58229C582C5833AC5830205099B
:100309005011C58229F808E5F026F618F5F0E582BE
:1003190036F622BBFE11C58229F808E225F0F5F070
:10032900F218E23582F222F8E58229F582E5832A7C
:0D033900F58374019325F0F5F0E49338226C
:10034600F8BB0111E58229F582E5833AF583E8F0E9
:10035600E5F0A3F0225009E92582C8F608A6F022A6
:0D036600BBFE09E92582C8F2E5F008F2228D
:1003730075F008758200EF2FFFEE33FECD33CDCC41
:1003830033CCC58233C5829BED9AEC99E5829840C4
:100393000CF582EE9BFEED9AFDEC99FC0FD5F0D6A1
:1003A300E4CEFBE4CDFAE4CCF9A88222B800C1B9CB
:1003B3000059BA002DEC8BF084CFCECDFCE5F0CB09
:1003C300F97818EF2FFFEE33FEED33FDEC33FCEB42
:1003D30033FB10D703994004EB99FB0FD8E5E4F9FD
:1003E300FA227818EF2FFFEE33FEED33FDEC33FCEA
:1003F300C933C910D7059BE99A4007EC9BFCE99ADE
:10040300F90FD8E0E4C9FAE4CCFB2275F010EF2F22
:10041300FFEE33FEED33FDCC33CCC833C810D70722
:100423009BEC9AE899400AED9BFDEC9AFCE899F85D
:0E0433000FD5F0DAE4CDFBE4CCFAE4C8F922F0
:0E044100C3E49FFFE49EFEE49DFDE49CFC22CC
:10044F00E8600FECC313FCED13FDEE13FEEF13FF8B
:03045F00D8F122AF
:0C046200ECF0A3EDF0A3EEF0A3EFF0220D
:10046E00BB010789828A830205315005E9F802052E
:10047E001FBBFE05E9F802054389828A83020555F2
:10048E00BB011A89828A83D0F0D0E0F8D0E0F9D08F
:10049E00E0FAD0E0FBE8C0E0C0F002053A5016E901
:1004AE00F8D083D082D0E0F9D0E0FAD0E0FBC08261
:1004BE00C083020528BBFE16E9F8D083D082D0E0B7
:0F04CE00F9D0E0FAD0E0FBC082C08302054C22D7
:1004DD00D083D082F8E4937012740193700DA3A3AE
:1004ED0093F8740193F5828883E4737402936860C2
:0604FD00EFA3A3A380DFC2
:060503008A838982E47383
:10050900C5F0F8A3E028F0C5F0F8E582158270027D
:060519001583E038F0221A
:09051F00E6FB08E6FA08E6F92201
:09052800EBF608EAF608E9F622F8
:09053100E0FBA3E0FAA3E0F922CB
:09053A00EBF0A3EAF0A3E9F022C2
:09054300E2FB08E2FA08E2F922E9
:09054C00EBF208EAF208E9F222E0
:0C055500E493FB740193FA740293F92202
:00000001FF
