:0300000002129F4A
:0C129F00787FE4F6D8FD7581070212E6A6
:1017DC0090011412049C0000271090011474FF1245
:1017EC00045DEC4D4E4F60033097EF7F017E007D22
:1017FC00007C00900114E0F8A3E0F9A3E0FAA3E068
:0A180C00FBC31204375003120F61F2
:0118160022AF
:101B2100121A602097031217DC12167E120C7580B0
:021B3100F2229E
:101172004100B5004100B7004100BB004100BD0085
:101182004100B3004100B9004100B6004100B8007F
:101192004100BA004100BC004100B2004100B4016C
:10120D009000DFEFF09000E0EDF09000E1EBF0A347
:05121D00EAF0A3E9F076
:101222009000E0E0FF9000E5EFF09000E4E0FF9036
:1012320000E6EFF09000DFE0FFEF12053C129B0F9B
:10124200126110126520126930126D401271501233
:1012520080701284731288801297900000129E127E
:10126200000322121BB222121BB922121BC02290AF
:1012720000E1E0FBA3E0FAA3E0F912194722121BF6
:10128200C722121BCE229000E1E0FBA3E0FAA3E00A
:0C129200F912196D22121BD522121BDC70
:01129E00222D
:070003009000B57401F0222A
:071BB2009000B77401F0225E
:071BB9009000BB7401F02253
:071BC0009000BD7401F0224A
:10194700900130EBF0A3EAF0A3E9F09000B3740143
:10195700F0900130E0FBA3E0FAA3E0F9120191FF58
:061967009000B4EFF02235
:071BC7009000B97401F02247
:071BCE009000B67401F02243
:10196D00900133EBF0A3EAF0A3E9F09000B8740115
:10197D00F0900133E0FBA3E0FAA3E0F9120191FF2F
:06198D009000B2EFF02211
:071BD5009000BA7401F02238
:071BDC009000BC7401F0222F
:1011A20046001620A100010A8A46002F30A1000144
:1011B2000A9A46000040A100010AEA46000750A12F
:1011C20000010AFA46002270A1000172A246001034
:1011D20073A1000175A646001C80A100010A2A47DE
:1011E200002890A100022171634600360FA1000180
:0211F2000AA54C
:100C75009000B5E0FF7E00EF64014E606B9000B719
:100C8500E0FF7E00EF64014E605E9000BBE0FF7EFA
:100C950000EF64014E60519000BDE0FF7E00EF64FF
:100CA500014E60449000B3E0FF7E00EF64014E60AA
:100CB500379000B9E0FF7E00EF64014E602A900096
:100CC500B6E0FF7E00EF64014E601D9000B8E0FFC6
:100CD5007E00EF64014E60109000BAE0FF7E00EFE9
:100CE50064014E6003020D859000B5E0FF7E00EFC4
:100CF50064014E7004121BEA229000B7E0FF7E00EB
:100D0500EF64014E7004121ACA229000BBE0FF7E08
:100D150000EF64014E70041218F5229000BDE0FF4B
:100D25007E00EF64014E7004121AF8229000B3E0C1
:100D3500FF7E00EF64014E7004121B67229000B91C
:100D4500E0FF7E00EF64014E7004121B4522900007
:100D5500B6E0FF7E00EF64014E7004121B56229030
:100D650000B8E0FF7E00EF64014E700412176122A7
:100D75009000BAE0FF7E00EF64014E700312156F1C
:010D8500224B
:061BEA009000B5E4F022BA
:101ACA009000B7E4F07B017A0079167D061219932B
:071ADA009000357401F022B9
:1018F5009000BBE4F07B017A00792F7D06121993E5
:101905007F01121A987D007C007F057E00120E76FD
:0919150090000DE4F0A3E4F022BF
:101AF8009000BDE4F090000DE0FEA3E0FF12162A6E
:061B08007F00121A982272
:101B67009000B3E4F09000B4E0FF7E001205C022BD
:101B45009000B9E4F07B017A0079227D06121993A1
:011B5500226D
:101B56009000B6E4F07B017A0079107D06121993A5
:011B6600225C
:101761009000B8E4F07B017A00791C7D0612199390
:101771009000B2E0FF7E00900148EEF0A3EFF09000
:10178100000DE0FEA3E0FF900148E0FCA3E0FD12A4
:0D1791000E76121B0E90000DEEF0A3EFF08F
:01179E002228
:10156F009000BAE4F0900035E0FF7E00EF64014E8A
:10157F00700890002C7421F0800690002C7422F0DB
:10158F0090000FE0FF7E00EF64014E700890002D79
:10159F007471F0800690002D7472F07B017A0079DF
:1015AF00289000F3E4F0A37406F07D0012149690D7
:1015BF00002EEFF07B017A0079287D071219932214
:101A6000121B86121A7C7F007E00121AE1121BFCE8
:0C1A7000121B331216CE121BE3D2AF2261
:101AB2000001000200030004000500060007000800
:081AC2000009000A000B000CF2
:10132B0090014AE4F0A3E4F090014AE0FEA3E0FF51
:10133B00C3EF940CEE648094805065900091E0FEB6
:10134B00A3E0FF900093E0FCA3E0FDC3ED9FFFEC57
:10135B009EFE90014AE0FCA3E0FD12022C7C007D76
:10136B000C12023E900091E0FCA3E0FDEF2DFDEE90
:10137B003CFC90014AE0FEA3E0FFEF25E0FFEE33DB
:10138B00FE74772FF58274003EF583ECF0A3EDF03D
:10139B0090014BE004F0700690014AE004F0808865
:0113AB00221F
:100F6100900118E4F0A3E4F090011AE4F0A3E4F096
:100F7100121C00121504900118EEF0A3EFF090017D
:100F810018E0FEA3E0FF90011AE0FCA3E0FDED6F85
:100F91007002EC6E6024900118E0FEA3E0FF900166
:100FA1001AEEF0A3EFF07FE87E0312179F121504EB
:100FB100900118EEF0A3EFF080C4121C0490011A06
:100FC100E0FEA3E0FF900093EEF0A3EFF07FE87E58
:100FD1000312184590011AE4F0A3E4F0121C0890E2
:100FE1000118E0FEA3E0FF90011AE0FCA3E0FDED93
:100FF1006F7002EC6E6024900118E0FEA3E0FF9098
:10100100011AEEF0A3EFF07FE87E0312179F12158D
:1010110004900118EEF0A3EFF080C4121C0C9001B3
:0E1021001AE0FEA3E0FF900091EEF0A3EFF0C6
:01102F00229E
:041BFC0012000E22A3
:0805C000900095EEF0A3EFF0AE
:1005C8009000997402F07BFF7A1A79B2C003C002D6
:1005D800C0017B017A00799AA801AC02AD03D00171
:1005E800D002D0037E007F1812016B900095E0FEC8
:1005F800A3E0FFD3EF940CEE940040047F01800247
:100608007F00900095E0FCA3E0FDC3ED9401EC941D
:100618000050047E0180027E00EE4FFFEF60057EF1
:10062800FF7FFF2212132B900097E4F0A3E4F090D1
:100638000097E0FEA3E0FFC3EF940CEE6480948083
:100648005066900097E0FEA3E0FFEF25E0FFEE3351
:10065800FE749A2FF58274003EF583E0FEA3E0FF56
:10066800900095E0FCA3E0FDEDB5072CECB506285D
:10067800900097E0FEA3E0FFEF25E0FFEE33FE7465
:10068800772FF58274003EF583E0FEA3E0FF90002B
:1006980095EEF0A3EFF08010900098E004F070065B
:1006A800900097E004F0808712150490008FEEF018
:1006B800A3EFF0900095E0FEA3E0FF90008FE0FC30
:1006C800A3E0FDC3ED9FEC9E5007900099E4F080F5
:1006D8004A900095E0FEA3E0FFEF24FEFFEE34FF12
:1006E800FE90008FE0FCA3E0FDC3ED9FEC9E40254B
:1006F800900095E0FEA3E0FFEF2402FFEE3400FE39
:1007080090008FE0FCA3E0FDD3ED9FEC9E5006E443
:100718007E007F00229000997401F0900099E0FF1C
:10072800EF12053C073600077201000007AE121CE5
:100738000C7F0A7E00121845121C00121504900046
:100748008FEEF0A3EFF0900095E0FEA3E0FFEF241A
:10075800FEFFEE34FFFE90008FE0FCA3E0FDC3ED4A
:100768009FEC9E40D6121C048042121C047F0A7E15
:1007780000121845121C0812150490008FEEF0A301
:10078800EFF0900095E0FEA3E0FFEF2402FFEE34C7
:1007980000FE90008FE0FCA3E0FDD3ED9FEC9E509F
:1007A800D6121C0C8006E47E007F0022E47E007FC7
:0107B8000040
:0107B900221D
:031C1000524A0035
:0D11F40041003C0042003D000041003F0072
:1016CE007F807E257D007C001210D47BFF7A0D7901
:1016DE00861219DB7B017A00796DC003C002C0014E
:1016EE007B017A0079409000EAEBF0A3EAF0A3E9DF
:1016FE00F09000ED7405F09000EE7409F0D001D07A
:0A170E0002D003121030121C132247
:100D86009000BEE4F0A3E4F0121B9490003CEFF058
:100D960090003CE0FF90003DE475F001120293AD37
:100DA600F0FC74C02DF58274003CF583EFF09000E2
:100DB600C0E0FF7E00EF64404E700990014EE4F003
:100DC600A37401F090003DE0FEA3E0FFC3EF94049E
:100DD600EE94005003020E759000C3E0FF7E00EF14
:100DE6002405FFEE3400FE90003DE0FCA3E0FDEF9D
:100DF6006D7002EE6C70787B017A0079C09000C34A
:100E0600E0FF7E00EF2404FFEE3400FE9000F3EED8
:100E1600F0A3EFF07D001214969000C3E0FE74C4B8
:100E26002EF582E43400F583E0FEEFB506287B015B
:100E36007A00796DC003C002C0017B017A0079C0D7
:100E4600900106EBF0A3EAF0A3E9F0D001D002D0BE
:100E5600031207BA801190003FE004F07BFF7A1C72
:0F0E660079107D0212171890003DE4F0A3E4F01C
:010E7500225A
:10167E007B017A00796D12191EEF70437B017A009F
:10168E00796DC003C002C0017B017A0079D690014A
:10169E000CEBF0A3EAF0A3E9F0D001D002D00312D4
:1016AE000B439000D6E0FF9000D7E0FD7B017A005F
:0F16BE0079DA9000D9E0FE9000E4EEF012120D00
:0116CD0022FA
:1019930090011CEBF0A3EAF0A3E9F090011FEDF036
:1019A30090011CE0FBA3E0FAA3E0F990011FE0FD26
:0419B30012171822CD
:0512010042014E000057
:0E1B860053B3FE43B4017FF47E0112184522D2
:101AE10090014CEEF0A3EFF01219B790014CE0FE1B
:071AF100A3E0FF12187122AF
:101B0E00AFD27E00EF7F00FEADDA7C00EE4CFEEF32
:031B1E004DFF2256
:100E76009000F7EEF0A3EFF09000F9ECF0A3EDF0A0
:100E86009000FBE4F0A3E4F09000F9E0FEA3E0FF9D
:100E96009000F7E0FCA3E0FDD3ED9FEC9E405C9054
:100EA60000F7E0FEA3E0FF9000FBEEF0A3EFF0906A
:100EB60000F9E0FEA3E0FF9000FBE0FCA3E0FDD319
:100EC600ED9FEC9E5003020F5890014EE0FEA3E00A
:100ED600FFEF64014E607B9000FBE0FEA3E0FF1293
:100EE60018717F0A7E001218459000FCE024FFF07E
:100EF6009000FBE034FFF080B680579000F7E0FEEC
:100F0600A3E0FF9000FBEEF0A3EFF09000F9E0FE07
:100F1600A3E0FF9000FBE0FCA3E0FDC3ED9FEC9E89
:100F2600503090014EE0FEA3E0FFEF64014E6022D8
:100F36009000FBE0FEA3E0FF1218717F0A7E00120C
:100F460018459000FCE004F070069000FBE004F009
:0A0F560080B990014EE4F0A3E4F02E
:010F6000226E
:08162A00900120EEF0A3EFF0A7
:10163200900122E4F0A3E4F0900120E0FEA3E0FF99
:10164200900122EEF0A3EFF0900122E0FEA3E0FF72
:10165200D3EF9405EE94004022900122E0FEA3E035
:10166200FF1218717F147E00121845900123E024A6
:0B167200FFF0900122E034FFF080CD7B
:01167D00224A
:101A7C0053B3EF43B41053B3FE43B40153B3F74322
:0C1A8C00B4085390EF5390FE5390F722E3
:101A9800900156EFF0900156E0FF7E00EF64014E92
:0A1AA8007004439010225390EF22C7
:041C000043900122EA
:041C04005390FE22D9
:041C080043900822DB
:041C0C005390F722D8
:10000E0043B12053B2DF43E101C2EF53E8FF43E8AF
:05001E000543F610226D
:091BA000C2EF43E84030EFFD22E2
:101504009000FDE4F0A3E4F09000FFE4F0A3E4F025
:10151400900101E4F0A3E4F0121BA0E5C2540FFF14
:101524007E009000FDEEF0A3EFF0AFC37E009000CC
:10153400FFEEF0A3EFF09000FFE0FEA3E0FFEFC4A6
:10154400F8540FC868FFEEC454F048FE9000FDE064
:10155400FCA3E0FDEE4CFEEF4DFF900101EEF0A385
:0A156400EFF0900101E0FEA3E0FFAC
:01156E00225A
:10184500900150EEF0A3EFF0900150E0FEA3E0FF11
:10185500EF4E60177FE87E0312179F900151E02439
:0C186500FFF0900150E034FFF080DD2225
:08179F00900124EEF0A3EFF02D
:1017A700900124E0FCA3E0FDE412002B12006490FA
:1017B7000126EEF0A3EFF0900126E0FEA3E0FFEF95
:1017C7004E601100900127E024FFF0900126E034DD
:0417D700FFF080E3BC
:0117DB0022EB
:1019B70053B3FB53B4FB43DE0153DF3F53DFEFD297
:1019C700DC538EBF43DF0353DFFB75D60075D100B1
:0419D70075D9852217
:10187100900152EEF0A3EFF0C2DF900152E0FEA31F
:10188100E0FF7F00EEFF7E008FD2900152E0FEA3C9
:0C189100E0FFEF54FFF5DAD2DED2DF22D8
:0612060043013900000065
:1010D40090012812049053B1BF53B2BF53B17F5350
:1010E400B27F900128E0F8A3E0F9A3E0FAA3E0FBC3
:1010F4007F407E427D0F7C00120397A804A905AAB5
:1011040006AB07C374FF9BFF74FF9AFEE499FDE4EA
:1011140098FC78081204488FC6900128E0F8A3E0F0
:10112400F9A3E0FAA3E0FB7F407E427D0F7C00122E
:101134000397A804A905AA06AB07C374FF9BFF7411
:10114400FF9AFEE499FDE498FCEF54FFFFEE54008F
:10115400FEED5400FDEC5400FC8FC5759870438778
:0E1164008053C4F843C42043C408121C162252
:031C1300D2AC222E
:031C1600C2AC223B
:051A4000900154EFF0DD
:101A4500C299900154E0FFEF64FFFF900155EFF05C
:0A1A5500900154E0FF8F993099FDD5
:011A5F002264
:1017180090010FEBF0A3EAF0A3E9F0900112EDF0CD
:10172800900113E4F0900112E0FF900113E0FEEE47
:10173800C39F502490010FE0FBA3E0FAA3E0F990C7
:101748000113E0FF8F827583001201AAFF121A406D
:08175800900113E004F080CDC4
:011760002266
:0B1B9400900157E599F0900157E0FF29
:011B9F002223
:1019DB00900136EBF0A3EAF0A3E9F0900136E0FBBF
:1019EB00A3E0FAA3E0F9900139EBF0A3EAF0A3E945
:0219FB00F022D8
:030023000213AC19
:1013AC00C0E0C0F0C083C082C0D075D000C000C007
:1013BC0001C002C003C004C005C006C00730983A83
:1013CC00C2987B007A007900C003C002C001900172
:1013DC0039E0FBA3E0FAA3E0F9D082D083D0E06B34
:1013EC007008E965827003EA6583600E900139E04C
:1013FC00FBA3E0FAA3E0F9120562309902C299D07E
:10140C0007D006D005D004D003D002D001D000D034
:0A141C00D0D082D083D0F0D0E032AF
:071BE30043B38053B47F22DD
:091BA90053B3DF43B420C29522BE
:10181700900158EFF0900158E0FFEF12053C1835A2
:101827000018410118410218410300001841438E76
:0E18370008438901758AEA758CCB121BF622D4
:1019FD0090013CEBF0A3EAF0A3E9F090013CE0FB91
:101A0D00A3E0FAA3E0F990013FEBF0A3EAF0A3E91C
:021A1D00F022B5
:10189D00900159EFF0900159E0FFEF12053C18BB94
:1018AD000018BF0118C20218C503000018C84388EC
:0C18BD00102243884043C80443C40822A2
:061BF0007F0012189D2287
:1018C90090015AEFF090015AE0FFEF12053C18E73A
:1018D9000018EB0118EE0218F103000018F4538800
:0C18E900EF225388BF53C8FB53C4F72202
:061BF6007F001218C92255
:03000B00021426B6
:10142600C0E0C0F0C083C082C0D075D000C000C08C
:1014360001C002C003C004C005C006C0077B007A15
:10144600007900C003C002C00190013FE0FBA3E0A9
:10145600FAA3E0F9D082D083D0E06B7008E9658208
:101466007003EA6583600E90013FE0FBA3E0FAA3F8
:10147600E0F9120562D007D006D005D004D003D01B
:1014860002D001D000D0D0D082D083D0F0D0E032CC
:101B33007F001218177BFF7A1579CF1219FD121B3C
:021B4300F0228E
:1015CF009000D2E0FCA3E0FDA3E0FEA3E0FF7B01CF
:1015DF007A0079007800EF2BFFEE3AFEED39FDEC43
:1015EF0038FC9000D21204907F007E947D357C777A
:1015FF009000D2E0F8A3E0F9A3E0FAA3E0FBD31246
:10160F000437400A9000D212049C00000000538857
:0B161F00EF758AEA758CCB438810221F
:0F1B77009000D2E0FCA3E0FDA3E0FEA3E0FF227C
:0609AB0090012C120490E3
:1009B100121B779000CA120490121B779000CE127E
:1009C100049090012CE0F8A3E0F9A3E0FAA3E0FB86
:1009D100C3E49BFF74949AFE743599FD747798FC77
:1009E1009000CAE0F8A3E0F9A3E0FAA3E0FBC31288
:1009F1000437504C9000CAE0F8A3E0F9A3E0FAA351
:100A0100E0FB9000CEE0FCA3E0FDA3E0FEA3E0FF4D
:100A1100C3EF9BFFEE9AFEED99FDEC98FC90012C43
:100A2100E0F8A3E0F9A3E0FAA3E0FBD31204375006
:100A310003020B42121B779000CE12049080B52264
:100A410090012CE0FCA3E0FDA3E0FEA3E0FF9000F9
:100A5100CEE0F8A3E0F9A3E0FAA3E0FBD312043758
:100A61005003020AEB90012CE0FCA3E0FDA3E0FEA1
:100A7100A3E0FF9000CEE0F8A3E0F9A3E0FAA3E041
:100A8100FBD3120437400B121B779000CE12049057
:100A910080D39000CAE0F8A3E0F9A3E0FAA3E0FB59
:100AA100C3E49BFF74949AFE743599FD747798FCA6
:100AB1009000CEE0F8A3E0F9A3E0FAA3E0FBEF2B6E
:100AC100FFEE3AFEED39FDEC38FC90012CE0F8A385
:100AD100E0F9A3E0FAA3E0FBD31204374063121B51
:100AE100779000CE12049080A9229000CAE0F8A36A
:100AF100E0F9A3E0FAA3E0FBC3E49BFF74949AFE40
:100B0100743599FD747798FC9000CEE0F8A3E0F974
:100B1100A3E0FAA3E0FBEF2BFFEE3AFEED39FDEC8B
:100B210038FC90012CE0F8A3E0F9A3E0FAA3E0FB84
:100B3100D3120437400B121B779000CE1204908021
:010B4100A90A
:010B42002290
:101030009000E7EBF0A3EAF0A3E9F09000E7E0FB13
:10104000A3E0FAA3E0F9758206758300E475F00069
:1010500012032E9000E7E0FBA3E0FAA3E0F975820B
:1010600008758300E475F00012032E9000E7E0FBA2
:10107000A3E0FAA3E0F9758205758300E412020A81
:101080009000EEE0FF9000E7E0FBA3E0FAA3E0F9B8
:10109000758203758300EF12020A9000EDE0FF9065
:1010A00000E7E0FBA3E0FAA3E0F975820475830092
:1010B000EF12020A9000EAE0FBA3E0FAA3E0F9C015
:1010C00003C002C0019000E7E0FBA3E0FAA3E0F94F
:0410D0001204ED22F7
:1007BA00900103EBF0A3EAF0A3E9F0900103E0FB58
:1007CA00A3E0FAA3E0F9121A1F900103E0FBA3E0E9
:1007DA00FAA3E0F97582047583001201AAFEEFC339
:1007EA009E500302089B900103E0FBA3E0FAA3E0FA
:1007FA00F97582047583001201AAFF900103E0FBD8
:10080A00A3E0FAA3E0F97582037583001201AAFE38
:10081A00EE8FF0A4FFAEF0900103E0FBA3E0FAA391
:10082A00E0F97582087583001202A9FDACF0C3EDE8
:10083A009FEC9E4018900103E0FBA3E0FAA3E0F9C5
:10084A00758208758300E475F00012032E90010387
:10085A00E0FBA3E0FAA3E0F97582037583001201B5
:10086A00AAFF7E00900103E0FBA3E0FAA3E0F9757A
:10087A008208758300EE8FF01202E1900103E0FB1B
:10088A00A3E0FAA3E0F975820575830074FF1201EB
:10089A00D7900103E0FBA3E0FAA3E0F9758204759F
:1008AA0083001201AAFF900103E0FBA3E0FAA3E090
:1008BA00F97582037583001201AAFEEE8FF0A4FF78
:1008CA00AEF0900103E0FBA3E0FAA3E0F97582061B
:1008DA007583001202A9FDACF0C3ED9FEC9E40188F
:1008EA00900103E0FBA3E0FAA3E0F97582067583A1
:1008FA0000E475F00012032E900103E0FBA3E0FA76
:10090A00A3E0F97582037583001201AAFF7E0090A5
:10091A000106E0FBA3E0FAA3E0F9C003C002C001AC
:10092A00900103E0FBA3E0FAA3E0F9758206758360
:10093A00001202A9FDACF0900103E0FBA3E0FAA3C8
:10094A00E0F91204CDE92DF9EA3CFAA801AC02ADAE
:10095A0003D001D002D00312016B900103E0FBA384
:10096A00E0FAA3E0F97582037583001201AAFF7EFB
:10097A0000900103E0FBA3E0FAA3E0F97582067593
:10098A008300EE8FF01202E1900103E0FBA3E0FA8C
:10099A00A3E0F975820575830074011201D77F01FE
:0109AA00222A
:100B4300900109EBF0A3EAF0A3E9F0900109E0FBBF
:100B5300A3E0FAA3E0F9121A1FEF7003020C7290DC
:100B63000109E0FBA3E0FAA3E0F9758204758300B1
:100B73001201AAFF900109E0FBA3E0FAA3E0F975D3
:100B830082037583001201AAFEEE8FF0A4FFAEF07C
:100B9300900109E0FBA3E0FAA3E0F97582087583ED
:100BA300001202A9FDACF0C3ED9FEC9E401890012A
:100BB30009E0FBA3E0FAA3E0F9758208758300E47A
:100BC30075F00012032E900109E0FBA3E0FAA3E005
:100BD300F97582037583001201AAFF7E0090010953
:100BE300E0FBA3E0FAA3E0F9758208758300120223
:100BF300A9FDACF0900109E0FBA3E0FAA3E0F91230
:100C030004CDE92DF9EA3CFAC003C002C00190010A
:100C13000CE0FBA3E0FAA3E0F9A801AC02AD03D01A
:100C230001D002D00312016B900109E0FBA3E0FAAB
:100C3300A3E0F97582037583001201AAFF7E009079
:100C43000109E0FBA3E0FAA3E0F9758208758300CC
:100C5300EE8FF01202E1900109E0FBA3E0FAA3E0BA
:100C6300F975820575830074FF1201D77F01227F16
:020C730000225D
:10191E00900142EBF0A3EAF0A3E9F0900142E0FB64
:10192E00A3E0FAA3E0F97582057583001201AAFF00
:09193E00EF60037F00227F01220B
:101A1F00900145EBF0A3EAF0A3E9F0900145E0FB5C
:101A2F00A3E0FAA3E0F97582057583001201AAFFFE
:011A3F002284
:101496009000EFEBF0A3EAF0A3E9F09000F2EDF094
:1014A6009000F5E4F09000F6E4F09000F2E0FF9092
:1014B60000F6EFF09000F6E0FF7E009000F3E0FC0F
:1014C600A3E0FDC3EF9DEE9C502E9000F5E0FF904B
:1014D60000EFE0FBA3E0FAA3E0F99000F6E0FE8E51
:1014E600827583001201AAFEEF6EFF9000F5EFF001
:0D14F6009000F6E004F080BC9000F5E0FFEF
:0115030022C5
:1000260075F020800E75F010800575F0087D007E55
:10003600007F003392D530D503120429EC334010EB
:10004600EF33FFEE33FEED33FDEC33FCD5F0ED225E
:0E005600E5F0247EA2D513CC92E7CDCEFF229A
:10006400EDD2E7CD33EC3392D524814006E4FFFE94
:10007400FDFC22FCE4CFCECDCC24E0501174FF80F3
:10008400EDC3CC13CCCD13CDCE13CECF13CF047090
:07009400F030D5DE02042963
:1012AB00021B21E493A3F8E493A34003F68001F21D
:1012BB0008DFF48029E493A3F85407240CC8C33344
:1012CB00C4540F4420C8834004F456800146F6DF13
:1012DB00E4800B0102040810204080901172E47E20
:1012EB00019360BCA3FF543F30E509541FFEE49308
:1012FB00A360010ECF54C025E060A840B8E493A3CF
:10130B00FAE493A3F8E493A3C8C582C8CAC583CAF9
:10131B00F0A3C8C582C8CAC583CADFE9DEE780BEB1
:01120C0000E1
:10009B00E709F608DFFA8046E709F208DFFA803E47
:1000AB0088828C83E709F0A3DFFA8032E309F60834
:1000BB00DFFA8078E309F208DFFA807088828C839C
:1000CB00E309F0A3DFFA806489828A83E0A3F60850
:1000DB00DFFA805889828A83E0A3F208DFFA804C2A
:1000EB0080D280FA80C680D4806980F28033801001
:1000FB0080A680EA809A80A880DA80E280CA80336A
:10010B0089828A83ECFAE493A3C8C582C8CCC583E1
:10011B00CCF0A3C8C582C8CCC583CCDFE9DEE780B1
:10012B000D89828A83E493A3F608DFF9ECFAA9F030
:10013B00EDFB2289828A83ECFAE0A3C8C582C8CC86
:10014B00C583CCF0A3C8C582C8CCC583CCDFEADE9F
:10015B00E880DB89828A83E493A3F208DFF980CC01
:10016B0088F0EF60010E4E60C388F0ED2402B404FA
:10017B000050B9F582EB2402B4040050AF232345A1
:06018B0082239000EB73DB
:10019100BB010689828A83E0225002E722BBFE026C
:0901A100E32289828A83E493229F
:1001AA00BB010CE58229F582E5833AF583E022500A
:1001BA0006E92582F8E622BBFE06E92582F8E22254
:0D01CA00E58229F582E5833AF583E493226E
:1001D700BB010FF8E58229F582E5833AF583E0282C
:1001E700F0225009C58229F8E58226F622BBFE09CE
:1001F700C58229F8E22582F222F8EA2583F583E908
:0302070093282217
:10020A00F8BB010DE58229F582E5833AF583E8F02A
:10021A00225006E92582C8F622BBFE05E92582C8D6
:02022A00F222BE
:10022C00EF8DF0A4A8F0CF8CF0A428CE8DF0A42EE6
:02023C00FE22A0
:10023E00BC000BBE0029EF8DF084FFADF022E4CCA4
:10024E00F875F008EF2FFFEE33FEEC33FCEE9DEC6D
:10025E00984005FCEE9DFE0FD5F0E9E4CEFD22EDB3
:10026E00F8F5F0EE8420D21CFEADF075F008EF2FFD
:10027E00FFED33FD4007985006D5F0F222C398FDEE
:05028E000FD5F0EA228B
:10029300A3F8E0C5F025F0F0E5821582700215831E
:0602A300E0C838F0E8227B
:1002A900BB0110E58229F582E5833AF583E0F5F093
:1002B900A3E0225009E92582F886F008E622BBFE70
:1002C9000AE92582F8E2F5F008E222E5832AF583B6
:0802D900E993F5F0A3E993227B
:1002E100BB010DC58229C582C5833AC58302056854
:1002F1005011C58229F808E5F026F618F5F0E582D7
:1003010036F622BBFE11C58229F808E225F0F5F088
:10031100F218E23582F222F8E58229F582E5832A94
:0D032100F58374019325F0F5F0E493382284
:10032E00F8BB0111E58229F582E5833AF583E8F001
:10033E00E5F0A3F0225009E92582C8F608A6F022BE
:0D034E00BBFE09E92582C8F2E5F008F222A5
:10035B0075F008758200EF2FFFEE33FECD33CDCC59
:10036B0033CCC58233C5829BED9AEC99E5829840DC
:10037B000CF582EE9BFEED9AFDEC99FC0FD5F0D6B9
:10038B00E4CEFBE4CDFAE4CCF9A88222B800C1B9E3
:10039B000059BA002DEC8BF084CFCECDFCE5F0CB21
:1003AB00F97818EF2FFFEE33FEED33FDEC33FCEB5A
:1003BB0033FB10D703994004EB99FB0FD8E5E4F915
:1003CB00FA227818EF2FFFEE33FEED33FDEC33FC02
:1003DB00C933C910D7059BE99A4007EC9BFCE99AF6
:1003EB00F90FD8E0E4C9FAE4CCFB2275F010EF2F3B
:1003FB00FFEE33FEED33FDCC33CCC833C810D7073B
:10040B009BEC9AE899400AED9BFDEC9AFCE899F875
:0E041B000FD5F0DAE4CDFBE4CCFAE4C8F92208
:0E042900C3E49FFFE49EFEE49DFDE49CFC22E4
:10043700EB9FF5F0EA9E42F0E99D42F0E89C45F01B
:010447002292
:10044800E8600FECC313FCED13FDEE13FEEF13FF92
:03045800D8F122B6
:10045B007401FF3395E0FEFDFCA3A3A3E0CF2FF0C7
:10046B00E582158270021583E0CE3EF0E58215829F
:10047B0070021583E0CD3DF0E58215827002158385
:05048B00E0CC3CF02272
:0C049000ECF0A3EDF0A3EEF0A3EFF022DF
:10049C00A8828583F0D083D0821204B31204B312E5
:1004AC0004B31204B3E473E493A3C583C5F0C5830A
:1004BC00C8C582C8F0A3C583C5F0C583C8C582C8AA
:0104CC00220D
:1004CD00BB010789828A830205905005E9F8020570
:1004DD007EBBFE05E9F80205A289828A830205B476
:1004ED00BB011A89828A83D0F0D0E0F8D0E0F9D030
:1004FD00E0FAD0E0FBE8C0E0C0F00205995016E943
:10050D00F8D083D082D0E0F9D0E0FAD0E0FBC08201
:10051D00C083020587BBFE16E9F8D083D082D0E0F8
:0F052D00F9D0E0FAD0E0FBC082C0830205AB2218
:10053C00D083D082F8E4937012740193700DA3A34E
:10054C0093F8740193F5828883E473740293686062
:06055C00EFA3A3A380DF62
:060562008A838982E47324
:10056800C5F0F8A3E028F0C5F0F8E582158270021E
:060578001583E038F022BB
:09057E00E6FB08E6FA08E6F922A2
:09058700EBF608EAF608E9F62299
:09059000E0FBA3E0FAA3E0F9226C
:09059900EBF0A3EAF0A3E9F02263
:0905A200E2FB08E2FA08E2F9228A
:0905AB00EBF208EAF208E9F22281
:0C05B400E493FB740193FA740293F922A3
:00000001FF
