:03000000020EEA03
:0C0EEA00787FE4F6D8FD758107020F3117
:09155B0042003502154100340084
:10132800121579900034EFF07B017A00793DC00303
:10133800C002C0017B017A007934900062EBF0A30F
:0E134800EAF0A3E9F0D001D002D003120802AF
:011356002274
:0200200080FE60
:0100220022BB
:0E156B0053B3FE43B4017FF47E0112135722E6
:1015440090009DEEF0A3EFF012143090009DE0FEA9
:07155400A3E0FF1213832244
:0511490090006BEFF0C7
:10114E0090006BE0FCE41202CE7B007A00792078EE
:10115E004112022790006C1207037F007E007D165D
:10116E007C4390006CE0F8A3E0F9A3E0FAA3E0FB67
:10117E0012011EA804A905AA06AB077F007E487DB2
:09118E00557C46120029120302EF
:011197002235
:100C5100900053EEF0A3EFF0900055ECF0A3EDF00F
:100C6100900057E4F0A3E4F0900055E0FEA3E0FF0C
:100C7100900053E0FCA3E0FDD3ED9FEC9E404A9031
:100C81000053E0FEA3E0FF900057EEF0A3EFF090D9
:100C91000055E0FEA3E0FF900057E0FCA3E0FDD388
:100CA100ED9FEC9E406C900057E0FEA3E0FF121315
:100CB100837F147E00121357900058E024FFF090B8
:100CC1000057E034FFF080C722900053E0FEA3E01C
:100CD100FF900057EEF0A3EFF0900055E0FEA3E087
:100CE100FF900057E0FCA3E0FDC3ED9FEC9E502276
:100CF100900057E0FEA3E0FF1213837F147E0012E1
:100D01001357900058E004F07006900057E004F08B
:020D110080C799
:010D130022BD
:1014F60053B3DF43B42053B1FE43B20153B1FD43AE
:0C150600B2025390DF5380FE5380FD22A0
:101512009000A9EFF09000A9E0FF7E00EF64014E79
:0A1522007004439020225390DF2252
:040003004380012213
:040007005380FE2202
:04158500438002227B
:041589005380FD226C
:10152C00000100020003000400050006000700088B
:08153C000009000A000B000C7D
:100F760090009FE4F0A3E4F090009FE0FEA3E0FF62
:100F8600C3EF940CEE648094805065900047E0FEB9
:100F9600A3E0FF900049E0FCA3E0FDC3ED9FFFEC5A
:100FA6009EFE7C007D0C12050D90009FE0FCA3E0E8
:100FB600FD1204FB900047E0FCA3E0FDEF2DFDEEE3
:100FC6003CFC90009FE0FEA3E0FFEF25E0FFEE3340
:100FD600FE741C2FF58274003EF583ECF0A3EDF051
:100FE6009000A0E004F0700690009FE004F0808876
:010FF60022D8
:080B2500900000EEF0A3EFF0D8
:100B2D007BFF7A15792CC003C002C0017B017A00CE
:100B3D007904A801AC02AD03D001D002D0037E0030
:100B4D007F18120453900000E0FEA3E0FFD3EF9452
:100B5D000CEE940040047F0180027F00900000E0C5
:100B6D00FCA3E0FDC3ED9401EC940050047E0180E4
:100B7D00027E00EE4FFFEF60057EFF7FFF22120F1A
:100B8D0076900002E4F0A3E4F0900002E0FEA3E012
:100B9D00FFC3EF940CEE648094805064900002E0EB
:100BAD00FEA3E0FFEF25E0FFEE33FE74042FF58288
:100BBD0074003EF583E0FEA3E0FF900000EEF0FE32
:100BCD00A3EFF0FFEF4E6028900002E0FEA3E0FFE0
:100BDD00EF25E0FFEE33FE741C2FF58274003EF519
:100BED0083E0FEA3E0FF900000EEF0A3EFF0801095
:100BFD00900003E004F07006900002E004F080899C
:100C0D001215897F647E00121357120003C2EF1272
:100C1D00158D30EFFD1210E1900000E0FCA3E0FD1A
:100C2D00EF6D7002EE6C600CC2EF12158D20EFE5CA
:100C3D0080FB80E11200077F647E00121357E47E73
:030C4D00007F0025
:010C50002281
:101198009000A1EEF0A3EFF09000A1E0FEA3E0FF25
:1011A800D3EF940CEE940040047F0180027F0090FE
:1011B80000A1E0FCA3E0FDC3EC940050047E018094
:1011C800027E00EE4FFFEF60057EFF7FFF221200D8
:0E11D800077F647E00121357E47E007F002222
:101357009000A3EEF0A3EFF09000A3E0FEA3E0FF60
:10136700EF4E60177FE87E031212BB9000A4E024C3
:0C137700FFF09000A3E034FFF080DD22C6
:0812BB00900075EEF0A3EFF0C6
:1012C300900075E0FCA3E0FDE41202C91203029052
:1012D3000077EEF0A3EFF0900077E0FEA3E0FFEFDE
:1012E3004E601100900078E024FFF0900077E03426
:0412F300FFF080E3A5
:0112F70022D4
:1014300053B3FE53B4FE43DE0453DF3F53DFEFD21A
:10144000DC538EBF43DF0353DFFB75D60075D1003D
:0414500075D98522A3
:101383009000A5EEF0A3EFF0C2DF9000A5E0FEA36E
:10139300E0FF7F00EEFF7E008FD49000A5E0FEA368
:0C13A300E0FFEF54FFF5DCD2DED2DF22C9
:08127B00900088EEF0A3EFF0F3
:10128300900088E0FEA3E0FF90008AEFF090008AD0
:10129300E0FF7E00C3EF9415EE9402501A90008A8B
:1012A300E0FF7E001213837F147E00121357900019
:0712B3008AE0240AF080D656
:0112BA002211
:0811E600900079EEF0A3EFF098
:1011EE0090007B7401F0A374F4F0900079E0FEA3FC
:1011FE00E0FF90007BE0FCA3E0FDD3ED9FEC9E4072
:10120E002290007BE0FEA3E0FF1213837F147E008A
:10121E0012135790007CE024F6F090007BE034FF30
:03122E00F080C786
:01123100229A
:1012F8009000AAEFF09000AAE0FFEF12077E131605
:101308000013220113220213220300001322438E2A
:1013180008758A80758CC14389017F001213DB220E
:1014540090008BEBF0A3EAF0A3E9F090008BE0FBA3
:10146400A3E0FAA3E0F990008EEBF0A3EAF0A3E97D
:02147400F02264
:1013AF009000ABEFF09000ABE0FFEF12077E13CD94
:1013BF000013D10113D40213D703000013DA4388AB
:0C13CF00102243884043C80443C4082295
:1013DB009000ACEFF09000ACE0FFEF12077E13F93A
:1013EB000013FD01140002140303000014065388BC
:0C13FB00EF225388BF53C8FB53C4F722F5
:03000B000210716F
:10107100C0E0C0F0C083C082C0D075D000C000C045
:1010810001C002C003C004C005C006C0077B007ACE
:10109100007900C003C002C00190008EE0FBA3E014
:1010A100FAA3E0F9D082D083D0E06B7008E96582C1
:1010B1007003EA6583600E90008EE0FBA3E0FAA363
:1010C100E0F91207A4D007D006D005D004D003D090
:1010D10002D001D000D0D0D082D083D0F0D0E03285
:06156400430094000000AA
:100DB80090007D12070353B1BF53B2BF53B17F53A5
:100DC800B27F90007DE0F8A3E0F9A3E0FAA3E0FB8E
:100DD8007F407E427D0F7C00120650A804A905AA18
:100DE80006AB07C374FF9BFF74FF9AFEE499FDE40A
:100DF80098FC78081206F08FC690007DE0F8A3E012
:100E0800F9A3E0FAA3E0FB7F407E427D0F7C00124D
:100E18000650A804A905AA06AB07C374FF9BFF7474
:100E2800FF9AFEE499FDE498FCEF54FFFFEE5400AE
:100E3800FEED5400FDEC5400FC8FC5759870438797
:0E0E48008053C4F843C42043C40812159422FA
:03159100D2AC22B7
:03159400C2AC22C4
:0514B9009000A7EFF018
:1014BE00C2999000A7E0FFEF64FFFF9000A8EFF045
:0A14CE009000A7E0FF8F993099FD10
:0114D80022F1
:10123200900070EBF0A3EAF0A3E9F0900073EDF0F8
:10124200900074E4F0900073E0FF900074E0FEEE12
:10125200C39F5024900070E0FBA3E0FAA3E0F99052
:101262000074E0FF8F82758300120479FF1214B9B3
:08127200900074E004F080CD4F
:01127A002251
:0B1579009000ADE599F09000ADE0FFA0
:011584002244
:100E5600E5875410FF7E00EF64104E6003020EE932
:100E6600900081E584F0900082E585F0900081E0B5
:100E7600FF7E00EF25E0FFEE33FE900082E0FDED01
:100E86005401FD7C00EF2DFFEE3CFE900083EEF05A
:100E9600A3EFF0900084E024F1F0900083E034FFAB
:100EA600F0900083E0FEA3E0FFEF5401FF90008284
:100EB600EFF0900083E0FEA3E0FFEEC313FEEF1316
:100EC600FF900081EFF075C7AA75C755900081E0C5
:100ED600FF8F8475C7AA75C755900082E0FF8F857E
:030EE6005387EF40
:010EE90022E6
:10147600900091EBF0A3EAF0A3E9F0900091E0FB75
:10148600A3E0FAA3E0F9900094EBF0A3EAF0A3E955
:02149600F02242
:03002300020FF7D2
:100FF700C0E0C0F0C083C082C0D075D000C000C0C0
:1010070001C002C003C004C005C006C00730983A3B
:10101700C2987B007A007900C003C002C00190002B
:1010270094E0FBA3E0FAA3E0F9D082D083D0E06B91
:101037007008E965827003EA6583600E900094E0AA
:10104700FBA3E0FAA3E0F91207A4309902C299D0F2
:1010570007D006D005D004D003D002D001D000D0ED
:0A106700D0D082D083D0F0D0E03268
:1014D90053B37F43B480E5E954FCFFEF4401F5E9D8
:0D14E90043E98043EA8053EC7F43A8802252
:10000E0043B38053B47F43E101C2EF53E8F043F6AC
:02001E000122BD
:04158D0043E84022CD
:1010E100900059E4F0A3E4F090005BE4F0A3E4F095
:1010F10090005DE4F0A3E4F0E5C2540FFF7E0090A0
:101101000059EEF0A3EFF0AFC37E0090005BEEF06C
:10111100A3EFF090005BE0FEA3E0FFEFC4F8540FF3
:10112100C868FFEEC454F048FE900059E0FCA3E00B
:10113100FDEE4CFEEF4DFF90005DEEF0A3EFF09061
:07114100005DE0FEA3E0FFEA
:011148002284
:100D140090004BEBF0A3EAF0A3E9F090004BE0FB6A
:100D2400A3E0FAA3E0F9758206758300E475F00088
:100D34001205E790004BE0FBA3E0FAA3E0F975820B
:100D440008758300E475F0001205E790004BE0FBA2
:100D5400A3E0FAA3E0F9758205758300E41204D9CF
:100D6400900052E0FF90004BE0FBA3E0FAA3E0F90F
:100D7400758203758300EF1204D9900051E0FF904F
:100D8400004BE0FBA3E0FAA3E0F97582047583004D
:100D9400EF1204D990004EE0FBA3E0FAA3E0F9C0FF
:100DA40003C002C00190004BE0FBA3E0FAA3E0F90A
:040DB40012072F22D1
:1008020090005FEBF0A3EAF0A3E9F090005FE0FB59
:10081200A3E0FAA3E0F912149890005FE0FBA3E0D2
:10082200FAA3E0F9758204758300120479FEEFC31E
:100832009E50030208E390005FE0FBA3E0FAA3E00E
:10084200F9758204758300120479FF90005FE0FB62
:10085200A3E0FAA3E0F9758203758300120479FE1E
:10086200EE8FF0A4FFAEF090005FE0FBA3E0FAA3EE
:10087200E0F9758208758300120562FDACF0C3EDE4
:100882009FEC9E401890005FE0FBA3E0FAA3E0F922
:10089200758208758300E475F0001205E790005F29
:1008A200E0FBA3E0FAA3E0F975820375830012046A
:1008B20079FF7E0090005FE0FBA3E0FAA3E0F97508
:1008C2008208758300EE8FF012059A90005FE0FBBC
:1008D200A3E0FAA3E0F975820575830074FF1204A0
:1008E200A690005FE0FBA3E0FAA3E0F9758204752D
:1008F2008300120479FF90005FE0FBA3E0FAA3E01B
:10090200F9758203758300120479FEEE8FF0A4FF5D
:10091200AEF090005FE0FBA3E0FAA3E0F975820677
:10092200758300120562FDACF0C3ED9FEC9E40188A
:1009320090005FE0FBA3E0FAA3E0F97582067583FD
:1009420000E475F0001205E790005FE0FBA3E0FA17
:10095200A3E0F9758203758300120479FF7E00908B
:100962000062E0FBA3E0FAA3E0F9C003C002C00109
:1009720090005FE0FBA3E0FAA3E0F97582067583BD
:1009820000120562FDACF090005FE0FBA3E0FAA369
:10099200E0F912070FE92DF9EA3CFAA801AC02AD21
:1009A20003D001D002D00312045390005FE0FBA3F6
:1009B200E0FAA3E0F9758203758300120479FF7EE1
:1009C2000090005FE0FBA3E0FAA3E0F975820675F0
:1009D2008300EE8FF012059A90005FE0FBA3E0FA2D
:1009E200A3E0F975820575830074011204A67F01E4
:0109F20022E2
:1009F300900065EBF0A3EAF0A3E9F0900065E0FB5B
:100A0300A3E0FAA3E0F9121498EF7003020B22900B
:100A13000065E0FBA3E0FAA3E0F9758204758300A7
:100A2300120479FF900065E0FBA3E0FAA3E0F975F7
:100A33008203758300120479FEEE8FF0A4FFAEF0FB
:100A4300900065E0FBA3E0FAA3E0F97582087583E3
:100A530000120562FDACF0C3ED9FEC9E40189000C0
:100A630065E0FBA3E0FAA3E0F9758208758300E46F
:100A730075F0001205E7900065E0FBA3E0FAA3E040
:100A8300F9758203758300120479FF7E0090006577
:100A9300E0FBA3E0FAA3E0F9758208758300120571
:100AA30062FDACF0900065E0FBA3E0FAA3E0F9126D
:100AB300070FE92DF9EA3CFAC003C002C001900018
:100AC30068E0FBA3E0FAA3E0F9A801AC02AD03D010
:100AD30001D002D003120453900065E0FBA3E0FAB7
:100AE300A3E0F9758203758300120479FF7E0090F9
:100AF3000065E0FBA3E0FAA3E0F9758208758300C3
:100B0300EE8FF012059A900065E0FBA3E0FAA3E0F4
:100B1300F975820575830074FF1204A67F01227F95
:020B23000022AE
:10140700900097EBF0A3EAF0A3E9F0900097E0FBD8
:10141700A3E0FAA3E0F9758205758300120479FF4A
:09142700EF60037F00227F012227
:1014980090009AEBF0A3EAF0A3E9F090009AE0FB41
:1014A800A3E0FAA3E0F9758205758300120479FFB9
:0114B8002211
:1000260002036EE86480F8E933E83360110460F097
:10003600ED33EC337009E8FCE9FDEAFEEBFF220440
:1000460060DED3EB9FEA9EE99DE8C2E78CF0C2F73B
:1000560095F0400CE8CCF8E9CDF9EACEFAEBCFFB07
:1000660012033985D0F05804700320D5B3E8047024
:10007600075002B2D502037892D5EC0460F7E4CCBF
:10008600C0E0C398F8603B94186008400DD0E0FBD0
:10009600020350E4FBFAC9FC8028E830E406E4C910
:1000A600FBE4CAFCE830E305E4C9CACBFCE8540724
:1000B6006010F8C3E913F9EA13FAEB13FBEC13FC2F
:1000C600D8F130F52FC3E49CFCEF9BFFEE9AFEEDD2
:1000D60099FDD0E0FBEF4E4D4C701222DB0302037C
:1000E60075EC2CFCEF33FFEE33FEED33FDED30E720
:1000F600EB020350EF2BFFEE3AFEED39FDD0E0FBAD
:1001060050130BBB0003020378ED13FDEE13FEEF55
:0801160013FFEC13FC0203507F
:10011E00EC4D6011E8497017ED33EC3304600DE4DB
:10012E00FCFFFEFD22E933E8330470F802036E1281
:10013E00033958046009E4CC248150062850090282
:10014E000378284003020375C0E0EB4A7044B9807F
:10015E0006D0E0FB020364EF4E701CBD8008EBFF7F
:10016E00EAFEE9FD80EBE98DF0A4FEE5F002020760
:10017E00E9CDF9EAFEEBFFEF89F0A4FCE5F0CE89BC
:10018E00F0A42EFFE435F0CD89F0A42DFEE435F079
:10019E008067EF4E7005BD80D780C3EF8BF0A4ACA7
:1001AE00F0EE8BF0A42CFCE435F0F8EF8AF0A42CE2
:1001BE00E5F038FCE433CB8DF0A42CFCE5F03BF8F5
:1001CE00EE8AF0A42CFCE5F038F8E433CF89F0A4E5
:1001DE002CFCE5F038CF3400CE89F0A42FFFE5F0EB
:1001EE003EFEE433C98DF0A42EFEE5F039CD8AF043
:1001FE00A42FFFE5F03EFEE43DFD33D0E0FB5007BB
:10020E000BBB000F020378EC2CFCEF33FFEE33FE3A
:06021E00ED33FD02035068
:10022400020378EC5D046005E85904700302036E70
:10023400120339580460F6EC4860F2EC7004FDFED9
:10024400FF22C860DB2481C85009C39860025006AD
:100254000203759850CAF582E9294B4A7005AB82AE
:1002640002036475F0007C1A7880C3EF9BEE9AED6C
:1002740099400DC3EF9BFFEE9AFEED99FDE842F025
:10028400DC23ACF0D0E0FFD0E0FED0E0FDAB822078
:10029400E7101BEB60BAEC2CFCEF33FFEE33FEED02
:1002A40033FD020350E803F830E705C0F075F000B1
:1002B400EF2FFFEE33FEED33FD40B830E7C280AAE6
:1002C40075F020800E75F010800575F0087D007EB5
:1002D400007F003392D530D5031206E2EC33401090
:1002E400EF33FFEE33FEED33FDEC33FCD5F0ED22BE
:0E02F400E5F0247EA2D513CC92E7CDCEFF22FA
:10030200EDD2E7CD33EC3392D524814006E4FFFEF3
:10031200FDFC22FCE4CFCECDCC24E0501174FF8052
:10032200EDC3CC13CCCD13CDCE13CECF13CF0470EF
:07033200F030D5DE0206E207
:10033900E9D2E7C933E833F892D5EDD2E7CD33EC0A
:0703490033FC5002B2D52283
:10035000EC30E7100FBF000C0EBE00080DBD00040E
:100360000BEB6014A2D5EB13FCED92E7FD2274FFBA
:10037000FCFDFEFF22E480F8A2D574FF13FC7D8013
:03038000E480EF27
:100EF600020020E493A3F8E493A34003F68001F2F2
:100F060008DFF48029E493A3F85407240CC8C333FC
:100F1600C4540F4420C8834004F456800146F6DFCB
:100F2600E4800B010204081020408090155BE47EEB
:100F3600019360BCA3FF543F30E509541FFEE493C0
:100F4600A360010ECF54C025E060A840B8E493A387
:100F5600FAE493A3F8E493A3C8C582C8CAC583CAB2
:100F6600F0A3C8C582C8CAC583CADFE9DEE780BE6A
:01156A000080
:10038300E709F608DFFA8046E709F208DFFA803E5C
:1003930088828C83E709F0A3DFFA8032E309F60849
:1003A300DFFA8078E309F208DFFA807088828C83B1
:1003B300E309F0A3DFFA806489828A83E0A3F60865
:1003C300DFFA805889828A83E0A3F208DFFA804C3F
:1003D30080D280FA80C680D4806980F28033801016
:1003E30080A680EA809A80A880DA80E280CA80337F
:1003F30089828A83ECFAE493A3C8C582C8CCC583F7
:10040300CCF0A3C8C582C8CCC583CCDFE9DEE780C6
:100413000D89828A83E493A3F608DFF9ECFAA9F045
:10042300EDFB2289828A83ECFAE0A3C8C582C8CC9B
:10043300C583CCF0A3C8C582C8CCC583CCDFEADEB4
:10044300E880DB89828A83E493A3F208DFF980CC16
:1004530088F0EF60010E4E60C388F0ED2402B4040F
:100463000050B9F582EB2402B4040050AF232345B6
:0604730082239003D37305
:10047900BB010CE58229F582E5833AF583E0225038
:1004890006E92582F8E622BBFE06E92582F8E22282
:0D049900E58229F582E5833AF583E493229C
:1004A600BB010FF8E58229F582E5833AF583E0285A
:1004B600F0225009C58229F8E58226F622BBFE09FC
:1004C600C58229F8E22582F222F8EA2583F583E936
:0304D60093282246
:1004D900F8BB010DE58229F582E5833AF583E8F059
:1004E900225006E92582C8F622BBFE05E92582C805
:0204F900F222ED
:1004FB00EF8DF0A4A8F0CF8CF0A428CE8DF0A42E15
:02050B00FE22CE
:10050D00BC000BBE0029EF8DF084FFADF022E4CCD2
:10051D00F875F008EF2FFFEE33FEEC33FCEE9DEC9B
:10052D00984005FCEE9DFE0FD5F0E9E4CEFD22EDE1
:10053D00F8F5F0EE8420D21CFEADF075F008EF2F2B
:10054D00FFED33FD4007985006D5F0F222C398FD1C
:05055D000FD5F0EA22B9
:10056200BB0110E58229F582E5833AF583E0F5F0D7
:10057200A3E0225009E92582F886F008E622BBFEB4
:100582000AE92582F8E2F5F008E222E5832AF583FA
:08059200E993F5F0A3E99322BF
:10059A00BB010DC58229C582C5833AC5830207AA54
:1005AA005011C58229F808E5F026F618F5F0E5821B
:1005BA0036F622BBFE11C58229F808E225F0F5F0CD
:1005CA00F218E23582F222F8E58229F582E5832AD9
:0D05DA00F58374019325F0F5F0E4933822C9
:1005E700F8BB0111E58229F582E5833AF583E8F046
:1005F700E5F0A3F0225009E92582C8F608A6F02203
:0D060700BBFE09E92582C8F2E5F008F222E9
:1006140075F008758200EF2FFFEE33FECD33CDCC9D
:1006240033CCC58233C5829BED9AEC99E582984020
:100634000CF582EE9BFEED9AFDEC99FC0FD5F0D6FD
:10064400E4CEFBE4CDFAE4CCF9A88222B800C1B927
:100654000059BA002DEC8BF084CFCECDFCE5F0CB65
:10066400F97818EF2FFFEE33FEED33FDEC33FCEB9E
:1006740033FB10D703994004EB99FB0FD8E5E4F959
:10068400FA227818EF2FFFEE33FEED33FDEC33FC46
:10069400C933C910D7059BE99A4007EC9BFCE99A3A
:1006A400F90FD8E0E4C9FAE4CCFB2275F010EF2F7F
:1006B400FFEE33FEED33FDCC33CCC833C810D7077F
:1006C4009BEC9AE899400AED9BFDEC9AFCE899F8BA
:0E06D4000FD5F0DAE4CDFBE4CCFAE4C8F9224D
:0E06E200C3E49FFFE49EFEE49DFDE49CFC2229
:1006F000E8600FECC313FCED13FDEE13FEEF13FFE8
:03070000D8F1220B
:0C070300ECF0A3EDF0A3EEF0A3EFF02269
:10070F00BB010789828A830207D25005E9F80207E5
:10071F00C0BBFE05E9F80207E489828A830207F667
:10072F00BB011A89828A83D0F0D0E0F8D0E0F9D0EB
:10073F00E0FAD0E0FBE8C0E0C0F00207DB5016E9BA
:10074F00F8D083D082D0E0F9D0E0FAD0E0FBC082BD
:10075F00C0830207C9BBFE16E9F8D083D082D0E070
:0F076F00F9D0E0FAD0E0FBC082C0830207ED2290
:10077E00D083D082F8E4937012740193700DA3A30A
:10078E0093F8740193F5828883E47374029368601E
:06079E00EFA3A3A380DF1E
:0607A4008A838982E473E0
:1007AA00C5F0F8A3E028F0C5F0F8E58215827002DA
:0607BA001583E038F02277
:0907C000E6FB08E6FA08E6F9225E
:0907C900EBF608EAF608E9F62255
:0907D200E0FBA3E0FAA3E0F92228
:0907DB00EBF0A3EAF0A3E9F0221F
:0907E400E2FB08E2FA08E2F92246
:0907ED00EBF208EAF208E9F2223D
:0C07F600E493FB740193FA740293F9225F
:00000001FF
