:0300000002136B7D
:0C136B00787FE4F6D8FD7581070213B20C
:0C1C4E00121B1312174A120C5880F822C7
:1010F2004100B6004100B8004100BC004100BE0002
:101102004100B4004100BA004100B7004100B900FB
:101112004100BB004100BD004100B3004100B501E8
:1012D9009000ECEFF09000EDEDF09000EEEBF0A354
:0512E900EAF0A3E9F0AA
:1012EE009000EDE0FF9000F2EFF09000F1E0FF9043
:1012FE0000F3EFF09000ECE0FFEF12051F13670F05
:10130E00132D10133120133530133940133D501364
:10131E004C701350731354801363900000136A12B1
:10132E00000322121C8422121C8B22121C92229069
:10133E0000EEE0FBA3E0FAA3E0F91219D822121C8A
:10134E009922121CA0229000EEE0FBA3E0FAA3E08B
:0C135E00F91219FE22121CA722121CAE6C
:01136A002260
:070003009000B67401F02229
:071C84009000B87401F0228A
:071C8B009000BC7401F0227F
:071C92009000BE7401F02276
:1019D800900139EBF0A3EAF0A3E9F09000B47401A8
:1019E800F0900139E0FBA3E0FAA3E0F91201A9FFA6
:0619F8009000B5EFF022A3
:071C99009000BA7401F02273
:071CA0009000B77401F0226F
:1019FE0090013CEBF0A3EAF0A3E9F09000B974017A
:101A0E00F090013CE0FBA3E0FAA3E0F91201A9FF7C
:061A1E009000B3EFF0227E
:071CA7009000BB7401F02264
:071CAE009000BD7401F0225B
:1011220046001720A100010A8A46003030A10001C2
:101132000A9A46000040A100010AEA46000750A1AF
:1011420000010AFA46002370A1000172A2460011B2
:1011520073A1000175A646001D80A100010A2A475D
:10116200002990A100022171634600370FA10001FE
:021172000AA5CC
:100C58009000B6E0FF7E00EF64014E606B9000B834
:100C6800E0FF7E00EF64014E605E9000BCE0FF7E16
:100C780000EF64014E60519000BEE0FF7E00EF641B
:100C8800014E60449000B4E0FF7E00EF64014E60C6
:100C9800379000BAE0FF7E00EF64014E602A9000B2
:100CA800B7E0FF7E00EF64014E601D9000B9E0FFE1
:100CB8007E00EF64014E60109000BBE0FF7E00EF05
:100CC80064014E6003020D689000B6E0FF7E00EFFD
:100CD80064014E7004121C5A229000B8E0FF7E0096
:100CE800EF64014E7004121BB2229000BCE0FF7E3C
:100CF80000EF64014E7004121986229000BEE0FFD6
:100D08007E00EF64014E7004121B4B229000B4E089
:100D1800FF7E00EF64014E7004121C14229000BA8A
:100D2800E0FF7E00EF64014E7004121BF222900077
:100D3800B7E0FF7E00EF64014E7004121C0322909E
:100D480000B9E0FF7E00EF64014E700412182D22F6
:100D58009000BBE0FF7E00EF64014E700312163B6B
:010D68002268
:0C1C5A009000B6E4F090000F7401F0223E
:101BB2009000B8E4F07B017A0079177D06121A24AE
:071BC2009000367401F022CF
:101986009000BCE4F07B017A0079307D06121A24BF
:101996007F01121B667D007C007F057E00120E59BA
:0919A60090000DE4F0A3E4F0222E
:101B4B009000BEE4F090000DE0FEA3E0FF1216F64D
:0B1B5B007F00121B6690000FE4F022D8
:101C14009000B4E4F09000B5E0FF7E001205A3222A
:101BF2009000BAE4F07B017A0079237D06121A2460
:011C020022BF
:101C03009000B7E4F07B017A0079117D06121A2463
:011C130022AE
:10182D009000B9E4F07B017A00791D7D06121A242F
:10183D009000B3E0FF7E00900154EEF0A3EFF09026
:10184D00000DE0FEA3E0FF900154E0FCA3E0FD12CB
:0D185D000E5912002690000DEEF0A3EFF0E2
:01186A00225B
:10163B009000BBE4F0900036E0FF7E00EF64014EBB
:10164B00700890002D7421F0800690002D7422F00C
:10165B00900010E0FF7E00EF64014E700890002EAA
:10166B007471F0800690002E7472F07B017A007911
:10167B0029900100E4F0A37406F07D00121562902E
:10168B00002FEFF07B017A0079297D07121A2422B3
:101B1300121C33121B2F7F007E00121BC9121C41A3
:0C1B2300121BE012179A121B80D2AF2296
:101B9A000001000200030004000500060007000817
:081BAA000009000A000B000C09
:1013F700900156E4F0A3E4F0900156E0FEA3E0FF6D
:10140700C3EF940CEE648094805065900092E0FEE8
:10141700A3E0FF900094E0FCA3E0FDC3ED9FFFEC89
:101427009EFE900156E0FCA3E0FD1202447C007D85
:101437000C120256900092E0FCA3E0FDEF2DFDEEAA
:101447003CFC900156E0FEA3E0FFEF25E0FFEE3302
:10145700FE74782FF58274003EF583ECF0A3EDF06F
:10146700900157E004F07006900156E004F0808880
:011477002252
:100F4400900121E4F0A3E4F0900123E4F0A3E4F0A1
:100F54009000D3E0FF7E00EF64014E70059000D353
:100F6400E4F0121CC11215D0900121EEF0A3EFF0B1
:100F7400900121E0FEA3E0FF900123E0FCA3E0FD4B
:100F8400ED6F7002EC6E6024900121E0FEA3E0FF9F
:100F9400900123EEF0A3EFF07FE87E0312186B12AA
:100FA40015D0900121EEF0A3EFF080C4121CC5907F
:100FB4000123E0FEA3E0FF900094EEF0A3EFF07FA6
:100FC400E87E031218D6900123E4F0A3E4F0121C87
:100FD400C9900121E0FEA3E0FF900123E0FCA3E01F
:100FE400FDED6F7002EC6E6024900121E0FEA3E041
:100FF400FF900123EEF0A3EFF07FE87E0312186B5D
:101004001215D0900121EEF0A3EFF080C4121CCD94
:10101400900123E0FEA3E0FF900092EEF0A3EFF036
:0110240022A9
:0D1C410012000E7BFF7A0F7944121A8E22DA
:0805A300900096EEF0A3EFF0CA
:1005AB0090009A7402F07BFF7A1B799AC003C00209
:1005BB00C0017B017A00799BA801AC02AD03D0018D
:1005CB00D002D0037E007F18120183900096E0FECC
:1005DB00A3E0FFD3EF940CEE940040047F01800264
:1005EB007F00900096E0FCA3E0FDC3ED9401EC943A
:1005FB000050047E0180027E00EE4FFFEF60057E0F
:10060B00FF7FFF221213F7900098E4F0A3E4F09021
:10061B000098E0FEA3E0FFC3EF940CEE648094809F
:10062B005066900098E0FEA3E0FFEF25E0FFEE336D
:10063B00FE749B2FF58274003EF583E0FEA3E0FF72
:10064B00900096E0FCA3E0FDEDB5072CECB5062879
:10065B00900098E0FEA3E0FFEF25E0FFEE33FE7481
:10066B00782FF58274003EF583E0FEA3E0FF900047
:10067B0096EEF0A3EFF08010900099E004F0700676
:10068B00900098E004F080871215D0900090EEF067
:10069B00A3EFF0900096E0FEA3E0FF900090E0FC4B
:1006AB00A3E0FDC3ED9FEC9E500790009AE4F08011
:1006BB004A900096E0FEA3E0FFEF24FEFFEE34FF2E
:1006CB00FE900090E0FCA3E0FDC3ED9FEC9E402567
:1006DB00900096E0FEA3E0FFEF2402FFEE3400FE55
:1006EB00900090E0FCA3E0FDD3ED9FEC9E5006E460
:1006FB007E007F002290009A7401F090009AE0FF38
:10070B00EF12051F07190007550100000791121C76
:10071B00CD7F0A7E001218D6121CC11215D0900084
:10072B0090EEF0A3EFF0900096E0FEA3E0FFEF2435
:10073B00FEFFEE34FFFE900090E0FCA3E0FDC3ED66
:10074B009FEC9E40D6121CC58042121CC57F0A7EB0
:10075B00001218D6121CC91215D0900090EEF0A3FF
:10076B00EFF0900096E0FEA3E0FFEF2402FFEE34E3
:10077B0000FE900090E0FCA3E0FDD3ED9FEC9E50BB
:10078B00D6121CCD8006E47E007F0022E47E007F23
:01079B00005D
:01079C00223A
:031CD100524A0074
:0D11740041003D0042003E000041004000EF
:10179A007F807E257D007C0012123B7BFF7A0D79CB
:1017AA0069121A6C7B017A00796EC003C002C0010B
:1017BA007B017A0079419000F7EBF0A3EAF0A3E904
:1017CA00F09000FA7405F09000FB7409F0D001D093
:0A17DA0002D003121197121CD42252
:100D69009000BFE4F0A3E4F0121C6690003DEFF0A0
:100D790090003DE0FF90003EE475F0011202ABAD3A
:100D8900F0FC74C12DF58274003CF583EFF09000FE
:100D9900C1E0FF7E00EF64404E700990015AE4F013
:100DA900A37401F090003EE0FEA3E0FFC3EF9404BA
:100DB900EE94005003020E589000C4E0FF7E00EF4D
:100DC9002405FFEE3400FE90003EE0FCA3E0FDEFB9
:100DD9006D7002EE6C70787B017A0079C19000C465
:100DE900E0FF7E00EF2404FFEE3400FE900100EEE8
:100DF900F0A3EFF07D001215629000C4E0FE74C507
:100E09002EF582E43400F583E0FEEFB506287B0178
:100E19007A00796EC003C002C0017B017A0079C1F2
:100E2900900113EBF0A3EAF0A3E9F0D001D002D0CE
:100E39000312079D8011900040E004F07BFF7A1CAB
:0F0E490079D17D021217E490003EE4F0A3E4F0AB
:010E58002277
:10174A007B017A00796E1219AFEF70437B017A0040
:10175A00796EC003C002C0017B017A0079E390016F
:10176A0019EBF0A3EAF0A3E9F0D001D002D00312FA
:10177A000B269000E3E0FF9000E4E0FD7B017A0095
:0F178A0079E79000E6E0FE9000F1EEF01212D940
:01179900222D
:101A2400900125EBF0A3EAF0A3E9F0900128EDF092
:101A3400900125E0FBA3E0FAA3E0F9900128E0FD82
:041A44001217E4226F
:0511810042015A0000CC
:0E1C330053B3FE43B4017FF47E011218D62293
:101BC900900158EEF0A3EFF0121A48900158E0FE88
:071BD900A3E0FF1219022234
:10002600AFD27E00EF7F00FEADDA7C00EE4CFEEF35
:030036004DFF2259
:100E5900900104EEF0A3EFF0900106ECF0A3EDF0A1
:100E6900900108E4F0A3E4F0900106E0FEA3E0FF9E
:100E7900900104E0FCA3E0FDD3ED9FEC9E405C9063
:100E89000104E0FEA3E0FF900108EEF0A3EFF0906B
:100E99000106E0FEA3E0FF900108E0FCA3E0FDD31A
:100EA900ED9FEC9E5003020F3B90015AE0FEA3E038
:100EB900FFEF64014E607B900108E0FEA3E0FF12A2
:100EC90019027F0A7E001218D6900109E024FFF06A
:100ED900900108E034FFF080B68057900104E0FEED
:100EE900A3E0FF900108EEF0A3EFF0900106E0FE09
:100EF900A3E0FF900108E0FCA3E0FDC3ED9FEC9E99
:100F0900503090015AE0FEA3E0FFEF64014E6022E9
:100F1900900108E0FEA3E0FF1219027F0A7E001289
:100F290018D6900109E004F07006900108E004F079
:0A0F390080B990015AE4F0A3E4F03F
:010F4300228B
:0816F600900129EEF0A3EFF0D2
:1016FE0090012BE4F0A3E4F0900129E0FEA3E0FFBB
:10170E0090012BEEF0A3EFF090012BE0FEA3E0FF93
:10171E00D3EF9405EE9400402290012BE0FEA3E05F
:10172E00FF1219027F147E001218D690012CE024AD
:0B173E00FFF090012BE034FFF080CDA5
:01174900227D
:101B2F0053B3EF43B41053B3FE43B40153B3F7436E
:0C1B3F00B4085390EF5390FE5390F7222F
:101B6600900162EFF0900162E0FF7E00EF64014EAB
:0A1B76007004439010225390EF22F8
:041CC1004390012229
:041CC5005390FE2218
:041CC900439008221A
:041CCD005390F72217
:10000E0043B12053B2DF43E101C2EF53E8FF43E8AF
:05001E000543F610226D
:091C7200C2EF43E84030EFFD220F
:1015D00090010AE4F0A3E4F090010CE4F0A3E4F03D
:1015E00090010EE4F0A3E4F0121C72E5C2540FFF68
:1015F0007E0090010AEEF0A3EFF0AFC37E009001F1
:101600000CEEF0A3EFF090010CE0FEA3E0FFEFC4BE
:10161000F8540FC868FFEEC454F048FE90010AE089
:10162000FCA3E0FDEE4CFEEF4DFF90010EEEF0A3AB
:0A163000EFF090010EE0FEA3E0FFD2
:01163A00228D
:1018D60090015CEEF0A3EFF090015CE0FEA3E0FF68
:1018E600EF4E60177FE87E0312186B90015DE024CF
:0C18F600FFF090015CE034FFF080DD2288
:08186B0090012DEEF0A3EFF057
:1018730090012DE0FCA3E0FDE412004312007C90F4
:10188300012FEEF0A3EFF090012FE0FEA3E0FFEFB6
:101893004E601100900130E024FFF090012FE034FE
:0418A300FFF080E3EF
:0118A700221E
:101A480053B3FB53B4FB43DE0153DF3F53DFEFD205
:101A5800DC538EBF43DF0353DFFB75D60075D1001F
:041A680075D9852285
:1019020090015EEEF0A3EFF0C2DF90015EE0FEA375
:10191200E0FF7F00EEFF7E008FD290015EE0FEA32B
:0C192200E0FFEF54FFF5DAD2DED2DF2246
:06118600430142000000DD
:10123B0090013112047353B1BF53B2BF53B17F53FB
:10124B00B27F900131E0F8A3E0F9A3E0FAA3E0FB51
:10125B007F407E427D0F7C001203AFA804A905AA34
:10126B0006AB07C374FF9BFF74FF9AFEE499FDE482
:10127B0098FC78081204608FC6900131E0F8A3E067
:10128B00F9A3E0FAA3E0FB7F407E427D0F7C0012C6
:10129B0003AFA804A905AA06AB07C374FF9BFF7491
:1012AB00FF9AFEE499FDE498FCEF54FFFFEE540027
:1012BB00FEED5400FDEC5400FC8FC5759870438710
:0E12CB008053C4F843C42043C408121CD72229
:031CD400D2AC226D
:031CD700C2AC227A
:051AF300900160EFF01E
:101AF800C299900160E0FFEF64FFFF900161EFF091
:0A1B0800900160E0FF8F993099FD15
:011B120022B0
:1017E40090011CEBF0A3EAF0A3E9F090011FEDF0E7
:1017F400900120E4F090011FE0FF900120E0FEEE54
:10180400C39F502490011CE0FBA3E0FAA3E0F990ED
:101814000120E0FF8F827583001201C2FF121AF3C8
:08182400900120E004F080CDEA
:01182C002299
:0B1C6600900163E599F0900163E0FF3E
:011C71002250
:101A6C0090013FEBF0A3EAF0A3E9F090013FE0FB1B
:101A7C00A3E0FAA3E0F9900142EBF0A3EAF0A3E9AA
:021A8C00F02246
:030023000214784C
:10147800C0E0C0F0C083C082C0D075D000C000C03A
:1014880001C002C003C004C005C006C00730983AB6
:10149800C2987B007A007900C003C002C0019001A5
:1014A80042E0FBA3E0FAA3E0F9D082D083D0E06B5E
:1014B8007008E965827003EA6583600E900142E076
:1014C800FBA3E0FAA3E0F9120545309902C299D0CE
:1014D80007D006D005D004D003D002D001D000D068
:0A14E800D0D082D083D0F0D0E032E3
:0A118C004100D3004300D40000002E
:101B800043B38053B47F43E90143E98043EA805380
:0A1B9000EB7F439B02D2AFD29722F5
:091C7B0053B3DF43B420C29522EB
:101A8E00900145EBF0A3EAF0A3E9F0900145E0FBED
:101A9E00A3E0FAA3E0F99000D4EBF0A3EAF0A3E9F7
:021AAE00F02224
:03003B000210258B
:10102500C0E0C0F0C083C082C0D075D000C000C091
:1010350001C002C003C004C005C006C00753EC7F51
:101045009000D3E0FF7E00EF4E700F121C2490003D
:10105500CB1204739000D37401F0121C249000CFBE
:101065001204739000CBE0F8A3E0F9A3E0FAA3E043
:10107500FB9000CFE0FCA3E0FDA3E0FEA3E0FFC3EF
:10108500EF9BFFEE9AFEED99FDEC98FC7B887A13B9
:1010950079007800C312044F50387B007A0079003C
:1010A500C003C002C0019000D4E0FBA3E0FAA3E0B6
:1010B500F9D082D083D0E06B7008E965827003EACD
:1010C5006583600E9000D4E0FBA3E0FAA3E0F9127B
:1010D5000545D007D006D005D004D003D002D001F5
:0D10E500D000D0D0D082D083D0F0D0E03247
:1018A800900164EFF0900164E0FFEF12051F18C685
:1018B8000018D20118D20218D203000018D2438EA1
:0E18C80008438901758AEA758CCB121CBB227D
:101AB000900148EBF0A3EAF0A3E9F0900148E0FBC5
:101AC000A3E0FAA3E0F990014BEBF0A3EAF0A3E95D
:021AD000F02202
:10192E00900165EFF0900165E0FFEF12051F194C75
:10193E000019500119530219560300001959438812
:0C194E00102243884043C80443C4082210
:061CB5007F0012192E222F
:10195A00900166EFF0900166E0FFEF12051F19781B
:10196A0000197C01197F0219820300001985538826
:0C197A00EF225388BF53C8FB53C4F72270
:061CBB007F0012195A22FD
:03000B000214F2EA
:1014F200C0E0C0F0C083C082C0D075D000C000C0C0
:1015020001C002C003C004C005C006C0077B007A48
:10151200007900C003C002C00190014BE0FBA3E0D0
:10152200FAA3E0F9D082D083D0E06B7008E965823B
:101532007003EA6583600E90014BE0FBA3E0FAA31F
:10154200E0F9120545D007D006D005D004D003D06B
:1015520002D001D000D0D0D082D083D0F0D0E032FF
:101BE0007F001218A87BFF7A16799B121AB0121C7C
:021BF000B5221C
:10169B009000DFE0FCA3E0FDA3E0FEA3E0FF7B01F5
:1016AB007A0079007800EF2BFFEE3AFEED39FDEC76
:1016BB0038FC9000DF1204737F007E947D357C77BD
:1016CB009000DFE0F8A3E0F9A3E0FAA3E0FBD3126C
:1016DB00044F400A9000DF12047F00000000538883
:0B16EB00EF758AEA758CCB4388102253
:0F1C24009000DFE0FCA3E0FDA3E0FEA3E0FF22C1
:06098E0090013512047314
:10099400121C249000D7120473121C249000DB1242
:1009A4000473900135E0F8A3E0F9A3E0FAA3E0FBB7
:1009B400C3E49BFF74949AFE743599FD747798FC94
:1009C4009000D7E0F8A3E0F9A3E0FAA3E0FBC31298
:1009D400044F504C9000D7E0F8A3E0F9A3E0FAA349
:1009E400E0FB9000DBE0FCA3E0FDA3E0FEA3E0FF5E
:1009F400C3EF9BFFEE9AFEED99FDEC98FC90013558
:100A0400E0F8A3E0F9A3E0FAA3E0FBD312044F500B
:100A140003020B25121C249000DB12047380B52200
:100A2400900135E0FCA3E0FDA3E0FEA3E0FF90000D
:100A3400DBE0F8A3E0F9A3E0FAA3E0FBD312044F50
:100A44005003020ACE900135E0FCA3E0FDA3E0FED2
:100A5400A3E0FF9000DBE0F8A3E0F9A3E0FAA3E051
:100A6400FBD312044F400B121C249000DB120473BE
:100A740080D39000D7E0F8A3E0F9A3E0FAA3E0FB69
:100A8400C3E49BFF74949AFE743599FD747798FCC3
:100A94009000DBE0F8A3E0F9A3E0FAA3E0FBEF2B7E
:100AA400FFEE3AFEED39FDEC38FC900135E0F8A399
:100AB400E0F9A3E0FAA3E0FBD312044F4063121C55
:100AC400249000DB12047380A9229000D7E0F8A3DD
:100AD400E0F9A3E0FAA3E0FBC3E49BFF74949AFE5D
:100AE400743599FD747798FC9000DBE0F8A3E0F985
:100AF400A3E0FAA3E0FBEF2BFFEE3AFEED39FDECA9
:100B040038FC900135E0F8A3E0F9A3E0FAA3E0FB98
:100B1400D312044F400B121C249000DB1204738088
:010B2400A927
:010B250022AD
:101197009000F4EBF0A3EAF0A3E9F09000F4E0FB91
:1011A700A3E0FAA3E0F9758206758300E475F00001
:1011B7001203469000F4E0FBA3E0FAA3E0F975827E
:1011C70008758300E475F0001203469000F4E0FB15
:1011D700A3E0FAA3E0F9758205758300E412022201
:1011E7009000FBE0FF9000F4E0FBA3E0FAA3E0F936
:1011F700758203758300EF1202229000FAE0FF90D8
:1012070000F4E0FBA3E0FAA3E0F97582047583001C
:10121700EF1202229000F7E0FBA3E0FAA3E0F9C087
:1012270003C002C0019000F4E0FBA3E0FAA3E0F9D9
:041237001204D022AB
:10079D00900110EBF0A3EAF0A3E9F0900110E0FB5B
:1007AD00A3E0FAA3E0F9121AD2900110E0FBA3E046
:1007BD00FAA3E0F97582047583001201C2FEEFC33E
:1007CD009E500302087E900110E0FBA3E0FAA3E027
:1007DD00F97582047583001201C2FF900110E0FBD0
:1007ED00A3E0FAA3E0F97582037583001201C2FE3E
:1007FD00EE8FF0A4FFAEF0900110E0FBA3E0FAA3A2
:10080D00E0F97582087583001202C1FDACF0C3EDED
:10081D009FEC9E4018900110E0FBA3E0FAA3E0F9D5
:10082D00758208758300E475F0001203469001107F
:10083D00E0FBA3E0FAA3E0F97582037583001201D2
:10084D00C2FF7E00900110E0FBA3E0FAA3E0F97572
:10085D008208758300EE8FF01202F9900110E0FB13
:10086D00A3E0FAA3E0F975820575830074FF120108
:10087D00EF900110E0FBA3E0FAA3E0F97582047597
:10088D0083001201C2FF900110E0FBA3E0FAA3E088
:10089D00F97582037583001201C2FEEE8FF0A4FF7D
:1008AD00AEF0900110E0FBA3E0FAA3E0F97582062B
:1008BD007583001202C1FDACF0C3ED9FEC9E401894
:1008CD00900110E0FBA3E0FAA3E0F97582067583B1
:1008DD0000E475F000120346900110E0FBA3E0FA6E
:1008ED00A3E0F97582037583001201C2FF7E0090AB
:1008FD000113E0FBA3E0FAA3E0F9C003C002C001BD
:10090D00900110E0FBA3E0FAA3E0F9758206758370
:10091D00001202C1FDACF0900110E0FBA3E0FAA3C0
:10092D00E0F91204B0E92DF9EA3CFAA801AC02ADE8
:10093D0003D001D002D003120183900110E0FBA37C
:10094D00E0FAA3E0F97582037583001201C2FF7E00
:10095D0000900110E0FBA3E0FAA3E0F975820675A3
:10096D008300EE8FF01202F9900110E0FBA3E0FA84
:10097D00A3E0F975820575830074011201EF7F0103
:01098D002247
:100B2600900116EBF0A3EAF0A3E9F0900116E0FBC2
:100B3600A3E0FAA3E0F9121AD2EF7003020C559063
:100B46000116E0FBA3E0FAA3E0F9758204758300C1
:100B56001201C2FF900116E0FBA3E0FAA3E0F975CB
:100B660082037583001201C2FEEE8FF0A4FFAEF081
:100B7600900116E0FBA3E0FAA3E0F97582087583FD
:100B8600001202C1FDACF0C3ED9FEC9E401890012F
:100B960016E0FBA3E0FAA3E0F9758208758300E48A
:100BA60075F000120346900116E0FBA3E0FAA3E0FD
:100BB600F97582037583001201C2FF7E009001164B
:100BC600E0FBA3E0FAA3E0F9758208758300120240
:100BD600C1FDACF0900116E0FBA3E0FAA3E0F91228
:100BE60004B0E92DF9EA3CFAC003C002C001900145
:100BF60019E0FBA3E0FAA3E0F9A801AC02AD03D02B
:100C060001D002D003120183900116E0FBA3E0FAA3
:100C1600A3E0F97582037583001201C2FF7E00907E
:100C26000116E0FBA3E0FAA3E0F9758208758300DC
:100C3600EE8FF01202F9900116E0FBA3E0FAA3E0B2
:100C4600F975820575830074FF1201EF7F01227F1B
:020C560000227A
:1019AF0090014EEBF0A3EAF0A3E9F090014EE0FBBB
:1019BF00A3E0FAA3E0F97582057583001201C2FF57
:0919CF00EF60037F00227F01227A
:101AD200900151EBF0A3EAF0A3E9F0900151E0FB91
:101AE200A3E0FAA3E0F97582057583001201C2FF33
:011AF20022D1
:101562009000FCEBF0A3EAF0A3E9F09000FFEDF0AD
:10157200900102E4F0900103E4F09000FFE0FF909C
:101582000103EFF0900103E0FF7E00900100E0FC18
:10159200A3E0FDC3EF9DEE9C502E900102E0FF9070
:1015A20000FCE0FBA3E0FAA3E0F9900103E0FE8E69
:1015B200827583001201C2FEEF6EFF900102EFF00E
:0D15C200900103E004F080BC900102E0FF06
:0115CF0022F9
:10003E0075F020800E75F010800575F0087D007E3D
:10004E00007F003392D530D503120441EC334010BB
:10005E00EF33FFEE33FEED33FDEC33FCD5F0ED2246
:0E006E00E5F0247EA2D513CC92E7CDCEFF2282
:10007C00EDD2E7CD33EC3392D524814006E4FFFE7C
:10008C00FDFC22FCE4CFCECDCC24E0501174FF80DB
:10009C00EDC3CC13CCCD13CDCE13CECF13CF047078
:0700AC00F030D5DE02044133
:10137700021C4EE493A3F8E493A34003F68001F222
:1013870008DFF48029E493A3F85407240CC8C33377
:10139700C4540F4420C8834004F456800146F6DF46
:1013A700E4800B01020408102040809010F2E47ED4
:1013B700019360BCA3FF543F30E509541FFEE4933B
:1013C700A360010ECF54C025E060A840B8E493A302
:1013D700FAE493A3F8E493A3C8C582C8CAC583CA2D
:1013E700F0A3C8C582C8CAC583CADFE9DEE780BEE5
:011196000058
:1000B300E709F608DFFA8046E709F208DFFA803E2F
:1000C30088828C83E709F0A3DFFA8032E309F6081C
:1000D300DFFA8078E309F208DFFA807088828C8384
:1000E300E309F0A3DFFA806489828A83E0A3F60838
:1000F300DFFA805889828A83E0A3F208DFFA804C12
:1001030080D280FA80C680D4806980F280338010E8
:1001130080A680EA809A80A880DA80E280CA803351
:1001230089828A83ECFAE493A3C8C582C8CCC583C9
:10013300CCF0A3C8C582C8CCC583CCDFE9DEE78099
:100143000D89828A83E493A3F608DFF9ECFAA9F018
:10015300EDFB2289828A83ECFAE0A3C8C582C8CC6E
:10016300C583CCF0A3C8C582C8CCC583CCDFEADE87
:10017300E880DB89828A83E493A3F208DFF980CCE9
:1001830088F0EF60010E4E60C388F0ED2402B404E2
:100193000050B9F582EB2402B4040050AF23234589
:0601A300822390010373AA
:1001A900BB010689828A83E0225002E722BBFE0254
:0901B900E32289828A83E4932287
:1001C200BB010CE58229F582E5833AF583E02250F2
:1001D20006E92582F8E622BBFE06E92582F8E2223C
:0D01E200E58229F582E5833AF583E4932256
:1001EF00BB010FF8E58229F582E5833AF583E02814
:1001FF00F0225009C58229F8E58226F622BBFE09B6
:10020F00C58229F8E22582F222F8EA2583F583E9EF
:03021F00932822FF
:10022200F8BB010DE58229F582E5833AF583E8F012
:10023200225006E92582C8F622BBFE05E92582C8BE
:02024200F222A6
:10024400EF8DF0A4A8F0CF8CF0A428CE8DF0A42ECE
:02025400FE2288
:10025600BC000BBE0029EF8DF084FFADF022E4CC8C
:10026600F875F008EF2FFFEE33FEEC33FCEE9DEC55
:10027600984005FCEE9DFE0FD5F0E9E4CEFD22ED9B
:10028600F8F5F0EE8420D21CFEADF075F008EF2FE5
:10029600FFED33FD4007985006D5F0F222C398FDD6
:0502A6000FD5F0EA2273
:1002AB00A3F8E0C5F025F0F0E58215827002158306
:0602BB00E0C838F0E82263
:1002C100BB0110E58229F582E5833AF583E0F5F07B
:1002D100A3E0225009E92582F886F008E622BBFE58
:1002E1000AE92582F8E2F5F008E222E5832AF5839E
:0802F100E993F5F0A3E9932263
:1002F900BB010DC58229C582C5833AC58302054B59
:100309005011C58229F808E5F026F618F5F0E582BE
:1003190036F622BBFE11C58229F808E225F0F5F070
:10032900F218E23582F222F8E58229F582E5832A7C
:0D033900F58374019325F0F5F0E49338226C
:10034600F8BB0111E58229F582E5833AF583E8F0E9
:10035600E5F0A3F0225009E92582C8F608A6F022A6
:0D036600BBFE09E92582C8F2E5F008F2228D
:1003730075F008758200EF2FFFEE33FECD33CDCC41
:1003830033CCC58233C5829BED9AEC99E5829840C4
:100393000CF582EE9BFEED9AFDEC99FC0FD5F0D6A1
:1003A300E4CEFBE4CDFAE4CCF9A88222B800C1B9CB
:1003B3000059BA002DEC8BF084CFCECDFCE5F0CB09
:1003C300F97818EF2FFFEE33FEED33FDEC33FCEB42
:1003D30033FB10D703994004EB99FB0FD8E5E4F9FD
:1003E300FA227818EF2FFFEE33FEED33FDEC33FCEA
:1003F300C933C910D7059BE99A4007EC9BFCE99ADE
:10040300F90FD8E0E4C9FAE4CCFB2275F010EF2F22
:10041300FFEE33FEED33FDCC33CCC833C810D70722
:100423009BEC9AE899400AED9BFDEC9AFCE899F85D
:0E0433000FD5F0DAE4CDFBE4CCFAE4C8F922F0
:0E044100C3E49FFFE49EFEE49DFDE49CFC22CC
:10044F00EB9FF5F0EA9E42F0E99D42F0E89C45F003
:01045F00227A
:10046000E8600FECC313FCED13FDEE13FEEF13FF7A
:03047000D8F1229E
:0C047300ECF0A3EDF0A3EEF0A3EFF022FC
:10047F00A8828583F0D083D082120496120496123C
:10048F000496120496E473E493A3C583C5F0C58361
:10049F00C8C582C8F0A3C583C5F0C583C8C582C8C7
:0104AF00222A
:1004B000BB010789828A830205735005E9F80205AA
:1004C00061BBFE05E9F802058589828A83020597EA
:1004D000BB011A89828A83D0F0D0E0F8D0E0F9D04D
:1004E000E0FAD0E0FBE8C0E0C0F002057C5016E97D
:1004F000F8D083D082D0E0F9D0E0FAD0E0FBC0821F
:10050000C08302056ABBFE16E9F8D083D082D0E032
:0F051000F9D0E0FAD0E0FBC082C08302058E2252
:10051F00D083D082F8E4937012740193700DA3A36B
:10052F0093F8740193F5828883E47374029368607F
:06053F00EFA3A3A380DF7F
:060545008A838982E47341
:10054B00C5F0F8A3E028F0C5F0F8E582158270023B
:06055B001583E038F022D8
:09056100E6FB08E6FA08E6F922BF
:09056A00EBF608EAF608E9F622B6
:09057300E0FBA3E0FAA3E0F92289
:09057C00EBF0A3EAF0A3E9F02280
:09058500E2FB08E2FA08E2F922A7
:09058E00EBF208EAF208E9F2229E
:0C059700E493FB740193FA740293F922C0
:00000001FF
