:030000000212B435
:0C12B400787FE4F6D8FD7581070212FB7C
:0C1C740012000E121638120C6880F822C4
:101221004100A3004100A5004100A9004100AB001D
:101231004100A2004100A7004100A4004100A60016
:0C1241004100A8004100AA004100A100EB
:1009CA009000D0EFF09000D1EDF09000D2EBF0A3C0
:1009DA00EAF0A3E9F09000D0E0FFEF1205070B1848
:1009EA000F0A0A100A28200A46300A64400A82506E
:1009FA000AA0700ABE730ADC800AFA9000000B355E
:100A0A009000D1E0FF9000D2E0FBA3E0FAA3E0F966
:100A1A009000D5E0FE9000F2EEF0121AF722900054
:100A2A00D1E0FF9000D2E0FBA3E0FAA3E0F9900046
:100A3A00D5E0FE9000F7EEF0121B0E229000D1E0F6
:100A4A00FF9000D2E0FBA3E0FAA3E0F99000D5E022
:100A5A00FE9000FCEEF0121B25229000D1E0FF90E0
:100A6A0000D2E0FBA3E0FAA3E0F99000D5E0FE9003
:100A7A000101EEF0121B3C229000D1E0FF9000D25F
:100A8A00E0FBA3E0FAA3E0F99000D5E0FE900106AE
:100A9A00EEF0121B53229000D1E0FF9000D2E0FB4F
:100AAA00A3E0FAA3E0F99000D5E0FE90010BEEF086
:100ABA00121B6A229000D1E0FF9000D2E0FBA3E073
:100ACA00FAA3E0F99000D5E0FE900110EEF0121BB7
:100ADA0081229000D1E0FF9000D2E0FBA3E0FAA3CC
:100AEA00E0F99000D5E0FE900115EEF012196922A6
:100AFA009000D1E0FF9000D2E0FBA3E0FAA3E0F976
:100B0A009000D5E0FE90011AEEF0121B9822900098
:100B1A00D1E0FF9000D2E0FBA3E0FAA3E0F9900055
:0C0B2A00D5E0FE90011FEEF0121BAF2280
:101AF7009000EEEFF09000EFEBF0A3EAF0A3E9F02F
:071B07009000A37401F0221D
:101B0E009000F3EFF09000F4EBF0A3EAF0A3E9F00D
:071B1E009000A57401F02204
:101B25009000F8EFF09000F9EBF0A3EAF0A3E9F0EC
:071B35009000A97401F022E9
:101B3C009000FDEFF09000FEEBF0A3EAF0A3E9F0CB
:071B4C009000AB7401F022D0
:101B5300900102EFF0900103EBF0A3EAF0A3E9F0A8
:071B63009000A27401F022C2
:101B6A00900107EFF0900108EBF0A3EAF0A3E9F087
:071B7A009000A77401F022A6
:101B810090010CEFF090010DEBF0A3EAF0A3E9F066
:071B91009000A47401F02292
:10196900900111EFF0900112EBF0A3EAF0A3E9F076
:101979009000A67401F0900112E0FBA3E0FAA3E045
:0B198900F9120191FF9000A1EFF02285
:101B9800900116EFF0900117EBF0A3EAF0A3E9F03B
:071BA8009000A87401F02277
:101BAF0090011BEFF090011CEBF0A3EAF0A3E9F01A
:071BBF009000AA7401F0225E
:10124D0046001620A100010A8A46002F30A1000198
:10125D000A9A46000040A100010AEA46000750A183
:10126D0000010AFA46002270A1000172A246001088
:10127D0073A1000175A646001C80A100010A2A4732
:10128D00002890A100022171634600360FA10001D4
:02129D000AA5A0
:0100090022D4
:100C68009000A3E0FF7E00EF64014E606B9000A54A
:100C7800E0FF7E00EF64014E605E9000A9E0FF7E19
:100C880000EF64014E60519000ABE0FF7E00EF641E
:100C9800014E60449000A2E0FF7E00EF64014E60C8
:100CA800379000A7E0FF7E00EF64014E602A9000B5
:100CB800A4E0FF7E00EF64014E601D9000A6E0FFF7
:100CC8007E00EF64014E60109000A8E0FF7E00EF08
:100CD80064014E6003020D789000A3E0FF7E00EFF0
:100CE80064014E700412000A229000A5E0FF7E0005
:100CF800EF64014E7004121BC6229000A9E0FF7E2B
:100D080000EF64014E7004121A8A229000ABE0FFD3
:100D18007E00EF64014E7004121C0B229000A2E0CA
:100D2800FF7E00EF64014E7004120003229000A7BA
:100D3800E0FF7E00EF64014E7004121C4622900012
:100D4800A4E0FF7E00EF64014E7004121CAD2290F7
:100D580000A6E0FF7E00EF64014E700412188622A0
:100D68009000A8E0FF7E00EF64014E700312158426
:010D78002258
:01000A0022D3
:101BC6009000A5E4F07B017A0079167D061219BD16
:071BD6009000357401F022BC
:101A8A009000A9E4F07F01121AC57D0A7C007F0547
:0F1A9A007E00120E8090000DE4F0A3740AF0227B
:101C0B009000ABE4F090000DE0FEA3E0FF1215E4B2
:061C1B007F00121AC52231
:060003009000A2E4F022CF
:101C46009000A7E4F07B017A0079227D061219BD87
:011C5600226B
:061CAD009000A4E4F02207
:101886009000A6E4F09000A1E0FF7E0090015CEEDF
:10189600F0A3EFF090000DE0FEA3E0FF90015CE006
:1018A600FCA3E0FD120E80121C2190000DEEF0A3A9
:0218B600EFF051
:0118B800220D
:101584009000A8E4F0900035E0FF7E00EF64014E87
:10159400700890002C7421F0800690002C7422F0C6
:1015A40090000FE0FF7E00EF64014E700890002D64
:1015B4007471F0800690002D7472F07B017A0079CA
:1015C400289000CCE4F0A37406F07D001214AB90D4
:1015D400002EEFF07B017A0079287D071219BD22D5
:061CB3009000AAE4F022FB
:10000E00121C66121AA97F0A7E00121BDD1216D46C
:03001E00D2AF223C
:041CB90012163822A5
:101ADF0000010002000300040005000600070008D3
:081AEF000009000A000B000CC5
:1013400090015EE4F0A3E4F090015EE0FEA3E0FF14
:10135000C3EF940CEE648094805065900000E0FE32
:10136000A3E0FF900000E0FCA3E0FDC3ED9FFFECD5
:101370009EFE7C007D0C12023E90015EE0FCA3E02C
:10138000FD12022C900000E0FCA3E0FDEF2DFDEE2D
:101390003CFC90015EE0FEA3E0FFEF25E0FFEE33B2
:1013A000FE747A2FF58274003EF583ECF0A3EDF025
:1013B00090015FE004F0700690015EE004F0808828
:0113C000220A
:08058B0090003CEEF0A3EFF03C
:100593009000427402F07BFF7A1A79DFC003C00235
:1005A300C0017B017A007943A801AC02AD03D001FD
:1005B300D002D0037E007F1812016B90003CE0FE56
:1005C300A3E0FFD3EF940CEE940040047F0180027C
:1005D3007F0090003CE0FCA3E0FDC3ED9401EC94AC
:1005E3000050047E0180027E00EE4FFFEF60057E27
:1005F300FF7FFF2212134090003EE4F0A3E4F0904B
:10060300003EE0FEA3E0FFC3EF940CEE6480948011
:10061300506690003EE0FEA3E0FFEF25E0FFEE33DF
:10062300FE74432FF58274003EF583E0FEA3E0FFE2
:1006330090003CE0FCA3E0FDEDB5072CECB50628EB
:1006430090003EE0FEA3E0FFEF25E0FFEE33FE74F3
:100653007A2FF58274003EF583E0FEA3E0FF90005D
:100663003CEEF0A3EFF0801090003FE004F0700642
:1006730090003EE004F08087121519900040EEF0E0
:10068300A3EFF090003CE0FEA3E0FFEF24FAFFEEBF
:1006930034FFFE900040E0FCA3E0FDC3ED9FEC9E21
:1006A3005007900042E4F0804A90003CE0FEA3E053
:1006B300FFEF24FAFFEE34FFFE900040E0FCA3E0DE
:1006C300FDC3ED9FEC9E402590003CE0FEA3E0FFC0
:1006D300EF2406FFEE3400FE900040E0FCA3E0FDB3
:1006E300D3ED9FEC9E5006E47E007F0022900042F3
:1006F3007401F0900042E0FFEF12050707090007BD
:100703006B01000007CD121CC97F647E001218B96B
:10071300121CBD121519900040EEF0A3EFF09000EB
:100723003CE0FEA3E0FFEF24FAFFEE34FFFE90006F
:1007330040E0FCA3E0FDC3ED9FEC9E40D690003C5F
:10074300E0FEA3E0FFEF2406FFEE3400FE9000403E
:10075300E0FCA3E0FDD3ED9FEC9E50B7121CC17FDC
:10076300647E001218B98068121CC17F647E001277
:1007730018B9121CC5121519900040EEF0A3EFF042
:1007830090003CE0FEA3E0FFEF24FAFFEE34FFFE0F
:10079300900040E0FCA3E0FDC3ED9FEC9E40D690AB
:1007A300003CE0FEA3E0FFEF2406FFEE3400FE90E2
:1007B3000040E0FCA3E0FDD3ED9FEC9E50B7121C7C
:1007C300C97F647E001218B98006E47E007F002290
:0507D300E47E007F0040
:0107D80022FE
:031CCD00524A0078
:09129F0041005B0042005C00000C
:1016D4007FB07E047D007C001210EF7BFF7A0F79CF
:1016E4006B121A277B017A007970C003C002C00113
:1016F4007B017A00795E9000C3EBF0A3EAF0A3E9E2
:10170400F09000C67402F09000C77409F0D001D0C4
:0A17140002D00312104B121CD02269
:100F6B00121C9890005BEFF090005BE0FF90005C30
:100F7B00E475F001120293ADF0FC74922DF58274BE
:100F8B00003CF583EFF0900092E0FF7E00EF6440B1
:100F9B004E7009900162E4F0A37401F090005CE0E4
:100FAB00FEA3E0FFC3EF9404EE9400500302104A3B
:100FBB00900095E0FF7E00EF2405FFEE3400FE90DD
:100FCB00005CE0FCA3E0FDEF6D7002EE6C70707BDB
:100FDB00017A007992900095E0FF7E00EF2404FFE8
:100FEB00EE3400FE9000CCEEF0A3EFF07D00121477
:100FFB00AB900095E0FE74962EF582E43400F583F9
:10100B00E0FEEFB506287B017A007970C003C002C1
:10101B00C0017B017A0079929000E5EBF0A3EAF036
:10102B00A3E9F0D001D002D0031207D980097BFFCE
:0F103B007A1C79CD12171E90005CE4F0A3E4F04C
:01104A002283
:101638007B017A007970121994EF70437B017A006C
:101648007970C003C002C0017B017A0079B79000AD
:10165800EBEBF0A3EAF0A3E9F0D001D002D003123B
:101668000B369000B7E0FF9000B8E0FD7B017A00F0
:0F16780079BB9000BAE0FE9000D5EEF01209CADF
:011687002240
:1019BD00900125EBF0A3EAF0A3E9F0900128EDF0FA
:1019CD00900125E0FBA3E0FAA3E0F9900128E0FDEA
:0419DD0012171E229D
:0512A80042016200009C
:0E1C660053B3FE43B4017FF47E011218B9227D
:101BDD00900160EEF0A3EFF01219E1900160E0FECC
:071BED00A3E0FF1218E5223E
:101C2100AFD47E00EF7F00FEADDC7C00EE4CFEEF1A
:031C31004DFF2242
:100E80009000D6EEF0A3EFF09000D8ECF0A3EDF0D8
:100E90009000DAE4F0A3E4F09000D8E0FEA3E0FFD5
:100EA0009000D6E0FCA3E0FDD3ED9FEC9E405C906B
:100EB00000D6E0FEA3E0FF9000DAEEF0A3EFF090A2
:100EC00000D8E0FEA3E0FF9000DAE0FCA3E0FDD351
:100ED000ED9FEC9E5003020F62900162E0FEA3E0E2
:100EE000FFEF64014E607B9000DAE0FEA3E0FF12AA
:100EF00018E57F147E001218B99000DBE024FFF0A3
:100F00009000DAE034FFF080B680579000D6E0FE23
:100F1000A3E0FF9000DAEEF0A3EFF09000D8E0FE3F
:100F2000A3E0FF9000DAE0FCA3E0FDC3ED9FEC9EA0
:100F30005030900162E0FEA3E0FFEF64014E6022BA
:100F40009000DAE0FEA3E0FF1218E57F147E0012A5
:100F500018B99000DBE004F070069000DAE004F0CD
:0A0F600080B9900162E4F0A3E4F010
:010F6A002264
:0815E400900129EEF0A3EFF0E5
:1015EC0090012BE4F0A3E4F0900129E0FEA3E0FFCE
:1015FC0090012BEEF0A3EFF090012BE0FEA3E0FFA7
:10160C00D3EF9405EE9400402290012BE0FEA3E072
:10161C00FF1218E57F147E001218B990012CE024FB
:0B162C00FFF090012BE034FFF080CDB8
:011637002290
:101AA90053B3DF43B42053B1FE43B20153B1FD43F5
:0C1AB900B2025390DF5380FE5380FD22E8
:101AC50090016CEFF090016CE0FF7E00EF64014E39
:0A1AD5007004439020225390DF229A
:041CBD00438001223D
:041CC1005380FE222C
:041CC5004380022234
:041CC9005380FD2225
:101C340043B38053B47F43E101C2EF53E8F043F66A
:021C440001227B
:091CA400C2EF43E84030EFFD22DD
:101519009000DCE4F0A3E4F09000DEE4F0A3E4F052
:101529009000E0E4F0A3E4F0121CA4E5C2540FFF1C
:101539007E009000DCEEF0A3EFF0AFC37E009000D8
:10154900DEEEF0A3EFF09000DEE0FEA3E0FFEFC4D3
:10155900F8540FC868FFEEC454F048FE9000DCE070
:10156900FCA3E0FDEE4CFEEF4DFF9000E0EEF0A392
:0A157900EFF09000E0E0FEA3E0FFB9
:011583002245
:1018B900900164EEF0A3EFF0900164E0FEA3E0FF75
:1018C900EF4E60177FE87E031217A7900165E024A9
:0C18D900FFF0900164E034FFF080DD229D
:0817A70090012DEEF0A3EFF01C
:1017AF0090012DE0FCA3E0FDE412002B12006490E9
:1017BF00012FEEF0A3EFF090012FE0FEA3E0FFEF7B
:1017CF004E601100900130E024FFF090012FE034C3
:0417DF00FFF080E3B4
:0117E30022E3
:101BF40053B1FD43B20243B202C28153B1FB43B2BB
:071C04000443B204C2822276
:1019E10053B3FE53B4FE43DE0453DF3F53DFEFD264
:1019F100DC538EBF43DF0353DFFB75D60075D10087
:041A010075D98522EC
:1018E500900166EEF0A3EFF0C2DF900166E0FEA383
:1018F500E0FF7F00EEFF7E008FD4900166E0FEA33F
:0C190500E0FFEF54FFF5DCD2DED2DF2261
:08176700900141EEF0A3EFF048
:10176F00900141E0FEA3E0FF900143EFF0900143B1
:10177F00E0FF7E00C3EF9415EE9402501A900143E0
:10178F00E0FF7E001218E57F147E001218B9900159
:07179F0043E0240AF080D6AC
:0117A6002220
:08168800900131EEF0A3EFF038
:101690009001337401F0A374F4F0900131E0FEA3E3
:1016A000E0FF900133E0FCA3E0FDD3ED9FEC9E4012
:1016B00022900133E0FEA3E0FF1218E57F147E00C4
:1016C0001218B9900134E024F6F0900133E034FFB1
:0316D000F080C7E0
:0116D30022F4
:0C1C800053B1FB43B20443B204D28222F1
:10181C00900135E0FCA3E0FDA3E0FEA3E0FF7B011B
:10182C007A0079007800EF2BFFEE3AFEED39FDECF3
:10183C0038FC90013512045B5388EF758AEA758C7D
:05184C00CB43881022CF
:0F1C5700900135E0FCA3E0FDA3E0FEA3E0FF2237
:10185100900168EEF0A3EFF04396205396F753966C
:10186100F9439720900168E0FCA3E0FD7F00121787
:10187100E4D2A9121C807BFF7A18791C121A057F09
:05188100001219112204
:050D79009000ACEFF05A
:100D7E00D2829000ADE4F0A3E4F09000ADE0FEA3CB
:100D8E00E0FFC3EF9408EE6480948050409000AD75
:100D9E00E0FEA3E0FF9000ACE0FEA807EE088002A4
:100DAE00C313D8FCFFEF5401FF9000ADE0FCA3E0AD
:100DBE00FD74AF2DF58274003CF583EFF09000AE1C
:100DCE00E004F070069000ADE004F080AD900135C7
:100DDE0012046700000000121C577B017A00790094
:100DEE007800C312043770EFC2829000ADE4F0A316
:100DFE00E4F09000ADE0FEA3E0FFC3EF9408EE64D4
:100E0E008094805059121C57A804A905AA06AB0756
:100E1E009000ADE0FEA3E0FFEF2401FFEE3400FEF4
:100E2E00EE3395E0FDFCC312043760D99000ADE0BF
:100E3E00FEA3E0FF74AF2FF58274003EF583E0FF52
:100E4E007E00EF64014E7004D2828002C282900056
:100E5E00AEE004F070069000ADE004F08094121C39
:100E6E00577B097A0079007800C312043760EFD2FD
:010E7E0082F1
:010E7F002250
:0C1C8C00900144EBF0A3EAF0A3E9F02281
:1017E400900147EFF0900148ECF0A3EDF090014731
:1017F400E0FFEF120507180A001816011816021860
:10180400160300001816438E08438901758AEA7589
:081814008CCB7F0012193D226C
:101A050090014AEBF0A3EAF0A3E9F090014AE0FB6C
:101A1500A3E0FAA3E0F990014DEBF0A3EAF0A3E906
:021A2500F022AD
:1019110090016DEFF090016DE0FFEF120507192FB7
:10192100001933011936021939030000193C4388A3
:0C193100102243884043C80443C408222D
:10193D0090016EEFF090016EE0FFEF120507195B5D
:10194D0000195F01196202196503000019685388B7
:0C195D00EF225388BF53C8FB53C4F7228D
:03000B0002143BA1
:10143B00C0E0C0F0C083C082C0D075D000C000C077
:10144B0001C002C003C004C005C006C0077B007A00
:10145B00007900C003C002C00190014DE0FBA3E086
:10146B00FAA3E0F9D082D083D0E06B7008E96582F3
:10147B007003EA6583600E90014DE0FBA3E0FAA3D5
:10148B00E0F912052DD007D006D005D004D003D03B
:10149B0002D001D000D0D0D082D083D0F0D0E032B7
:0612AD00430153000000A4
:1010EF0090013912045B53B1BF53B2BF53B17F5359
:1010FF00B27F900139E0F8A3E0F9A3E0FAA3E0FB97
:10110F007F407E427D0F7C00120397A804A905AA99
:10111F0006AB07C374FF9BFF74FF9AFEE499FDE4CF
:10112F0098FC78081204488FC6900139E0F8A3E0C4
:10113F00F9A3E0FAA3E0FB7F407E427D0F7C001213
:10114F000397A804A905AA06AB07C374FF9BFF74F6
:10115F00FF9AFEE499FDE498FCEF54FFFFEE540074
:10116F00FEED5400FDEC5400FC8FC575987043875D
:0E117F008053C4F843C42043C408121CD3227A
:031CD000D2AC2271
:031CD300C2AC227E
:051A6A0090016AEFF09D
:101A6F00C29990016AE0FFEF64FFFF90016BEFF006
:0A1A7F0090016AE0FF8F993099FD95
:011A8900223A
:10171E00900120EBF0A3EAF0A3E9F0900123EDF0A5
:10172E00900124E4F0900123E0FF900124E0FEEE0E
:10173E00C39F5024900120E0FBA3E0FAA3E0F990B0
:10174E000124E0FF8F827583001201AAFF121A6A2C
:08175E00900124E004F080CDAD
:011766002260
:0B1C980090016FE599F090016FE0FFF4
:011CA300221E
:10118D00E5875410FF7E00EF64104E6003021220BD
:10119D0090013DE584F090013EE585F090013DE044
:1011AD00FF7E00EF25E0FFEE33FE90013EE0FDED0A
:1011BD005401FD7C00EF2DFFEE3CFE90013FEEF063
:1011CD00A3EFF0900140E024F1F090013FE034FFF7
:1011DD00F090013FE0FEA3E0FFEF5401FF90013ED0
:1011ED00EFF090013FE0FEA3E0FFEEC313FEEF131F
:1011FD00FF90013DEFF075C7AA75C75590013DE011
:10120D00FF8F8475C7AA75C75590013EE0FF8F8586
:03121D005387EF05
:0112200022AB
:101A2700900150EBF0A3EAF0A3E9F0900150E0FB3E
:101A3700A3E0FAA3E0F9900153EBF0A3EAF0A3E9DE
:021A4700F0228B
:030023000213C104
:1013C100C0E0C0F0C083C082C0D075D000C000C0F2
:1013D10001C002C003C004C005C006C00730983A6E
:1013E100C2987B007A007900C003C002C00190015D
:1013F10053E0FBA3E0FAA3E0F9D082D083D0E06B05
:101401007008E965827003EA6583600E900153E01C
:10141100FBA3E0FAA3E0F912052D309902C299D09D
:1014210007D006D005D004D003D002D001D000D01F
:0A143100D0D082D083D0F0D0E0329A
:10104B009000C0EBF0A3EAF0A3E9F09000C0E0FB46
:10105B00A3E0FAA3E0F9758206758300E475F0004E
:10106B0012032E9000C0E0FBA3E0FAA3E0F9758217
:10107B0008758300E475F00012032E9000C0E0FBAE
:10108B00A3E0FAA3E0F9758205758300E412020A66
:10109B009000C7E0FF9000C0E0FBA3E0FAA3E0F9EB
:1010AB00758203758300EF12020A9000C6E0FF9071
:1010BB0000C0E0FBA3E0FAA3E0F97582047583009E
:1010CB00EF12020A9000C3E0FBA3E0FAA3E0F9C021
:1010DB0003C002C0019000C0E0FBA3E0FAA3E0F95B
:0410EB001204B82211
:1007D9009000E2EBF0A3EAF0A3E9F09000E2E0FB7D
:1007E900A3E0FAA3E0F9121A499000E2E0FBA3E0C2
:1007F900FAA3E0F97582047583001201AAFEEFC31A
:100809009E50030208BA9000E2E0FBA3E0FAA3E0DD
:10081900F97582047583001201AAFF9000E2E0FBDA
:10082900A3E0FAA3E0F97582037583001201AAFE19
:10083900EE8FF0A4FFAEF09000E2E0FBA3E0FAA394
:10084900E0F97582087583001202A9FDACF0C3EDC9
:100859009FEC9E40189000E2E0FBA3E0FAA3E0F9C8
:10086900758208758300E475F00012032E9000E28A
:10087900E0FBA3E0FAA3E0F9758203758300120196
:10088900AAFF7E009000E2E0FBA3E0FAA3E0F9757D
:100899008208758300EE8FF01202E19000E2E0FB1E
:1008A900A3E0FAA3E0F975820575830074FF1201CC
:1008B900D79000E2E0FBA3E0FAA3E0F975820475A2
:1008C90083001201AAFF9000E2E0FBA3E0FAA3E093
:1008D900F97582037583001201AAFEEE8FF0A4FF59
:1008E900AEF09000E2E0FBA3E0FAA3E0F97582061E
:1008F9007583001202A9FDACF0C3ED9FEC9E401870
:100909009000E2E0FBA3E0FAA3E0F97582067583A3
:1009190000E475F00012032E9000E2E0FBA3E0FA78
:10092900A3E0F97582037583001201AAFF7E009086
:1009390000E5E0FBA3E0FAA3E0F9C003C002C001AF
:100949009000E2E0FBA3E0FAA3E0F9758206758363
:10095900001202A9FDACF09000E2E0FBA3E0FAA3CB
:10096900E0F9120498E92DF9EA3CFAA801AC02ADC4
:1009790003D001D002D00312016B9000E2E0FBA387
:10098900E0FAA3E0F97582037583001201AAFF7EDC
:10099900009000E2E0FBA3E0FAA3E0F97582067596
:1009A9008300EE8FF01202E19000E2E0FBA3E0FA8F
:1009B900A3E0F975820575830074011201D77F01DF
:0109C900220B
:100B36009000E8EBF0A3EAF0A3E9F09000E8E0FB10
:100B4600A3E0FAA3E0F9121A49EF7003020C6590CC
:100B560000E8E0FBA3E0FAA3E0F9758204758300E0
:100B66001201AAFF9000E8E0FBA3E0FAA3E0F97502
:100B760082037583001201AAFEEE8FF0A4FFAEF089
:100B86009000E8E0FBA3E0FAA3E0F975820875831C
:100B9600001202A9FDACF0C3ED9FEC9E4018900038
:100BA600E8E0FBA3E0FAA3E0F9758208758300E4A8
:100BB60075F00012032E9000E8E0FBA3E0FAA3E034
:100BC600F97582037583001201AAFF7E009000E882
:100BD600E0FBA3E0FAA3E0F9758208758300120230
:100BE600A9FDACF09000E8E0FBA3E0FAA3E0F9125F
:100BF6000498E92DF9EA3CFAC003C002C00190004E
:100C0600EBE0FBA3E0FAA3E0F9A801AC02AD03D048
:100C160001D002D00312016B9000E8E0FBA3E0FADA
:100C2600A3E0F97582037583001201AAFF7E009086
:100C360000E8E0FBA3E0FAA3E0F9758208758300FB
:100C4600EE8FF01202E19000E8E0FBA3E0FAA3E0E9
:100C5600F975820575830074FF1201D77F01227F23
:020C660000226A
:10199400900156EBF0A3EAF0A3E9F0900156E0FBC6
:1019A400A3E0FAA3E0F97582057583001201AAFF8A
:0919B400EF60037F00227F012295
:101A4900900159EBF0A3EAF0A3E9F0900159E0FB0A
:101A5900A3E0FAA3E0F97582057583001201AAFFD4
:011A6900225A
:1014AB009000C8EBF0A3EAF0A3E9F09000CBEDF0CD
:1014BB009000CEE4F09000CFE4F09000CBE0FF90F2
:1014CB0000CFEFF09000CFE0FF7E009000CCE0FC6F
:1014DB00A3E0FDC3EF9DEE9C502E9000CEE0FF905D
:1014EB0000C8E0FBA3E0FAA3E0F99000CFE0FE8E8A
:1014FB00827583001201AAFEEF6EFF9000CEEFF013
:0D150B009000CFE004F080BC9000CEE0FF27
:0115180022B0
:1000260075F020800E75F010800575F0087D007E55
:10003600007F003392D530D503120429EC334010EB
:10004600EF33FFEE33FEED33FDEC33FCD5F0ED225E
:0E005600E5F0247EA2D513CC92E7CDCEFF229A
:10006400EDD2E7CD33EC3392D524814006E4FFFE94
:10007400FDFC22FCE4CFCECDCC24E0501174FF80F3
:10008400EDC3CC13CCCD13CDCE13CECF13CF047090
:07009400F030D5DE02042963
:1012C000021C74E493A3F8E493A34003F68001F2B4
:1012D00008DFF48029E493A3F85407240CC8C3332F
:1012E000C4540F4420C8834004F456800146F6DFFE
:1012F000E4800B0102040810204080901221E47E5B
:10130000019360BCA3FF543F30E509541FFEE493F2
:10131000A360010ECF54C025E060A840B8E493A3B9
:10132000FAE493A3F8E493A3C8C582C8CAC583CAE4
:10133000F0A3C8C582C8CAC583CADFE9DEE780BE9C
:0112B300003A
:10009B00E709F608DFFA8046E709F208DFFA803E47
:1000AB0088828C83E709F0A3DFFA8032E309F60834
:1000BB00DFFA8078E309F208DFFA807088828C839C
:1000CB00E309F0A3DFFA806489828A83E0A3F60850
:1000DB00DFFA805889828A83E0A3F208DFFA804C2A
:1000EB0080D280FA80C680D4806980F28033801001
:1000FB0080A680EA809A80A880DA80E280CA80336A
:10010B0089828A83ECFAE493A3C8C582C8CCC583E1
:10011B00CCF0A3C8C582C8CCC583CCDFE9DEE780B1
:10012B000D89828A83E493A3F608DFF9ECFAA9F030
:10013B00EDFB2289828A83ECFAE0A3C8C582C8CC86
:10014B00C583CCF0A3C8C582C8CCC583CCDFEADE9F
:10015B00E880DB89828A83E493A3F208DFF980CC01
:10016B0088F0EF60010E4E60C388F0ED2402B404FA
:10017B000050B9F582EB2402B4040050AF232345A1
:06018B0082239000EB73DB
:10019100BB010689828A83E0225002E722BBFE026C
:0901A100E32289828A83E493229F
:1001AA00BB010CE58229F582E5833AF583E022500A
:1001BA0006E92582F8E622BBFE06E92582F8E22254
:0D01CA00E58229F582E5833AF583E493226E
:1001D700BB010FF8E58229F582E5833AF583E0282C
:1001E700F0225009C58229F8E58226F622BBFE09CE
:1001F700C58229F8E22582F222F8EA2583F583E908
:0302070093282217
:10020A00F8BB010DE58229F582E5833AF583E8F02A
:10021A00225006E92582C8F622BBFE05E92582C8D6
:02022A00F222BE
:10022C00EF8DF0A4A8F0CF8CF0A428CE8DF0A42EE6
:02023C00FE22A0
:10023E00BC000BBE0029EF8DF084FFADF022E4CCA4
:10024E00F875F008EF2FFFEE33FEEC33FCEE9DEC6D
:10025E00984005FCEE9DFE0FD5F0E9E4CEFD22EDB3
:10026E00F8F5F0EE8420D21CFEADF075F008EF2FFD
:10027E00FFED33FD4007985006D5F0F222C398FDEE
:05028E000FD5F0EA228B
:10029300A3F8E0C5F025F0F0E5821582700215831E
:0602A300E0C838F0E8227B
:1002A900BB0110E58229F582E5833AF583E0F5F093
:1002B900A3E0225009E92582F886F008E622BBFE70
:1002C9000AE92582F8E2F5F008E222E5832AF583B6
:0802D900E993F5F0A3E993227B
:1002E100BB010DC58229C582C5833AC58302053389
:1002F1005011C58229F808E5F026F618F5F0E582D7
:1003010036F622BBFE11C58229F808E225F0F5F088
:10031100F218E23582F222F8E58229F582E5832A94
:0D032100F58374019325F0F5F0E493382284
:10032E00F8BB0111E58229F582E5833AF583E8F001
:10033E00E5F0A3F0225009E92582C8F608A6F022BE
:0D034E00BBFE09E92582C8F2E5F008F222A5
:10035B0075F008758200EF2FFFEE33FECD33CDCC59
:10036B0033CCC58233C5829BED9AEC99E5829840DC
:10037B000CF582EE9BFEED9AFDEC99FC0FD5F0D6B9
:10038B00E4CEFBE4CDFAE4CCF9A88222B800C1B9E3
:10039B000059BA002DEC8BF084CFCECDFCE5F0CB21
:1003AB00F97818EF2FFFEE33FEED33FDEC33FCEB5A
:1003BB0033FB10D703994004EB99FB0FD8E5E4F915
:1003CB00FA227818EF2FFFEE33FEED33FDEC33FC02
:1003DB00C933C910D7059BE99A4007EC9BFCE99AF6
:1003EB00F90FD8E0E4C9FAE4CCFB2275F010EF2F3B
:1003FB00FFEE33FEED33FDCC33CCC833C810D7073B
:10040B009BEC9AE899400AED9BFDEC9AFCE899F875
:0E041B000FD5F0DAE4CDFBE4CCFAE4C8F92208
:0E042900C3E49FFFE49EFEE49DFDE49CFC22E4
:10043700EB9FF5F0EA9E42F0E99D42F0E89C45F01B
:010447002292
:10044800E8600FECC313FCED13FDEE13FEEF13FF92
:03045800D8F122B6
:0C045B00ECF0A3EDF0A3EEF0A3EFF02214
:10046700A8828583F0D083D08212047E12047E1284
:10047700047E12047EE473E493A3C583C5F0C583A9
:10048700C8C582C8F0A3C583C5F0C583C8C582C8DF
:010497002242
:10049800BB010789828A8302055B5005E9F80205DA
:1004A80049BBFE05E9F802056D89828A8302057F4A
:1004B800BB011A89828A83D0F0D0E0F8D0E0F9D065
:1004C800E0FAD0E0FBE8C0E0C0F00205645016E9AD
:1004D800F8D083D082D0E0F9D0E0FAD0E0FBC08237
:1004E800C083020552BBFE16E9F8D083D082D0E063
:0F04F800F9D0E0FAD0E0FBC082C0830205762283
:10050700D083D082F8E4937012740193700DA3A383
:1005170093F8740193F5828883E473740293686097
:06052700EFA3A3A380DF97
:06052D008A838982E47359
:10053300C5F0F8A3E028F0C5F0F8E5821582700253
:060543001583E038F022F0
:09054900E6FB08E6FA08E6F922D7
:09055200EBF608EAF608E9F622CE
:09055B00E0FBA3E0FAA3E0F922A1
:09056400EBF0A3EAF0A3E9F02298
:09056D00E2FB08E2FA08E2F922BF
:09057600EBF208EAF208E9F222B6
:0C057F00E493FB740193FA740293F922D8
:00000001FF
