:030000000210B536
:0C10B500787FE4F6D8FD7581070210FC7E
:0C186F001217B0121444120A7E80F822F6
:100EE40041013D0041013F004101430041014500F2
:100EF40041013B004101410041013E0041014000EC
:100F0400410142004101440041013A0041013C01D8
:1010230090015BEFF090015CEDF090015DEBF0A3BC
:05103300EAF0A3E9F062
:1010380090015CE0FF900161EFF0900160E0FF90AB
:101048000162EFF090015BE0FFEF1204DD10B10FD9
:10105800107710107B20107F3010834010875010BD
:101068009670109A73109E8010AD90000010B41204
:1010780018A5221218AC221218B3221218BA2290FC
:10108800015DE0FBA3E0FAA3E0F912164C22121866
:10109800C1221218C82290015DE0FBA3E0FAA3E088
:0C10A800F9121672221218CF221218D66C
:0110B4002219
:0718A50090013D7401F022E7
:0718AC0090013F7401F022DE
:0718B3009001437401F022D3
:0718BA009001457401F022CA
:10164C009001A4EBF0A3EAF0A3E9F090013B740144
:10165C00F09001A4E0FBA3E0FAA3E0F91201A9FFCA
:06166C0090013CEFF022AA
:0718C1009001417401F022C7
:0718C80090013E7401F022C3
:101672009001A7EBF0A3EAF0A3E9F0900140740116
:10168200F09001A7E0FBA3E0FAA3E0F91201A9FFA1
:0616920090013AEFF02286
:0718CF009001427401F022B8
:0718D6009001447401F022AF
:100F14004600D920A100010A8A4600F230A100014E
:100F24000A9A4600C240A100010AEA4600C950A13B
:100F340000010AFA4600E570A1000172A24600D33E
:100F440073A1000175A64600DF80A100010A2A47AB
:100F540000EB90A100022171634600F90FA100018A
:020F64000AA5DC
:100A7E0090013DE0FF7E00EF64014E606B90013F00
:100A8E00E0FF7E00EF64014E605E900143E0FF7E6A
:100A9E0000EF64014E6051900145E0FF7E00EF646F
:100AAE00014E604490013BE0FF7E00EF64014E601A
:100ABE0037900141E0FF7E00EF64014E602A900105
:100ACE003EE0FF7E00EF64014E601D900140E0FFAE
:100ADE007E00EF64014E6010900142E0FF7E00EF59
:100AEE0064014E6003020B8E90013DE0FF7E00EF2D
:100AFE0064014E700412187B2290013FE0FF7E00CD
:100B0E00EF64014E70041217E122900143E0FF7E64
:100B1E0000EF64014E70041215FA22900145E0FFB9
:100B2E007E00EF64014E70041217612290013BE0CB
:100B3E00FF7E00EF64014E700412184422900141B2
:100B4E00E0FF7E00EF64014E700412182222900125
:100B5E003EE0FF7E00EF64014E70041218332290C7
:100B6E000140E0FF7E00EF64014E70041215272253
:100B7E00900142E0FF7E00EF64014E70031213906D
:010B8E002244
:0C187B0090013DE4F09000D17401F022D7
:1017E10090013FE4F07B017A0079D97D06121698C9
:0717F1009000F87401F022E2
:1015FA00900143E4F07B017A0079F27D0612169895
:10160A007F0112177C7D007C007F057E00120C7F13
:09161A009000CFE4F0A3E4F022FB
:10176100900145E4F09000CFE0FEA3E0FF1213F0FA
:0B1771007F0012177C9000D1E4F022F2
:1018440090013BE4F090013CE0FF7E001205612230
:10182200900141E4F07B017A0079E57D0612169879
:011832002293
:1018330090013EE4F07B017A0079D37D061216987D
:011843002282
:10152700900140E4F07B017A0079DF7D061216987E
:1015370090013AE0FF7E009001BCEEF0A3EFF0903F
:1015470000CFE0FEA3E0FF9001BCE0FCA3E0FD12AA
:0D1557000C7F12180F9000CFEEF0A3EFF004
:011564002264
:10139000900142E4F09000F8E0FF7E00EF64014E1F
:1013A00070089000EF7421F080069000EF7422F036
:1013B0009000D2E0FF7E00EF64014E70089000F0D4
:1013C0007471F080069000F07472F07B017A0079FD
:1013D000EB90016FE4F0A37406F07D001212B79059
:1013E00000F1EFF07B017A0079EB7D07121698226D
:1017B0001218541217457F007E001217F812186293
:0917C000121494121796D2AF2204
:1017C90000010002000300040005000600070008EC
:0817D9000009000A000B000CDE
:101141009001BEE4F0A3E4F09001BEE0FEA3E0FF55
:10115100C3EF940CEE648094805065900119E0FE19
:10116100A3E0FF90011BE0FCA3E0FDC3ED9FFFECBA
:101171009EFE9001BEE0FCA3E0FD1202447C007DD6
:101181000C120256900119E0FCA3E0FDEF2DFDEEDB
:101191003CFC9001BEE0FEA3E0FFEF25E0FFEE3353
:1011A100FE74FF2FF58274003EF583ECF0A3EDF0A1
:1011B1009001BFE004F070069001BEE004F0808869
:0111C100220B
:100D6A00900190E4F0A3E4F0900192E4F0A3E4F09F
:100D7A007FE87E031215A21218DD12132590019046
:100D8A00EEF0A3EFF0900190E0FEA3E0FF90019255
:100D9A00E0FCA3E0FDED6F7002EC6E602490019020
:100DAA00E0FEA3E0FF900192EEF0A3EFF07FE87E71
:100DBA0003121565121325900190EEF0A3EFF0804F
:100DCA00C41218E1900192E0FEA3E0FF90011BEE2D
:100DDA00F0A3EFF07F0A7E001215A2900192E4F0D0
:100DEA00A3E4F01218E5900190E0FEA3E0FF900161
:100DFA0092E0FCA3E0FDED6F7002EC6E60249001BE
:100E0A0090E0FEA3E0FF900192EEF0A3EFF07FE8FE
:100E1A007E03121565121325900190EEF0A3EFF0F0
:100E2A0080C41218E9900192E0FEA3E0FF90011934
:050E3A00EEF0A3EFF053
:010E3F002290
:0D1862001200267BFF7A0D796A1217022210
:0805610090011DEEF0A3EFF084
:100569009001217402F07BFF7A1779C9C003C00298
:10057900C0017B017A017922A801AC02AD03D00147
:10058900D002D0037E007F1812018390011DE0FE86
:10059900A3E0FFD3EF940CEE940040047F018002A6
:1005A9007F0090011DE0FCA3E0FDC3ED9401EC94F4
:1005B9000050047E0180027E00EE4FFFEF60057E51
:1005C900FF7FFF2212114190011FE4F0A3E4F09094
:1005D900011FE0FEA3E0FFC3EF940CEE648094805A
:1005E900506690011FE0FEA3E0FFEF25E0FFEE3328
:1005F900FE74222FF58274013EF583E0FEA3E0FF2D
:1006090090011DE0FCA3E0FDEDB5072CECB5062833
:1006190090011FE0FEA3E0FFEF25E0FFEE33FE743B
:10062900FF2FF58274003EF583E0FEA3E0FF900101
:100639001DEEF0A3EFF08010900120E004F07006A9
:1006490090011FE004F08087121325900117EEF046
:10065900A3EFF090011DE0FEA3E0FF900117E0FC7D
:10066900A3E0FDC3ED9FEC9E5007900121E4F080CB
:100679004A90011DE0FEA3E0FFEF24FEFFEE34FFE8
:10068900FE900117E0FCA3E0FDC3ED9FEC9E402521
:1006990090011DE0FEA3E0FFEF2402FFEE3400FE0F
:1006A900900117E0FCA3E0FDD3ED9FEC9E5006E41A
:1006B9007E007F00229001217401F0900121E0FF6A
:1006C900EF1204DD06D7000713010000074F1218C7
:1006D900E97F0A7E001215A21218DD121325900176
:1006E90017EEF0A3EFF090011DE0FEA3E0FFEF2469
:1006F900FEFFEE34FFFE900117E0FCA3E0FDC3ED21
:100709009FEC9E40D61218E180421218E17F0A7EC2
:10071900001215A21218E5121325900117EEF0A385
:10072900EFF090011DE0FEA3E0FFEF2402FFEE349D
:1007390000FE900117E0FCA3E0FDD3ED9FEC9E5075
:10074900D61218E98006E47E007F0022E47E007F4D
:01075900009F
:01075A00227C
:0318ED00524A005C
:0D0F660041000000420001000041000300B6
:101494007FB07E047D007C00120F857BFF7A0B7980
:1014A4008F1216E07B017A0079B8C003C002C00134
:1014B4007B017A007904900166EBF0A3EAF0A3E9DA
:1014C400F09001697414F090016A7409F0D001D0AD
:0A14D40002D003120E401218F0229D
:100B8F00900146E4F0A3E4F0121887900000EFF014
:100B9F00900000E0FF900001E475F0011202ABAD90
:100BAF00F0FC74482DF58274013CF583EFF0900151
:100BBF0048E0FF7E00EF64404E70099001C2E4F000
:100BCF00A37401F0900001E0FEA3E0FFC3EF9404D3
:100BDF00EE94005003020C7E90014BE0FF7E00EF7D
:100BEF002405FFEE3400FE900001E0FCA3E0FDEFD2
:100BFF006D7002EE6C70787B017A01794890014B31
:100C0F00E0FF7E00EF2404FFEE3400FE90016FEE54
:100C1F00F0A3EFF07D001212B790014BE0FE744C81
:100C2F002EF582E43401F583E0FEEFB506287B0153
:100C3F007A0079B8C003C002C0017B017A017948FC
:100C4F00900182EBF0A3EAF0A3E9F0D001D002D03B
:100C5F000312075B8011900003E004F07BFF7A180A
:0F0C6F0079ED7D021214DE900001E4F0A3E4F0B1
:010C7E002253
:101444007B017A0079B8121623EF70437B017A008E
:1014540079B8C003C002C0017B017A0179529001BE
:1014640088EBF0A3EAF0A3E9F0D001D002D0031294
:10147400094C900152E0FF900153E0FD7B017A0199
:0F1484007956900155E0FE900160EEF0121023B2
:011493002236
:10169800900194EBF0A3EAF0A3E9F0900197EDF044
:1016A800900194E0FBA3E0FAA3E0F9900197E0FD34
:0416B8001214DE2208
:050F73004201C2000074
:0E18540053B3FE43B4017FF47E011215A222AD
:1017F8009001C0EEF0A3EFF01216BC9001C0E0FE1D
:07180800A3E0FF1215CE2240
:10180F00AFD27E00EF7F00FEADDA7C00EE4CFEEF34
:03181F004DFF2258
:100C7F00900173EEF0A3EFF0900175ECF0A3EDF09F
:100C8F00900177E4F0A3E4F0900175E0FEA3E0FF9C
:100C9F00900173E0FCA3E0FDD3ED9FEC9E405C90D0
:100CAF000173E0FEA3E0FF900177EEF0A3EFF09069
:100CBF000175E0FEA3E0FF900177E0FCA3E0FDD318
:100CCF00ED9FEC9E5003020D619001C2E0FEA3E088
:100CDF00FFEF64014E607B900177E0FEA3E0FF120F
:100CEF0015CE7F0A7E001215A2900178E024FFF046
:100CFF00900177E034FFF080B68057900173E0FEEB
:100D0F00A3E0FF900177EEF0A3EFF0900175E0FE06
:100D1F00A3E0FF900177E0FCA3E0FDC3ED9FEC9E05
:100D2F0050309001C2E0FEA3E0FFEF64014E60225D
:100D3F00900177E0FEA3E0FF1215CE7F0A7E00122E
:100D4F0015A2900178E004F07006900177E004F0AE
:0A0D5F0080B99001C2E4F0A3E4F0B3
:010D69002267
:0813F000900198EEF0A3EFF06C
:1013F80090019AE4F0A3E4F0900198E0FEA3E0FFE6
:1014080090019AEEF0A3EFF090019AE0FEA3E0FFBE
:10141800D3EF9405EE9400402290019AE0FEA3E0F9
:10142800FF1215CE7F147E001215A290019BE024B6
:0B143800FFF090019AE034FFF080CD3F
:011443002286
:1017450053B3EF43B41053B3FE43B40153B3F7435C
:0C175500B4085390EF5390FE5390F7221D
:10177C009001CAEFF09001CAE0FF7E00EF64014EC9
:0A178C007004439010225390EF22E6
:0418DD004390012211
:0418E1005390FE2200
:0418E5004390082202
:0418E9005390F722FF
:1000260043B12053B2DF43E101C2EF53E8FF43E897
:050036000543F6102255
:09189300C2EF43E84030EFFD22F2
:10132500900179E4F0A3E4F090017BE4F0A3E4F00C
:1013350090017DE4F0A3E4F0121893E5C2540FFF89
:101345007E00900179EEF0A3EFF0AFC37E0090012F
:101355007BEEF0A3EFF090017BE0FEA3E0FFEFC48E
:10136500F8540FC868FFEEC454F048FE900179E0C8
:10137500FCA3E0FDEE4CFEEF4DFF90017DEEF0A3EA
:0A138500EFF090017DE0FEA3E0FF11
:01138F00223B
:1015A2009001C4EEF0A3EFF09001C4E0FEA3E0FFCF
:1015B200EF4E60177FE87E031215659001C5E024A7
:0C15C200FFF09001C4E034FFF080DD2257
:0815650090019CEEF0A3EFF0F1
:10156D0090019CE0FCA3E0FDE412004312007C908E
:10157D00019EEEF0A3EFF090019EE0FEA3E0FFEFE1
:10158D004E60110090019FE024FFF090019EE03429
:04159D00FFF080E3F8
:0115A1002227
:1016BC0053B3FB53B4FB43DE0153DF3F53DFEFD295
:1016CC00DC538EBF43DF0353DFFB75D60075D100AF
:0416DC0075D9852215
:1015CE009001C6EEF0A3EFF0C2DF9001C6E0FEA3DD
:1015DE00E0FF7F00EEFF7E008FD29001C6E0FEA3FB
:0C15EE00E0FFEF54FFF5DAD2DED2DF227E
:060F78004301AD00000082
:100F85009001A012046253B1BF53B2BF53B17F5356
:100F9500B27F9001A0E0F8A3E0F9A3E0FAA3E0FB9B
:100FA5007F407E427D0F7C001203AFA804A905AAED
:100FB50006AB07C374FF9BFF74FF9AFEE499FDE43B
:100FC50098FC780812044F8FC69001A0E0F8A3E0C2
:100FD500F9A3E0FAA3E0FB7F407E427D0F7C00127F
:100FE50003AFA804A905AA06AB07C374FF9BFF744A
:100FF500FF9AFEE499FDE498FCEF54FFFFEE5400E0
:10100500FEED5400FDEC5400FC8FC57598704387C8
:0E1015008053C4F843C42043C4081218F322C9
:0318F000D2AC2255
:0318F300C2AC2262
:050003009001C8EFF0C0
:10000800C2999001C8E0FFEF64FFFF9001C9EFF0CB
:0A0018009001C8E0FF8F993099FDB8
:0100220022BB
:1014DE0090018BEBF0A3EAF0A3E9F090018EEDF012
:1014EE0090018FE4F090018EE0FF90018FE0FEEE10
:1014FE00C39F502490018BE0FBA3E0FAA3E0F99088
:10150E00018FE0FF8F827583001201C2FF1200036C
:08151E0090018FE004F080CD84
:0115260022A2
:0B1887009001CBE599F09001CBE0FF51
:011892002233
:1016E0009001AAEBF0A3EAF0A3E9F09001AAE0FBD5
:1016F000A3E0FAA3E0F99001ADEBF0A3EAF0A3E9CF
:02170000F022D5
:0300230002123D89
:10123D00C0E0C0F0C083C082C0D075D000C000C077
:10124D0001C002C003C004C005C006C00730983AF3
:10125D00C2987B007A007900C003C002C0019001E2
:10126D00ADE0FBA3E0FAA3E0F9D082D083D0E06B30
:10127D007008E965827003EA6583600E9001ADE048
:10128D00FBA3E0FAA3E0F9120503309902C299D04D
:10129D0007D006D005D004D003D002D001D000D0A5
:0A12AD00D0D082D083D0F0D0E03220
:060F7E004301B300000076
:1017960043B38053B47F43E90143E98043EA80536E
:0A17A600EB7F439B02D2AFD29722E3
:09189C0053B3DF43B420C29522CE
:101702009001B0EBF0A3EAF0A3E9F09001B0E0FBA6
:10171200A3E0FAA3E0F99001B3EBF0A3EAF0A3E9A6
:02172200F022B3
:03003B000211C2ED
:1011C200C0E0C0F0C083C082C0D075D000C000C0F3
:1011D20001C002C003C004C005C006C00753EC7FB3
:1011E2009000D1E0FFEF70387B007A007900C003F5
:1011F200C002C0019001B3E0FBA3E0FAA3E0F9D082
:1012020082D083D0E06B7008E965827003EA65835F
:10121200600E9001B3E0FBA3E0FAA3E0F91205032C
:10122200D007D006D005D004D003D002D001D00020
:0B123200D0D0D082D083D0F0D0E032CA
:100E4000900163EBF0A3EAF0A3E9F0900163E0FB0B
:100E5000A3E0FAA3E0F9758206758300E475F0005B
:100E6000120346900163E0FBA3E0FAA3E0F9758268
:100E700008758300E475F000120346900163E0FBFF
:100E8000A3E0FAA3E0F9758205758300E41202225B
:100E900090016AE0FF900163E0FBA3E0FAA3E0F9B0
:100EA000758203758300EF120222900169E0FF90C2
:100EB0000163E0FBA3E0FAA3E0F975820475830007
:100EC000EF120222900166E0FBA3E0FAA3E0F9C072
:100ED00003C002C001900163E0FBA3E0FAA3E0F9C4
:040EE00012048E2248
:10075B0090017FEBF0A3EAF0A3E9F090017FE0FBBF
:10076B00A3E0FAA3E0F912172490017FE0FBA3E0CA
:10077B00FAA3E0F97582047583001201C2FEEFC380
:10078B009E500302083C90017FE0FBA3E0FAA3E03C
:10079B00F97582047583001201C2FF90017FE0FBA3
:1007AB00A3E0FAA3E0F97582037583001201C2FE80
:1007BB00EE8FF0A4FFAEF090017FE0FBA3E0FAA375
:1007CB00E0F97582087583001202C1FDACF0C3ED30
:1007DB009FEC9E401890017FE0FBA3E0FAA3E0F9A9
:1007EB00758208758300E475F00012034690017F53
:1007FB00E0FBA3E0FAA3E0F9758203758300120115
:10080B00C2FF7E0090017FE0FBA3E0FAA3E0F97545
:10081B008208758300EE8FF01202F990017FE0FBE6
:10082B00A3E0FAA3E0F975820575830074FF12014A
:10083B00EF90017FE0FBA3E0FAA3E0F9758204756A
:10084B0083001201C2FF90017FE0FBA3E0FAA3E05B
:10085B00F97582037583001201C2FEEE8FF0A4FFBF
:10086B00AEF090017FE0FBA3E0FAA3E0F9758206FE
:10087B007583001202C1FDACF0C3ED9FEC9E4018D6
:10088B0090017FE0FBA3E0FAA3E0F9758206758384
:10089B0000E475F00012034690017FE0FBA3E0FA41
:1008AB00A3E0F97582037583001201C2FF7E0090ED
:1008BB000182E0FBA3E0FAA3E0F9C003C002C00190
:1008CB0090017FE0FBA3E0FAA3E0F9758206758344
:1008DB00001202C1FDACF090017FE0FBA3E0FAA394
:1008EB00E0F912046EE92DF9EA3CFAA801AC02AD6D
:1008FB0003D001D002D00312018390017FE0FBA350
:10090B00E0FAA3E0F97582037583001201C2FF7E42
:10091B000090017FE0FBA3E0FAA3E0F97582067576
:10092B008300EE8FF01202F990017FE0FBA3E0FA57
:10093B00A3E0F975820575830074011201EF7F0145
:01094B002289
:10094C00900185EBF0A3EAF0A3E9F0900185E0FBC0
:10095C00A3E0FAA3E0F9121724EF7003020A7B90CC
:10096C000185E0FBA3E0FAA3E0F97582047583002E
:10097C001201C2FF900185E0FBA3E0FAA3E0F97538
:10098C0082037583001201C2FEEE8FF0A4FFAEF05D
:10099C00900185E0FBA3E0FAA3E0F975820875836A
:1009AC00001202C1FDACF0C3ED9FEC9E401890010B
:1009BC0085E0FBA3E0FAA3E0F9758208758300E4F7
:1009CC0075F000120346900185E0FBA3E0FAA3E06A
:1009DC00F97582037583001201C2FF7E00900185B8
:1009EC00E0FBA3E0FAA3E0F975820875830012021C
:1009FC00C1FDACF0900185E0FBA3E0FAA3E0F91295
:100A0C00046EE92DF9EA3CFAC003C002C001900162
:100A1C0088E0FBA3E0FAA3E0F9A801AC02AD03D097
:100A2C0001D002D003120183900185E0FBA3E0FA10
:100A3C00A3E0F97582037583001201C2FF7E00905A
:100A4C000185E0FBA3E0FAA3E0F975820875830049
:100A5C00EE8FF01202F9900185E0FBA3E0FAA3E01F
:100A6C00F975820575830074FF1201EF7F01227FF7
:020A7C00002256
:101623009001B6EBF0A3EAF0A3E9F09001B6E0FB7A
:10163300A3E0FAA3E0F97582057583001201C2FFE6
:09164300EF60037F00227F012209
:101724009001B9EBF0A3EAF0A3E9F09001B9E0FB72
:10173400A3E0FAA3E0F97582057583001201C2FFE4
:011744002282
:1012B70090016BEBF0A3EAF0A3E9F090016EEDF07B
:1012C700900171E4F0900172E4F090016EE0FF90FC
:1012D7000172EFF0900172E0FF7E0090016FE0FC79
:1012E700A3E0FDC3EF9DEE9C502E900171E0FF90AF
:1012F700016BE0FBA3E0FAA3E0F9900172E0FE8E38
:10130700827583001201C2FEEF6EFF900171EFF04C
:0D131700900172E004F080BC900171E0FFD5
:0113240022A6
:10003E0075F020800E75F010800575F0087D007E3D
:10004E00007F003392D530D503120441EC334010BB
:10005E00EF33FFEE33FEED33FDEC33FCD5F0ED2246
:0E006E00E5F0247EA2D513CC92E7CDCEFF2282
:10007C00EDD2E7CD33EC3392D524814006E4FFFE7C
:10008C00FDFC22FCE4CFCECDCC24E0501174FF80DB
:10009C00EDC3CC13CCCD13CDCE13CECF13CF047078
:0700AC00F030D5DE02044133
:1010C10002186FE493A3F8E493A34003F68001F2BE
:1010D10008DFF48029E493A3F85407240CC8C33330
:1010E100C4540F4420C8834004F456800146F6DFFF
:1010F100E4800B0102040810204080900EE4E47E9D
:10110100019360BCA3FF543F30E509541FFEE493F3
:10111100A360010ECF54C025E060A840B8E493A3BA
:10112100FAE493A3F8E493A3C8C582C8CAC583CAE5
:10113100F0A3C8C582C8CAC583CADFE9DEE780BE9D
:010F8400006C
:1000B300E709F608DFFA8046E709F208DFFA803E2F
:1000C30088828C83E709F0A3DFFA8032E309F6081C
:1000D300DFFA8078E309F208DFFA807088828C8384
:1000E300E309F0A3DFFA806489828A83E0A3F60838
:1000F300DFFA805889828A83E0A3F208DFFA804C12
:1001030080D280FA80C680D4806980F280338010E8
:1001130080A680EA809A80A880DA80E280CA803351
:1001230089828A83ECFAE493A3C8C582C8CCC583C9
:10013300CCF0A3C8C582C8CCC583CCDFE9DEE78099
:100143000D89828A83E493A3F608DFF9ECFAA9F018
:10015300EDFB2289828A83ECFAE0A3C8C582C8CC6E
:10016300C583CCF0A3C8C582C8CCC583CCDFEADE87
:10017300E880DB89828A83E493A3F208DFF980CCE9
:1001830088F0EF60010E4E60C388F0ED2402B404E2
:100193000050B9F582EB2402B4040050AF23234589
:0601A300822390010373AA
:1001A900BB010689828A83E0225002E722BBFE0254
:0901B900E32289828A83E4932287
:1001C200BB010CE58229F582E5833AF583E02250F2
:1001D20006E92582F8E622BBFE06E92582F8E2223C
:0D01E200E58229F582E5833AF583E4932256
:1001EF00BB010FF8E58229F582E5833AF583E02814
:1001FF00F0225009C58229F8E58226F622BBFE09B6
:10020F00C58229F8E22582F222F8EA2583F583E9EF
:03021F00932822FF
:10022200F8BB010DE58229F582E5833AF583E8F012
:10023200225006E92582C8F622BBFE05E92582C8BE
:02024200F222A6
:10024400EF8DF0A4A8F0CF8CF0A428CE8DF0A42ECE
:02025400FE2288
:10025600BC000BBE0029EF8DF084FFADF022E4CC8C
:10026600F875F008EF2FFFEE33FEEC33FCEE9DEC55
:10027600984005FCEE9DFE0FD5F0E9E4CEFD22ED9B
:10028600F8F5F0EE8420D21CFEADF075F008EF2FE5
:10029600FFED33FD4007985006D5F0F222C398FDD6
:0502A6000FD5F0EA2273
:1002AB00A3F8E0C5F025F0F0E58215827002158306
:0602BB00E0C838F0E82263
:1002C100BB0110E58229F582E5833AF583E0F5F07B
:1002D100A3E0225009E92582F886F008E622BBFE58
:1002E1000AE92582F8E2F5F008E222E5832AF5839E
:0802F100E993F5F0A3E9932263
:1002F900BB010DC58229C582C5833AC5830205099B
:100309005011C58229F808E5F026F618F5F0E582BE
:1003190036F622BBFE11C58229F808E225F0F5F070
:10032900F218E23582F222F8E58229F582E5832A7C
:0D033900F58374019325F0F5F0E49338226C
:10034600F8BB0111E58229F582E5833AF583E8F0E9
:10035600E5F0A3F0225009E92582C8F608A6F022A6
:0D036600BBFE09E92582C8F2E5F008F2228D
:1003730075F008758200EF2FFFEE33FECD33CDCC41
:1003830033CCC58233C5829BED9AEC99E5829840C4
:100393000CF582EE9BFEED9AFDEC99FC0FD5F0D6A1
:1003A300E4CEFBE4CDFAE4CCF9A88222B800C1B9CB
:1003B3000059BA002DEC8BF084CFCECDFCE5F0CB09
:1003C300F97818EF2FFFEE33FEED33FDEC33FCEB42
:1003D30033FB10D703994004EB99FB0FD8E5E4F9FD
:1003E300FA227818EF2FFFEE33FEED33FDEC33FCEA
:1003F300C933C910D7059BE99A4007EC9BFCE99ADE
:10040300F90FD8E0E4C9FAE4CCFB2275F010EF2F22
:10041300FFEE33FEED33FDCC33CCC833C810D70722
:100423009BEC9AE899400AED9BFDEC9AFCE899F85D
:0E0433000FD5F0DAE4CDFBE4CCFAE4C8F922F0
:0E044100C3E49FFFE49EFEE49DFDE49CFC22CC
:10044F00E8600FECC313FCED13FDEE13FEEF13FF8B
:03045F00D8F122AF
:0C046200ECF0A3EDF0A3EEF0A3EFF0220D
:10046E00BB010789828A830205315005E9F802052E
:10047E001FBBFE05E9F802054389828A83020555F2
:10048E00BB011A89828A83D0F0D0E0F8D0E0F9D08F
:10049E00E0FAD0E0FBE8C0E0C0F002053A5016E901
:1004AE00F8D083D082D0E0F9D0E0FAD0E0FBC08261
:1004BE00C083020528BBFE16E9F8D083D082D0E0B7
:0F04CE00F9D0E0FAD0E0FBC082C08302054C22D7
:1004DD00D083D082F8E4937012740193700DA3A3AE
:1004ED0093F8740193F5828883E4737402936860C2
:0604FD00EFA3A3A380DFC2
:060503008A838982E47383
:10050900C5F0F8A3E028F0C5F0F8E582158270027D
:060519001583E038F0221A
:09051F00E6FB08E6FA08E6F92201
:09052800EBF608EAF608E9F622F8
:09053100E0FBA3E0FAA3E0F922CB
:09053A00EBF0A3EAF0A3E9F022C2
:09054300E2FB08E2FA08E2F922E9
:09054C00EBF208EAF208E9F222E0
:0C055500E493FB740193FA740293F92202
:00000001FF
