:03000000020FE705
:0C0FE700787FE4F6D8FD75810702102E1B
:0A0D6D004200EA00504200E8000ACC
:0916E5001215E112172F80FE22FC
:100D7700410097004100990041009D0041009F00FC
:100D87004100950041009B004100980041009A00F6
:100D970041009C0041009E004100940041009601E3
:100F55009000B3EFF09000B4EDF09000B5EBF0A386
:050F6500EAF0A3E9F031
:100F6A009000B4E0FF9000B9EFF09000B8E0FF9075
:100F7A0000BAEFF09000B3E0FFEF1204DD0FE30FC9
:100F8A000FA9100FAD200FB1300FB5400FB9500F98
:100F9A00C8700FCC730FD0800FDF9000000FE612DD
:100FAA0016F7221216FE221217052212170C229089
:100FBA0000B5E0FBA3E0FAA3E0F91214CF2212175E
:100FCA00132212171A229000B5E0FBA3E0FAA3E05D
:0C0FDA00F91214F5221217212212172818
:010FE60022E8
:0716F7009000977401F0223E
:0716FE009000997401F02235
:0717050090009D7401F02229
:07170C0090009F7401F02220
:1014CF009000FCEBF0A3EAF0A3E9F0900095740113
:1014DF00F09000FCE0FBA3E0FAA3E0F91201A9FFF2
:0614EF00900096EFF022D0
:0717130090009B7401F0221D
:07171A009000987401F02219
:1014F5009000FFEBF0A3EAF0A3E9F090009A7401E5
:10150500F09000FFE0FBA3E0FAA3E0F91201A9FFC8
:06151500900094EFF022AB
:0717210090009C7401F0220E
:0717280090009E7401F02205
:100DA70046001620A100010A8A46002F30A1000143
:100DB7000A9A46000040A100010AEA46000750A12E
:100DC70000010AFA46002270A1000172A246001033
:100DD70073A1000175A646001C80A100010A2A47DD
:100DE700002890A100022171634600360FA100017F
:020DF7000AA54B
:100A7E00900097E0FF7E00EF64014E606B9000994E
:100A8E00E0FF7E00EF64014E605E90009DE0FF7E11
:100A9E0000EF64014E605190009FE0FF7E00EF6416
:100AAE00014E6044900095E0FF7E00EF64014E60C1
:100ABE003790009BE0FF7E00EF64014E602A9000AD
:100ACE0098E0FF7E00EF64014E601D90009AE0FFFB
:100ADE007E00EF64014E601090009CE0FF7E00EF00
:100AEE0064014E6003020B8E900097E0FF7E00EFD4
:100AFE0064014E700412003922900099E0FF7E00CE
:100B0E00EF64014E70041216472290009DE0FF7EA6
:100B1E0000EF64014E70041215A62290009FE0FFB4
:100B2E007E00EF64014E700412167522900095E05F
:100B3E00FF7E00EF64014E70041216AE2290009BF1
:100B4E00E0FF7E00EF64014E700412169D229000AD
:100B5E0098E0FF7E00EF64014E700412173622906B
:100B6E00009AE0FF7E00EF64014E700412141B2207
:100B7E0090009CE0FF7E00EF64014E70031212475E
:010B8E002244
:0100390022A4
:10164700900099E4F07B017A0079167D0612151B4C
:071657009000357401F02240
:1015A60090009DE4F07F011215FC7D0A7C007F050A
:0F15B6007E00120C8290000DE4F0A3740AF02264
:1016750090009FE4F090000DE0FEA3E0FF1212A79A
:061685007F001215FC229B
:1016AE00900095E4F0900096E0FF7E001205612216
:10169D0090009BE4F07B017A0079227D0612151BE8
:0116AD00221A
:06173600900098E4F0228F
:10141B0090009AE4F0900094E0FF7E0090010EEEB5
:10142B00F0A3EFF090000DE0FEA3E0FF90010EE0C3
:10143B00FCA3E0FD120C8212002690000DEEF0A32F
:02144B00EFF0C0
:01144D00227C
:1012470090009CE4F0900035E0FF7E00EF64014ED3
:10125700700890002C7421F0800690002C7422F006
:1012670090000FE0FF7E00EF64014E700890002DA4
:101277007471F0800690002D7472F07B017A00790A
:10128700289000C7E4F0A37406F07D0012116E9059
:10129700002EEFF07B017A0079287D0712151B22BB
:101616001216BE1215C57F0A7E0012165E12173C00
:0916260012134B1215E1D2AF22A0
:10162F000001000200030004000500060007000887
:08163F000009000A000B000C79
:10107300900110E4F0A3E4F0900110E0FEA3E0FF80
:10108300C3EF940CEE6480948050659000E8E0FE1A
:10109300A3E0FF9000EAE0FCA3E0FDC3ED9FFFECBB
:1010A3009EFE900110E0FCA3E0FD1202447C007D53
:1010B3000C1202569000E8E0FCA3E0FDEF2DFDEEDC
:1010C3003CFC900110E0FEA3E0FFEF25E0FFEE33D0
:1010D300FE747A2FF58274003EF583ECF0A3EDF0F5
:1010E300900111E004F07006900110E004F0808894
:0110F30022DA
:04173C0012168B22D4
:0805610090005DEEF0A3EFF045
:100569009000617402F07BFF7A16792FC003C002F4
:10057900C0017B017A007962A801AC02AD03D00108
:10058900D002D0037E007F1812018390005DE0FE47
:10059900A3E0FFD3EF940CEE940040047F018002A6
:1005A9007F0090005DE0FCA3E0FDC3ED9401EC94B5
:1005B9000050047E0180027E00EE4FFFEF60057E51
:1005C900FF7FFF2212107390005FE4F0A3E4F09024
:1005D900005FE0FEA3E0FFC3EF940CEE648094801B
:1005E900506690005FE0FEA3E0FFEF25E0FFEE33E9
:1005F900FE74622FF58274003EF583E0FEA3E0FFEE
:1006090090005DE0FCA3E0FDEDB5072CECB50628F4
:1006190090005FE0FEA3E0FFEF25E0FFEE33FE74FC
:100629007A2FF58274003EF583E0FEA3E0FF900087
:100639005DEEF0A3EFF08010900060E004F070062A
:1006490090005FE004F080871211DC900092EEF0D8
:10065900A3EFF090005DE0FEA3E0FF900092E0FCC4
:10066900A3E0FDC3ED9FEC9E5007900061E4F0808C
:100679004A90005DE0FEA3E0FFEF24FEFFEE34FFA9
:10068900FE900092E0FCA3E0FDC3ED9FEC9E4025A7
:1006990090005DE0FEA3E0FFEF2402FFEE3400FED0
:1006A900900092E0FCA3E0FDD3ED9FEC9E5006E4A0
:1006B9007E007F00229000617401F0900061E0FFEC
:1006C900EF1204DD06D7000713010000074F1217C8
:1006D9004C7F0A7E0012144E1217401211DC900052
:1006E90092EEF0A3EFF090005DE0FEA3E0FFEF24AF
:1006F900FEFFEE34FFFE900092E0FCA3E0FDC3EDA7
:100709009FEC9E40D612174480421217447F0A7EFE
:100719000012144E1217481211DC900092EEF0A349
:10072900EFF090005DE0FEA3E0FFEF2402FFEE345E
:1007390000FE900092E0FCA3E0FDD3ED9FEC9E50FB
:10074900D612174C8006E47E007F0022E47E007FEB
:01075900009F
:01075A00227C
:03175000524A00FA
:0E0DF90041003C0042003D000042003F00006F
:10134B007F807E257D007C00120EB77BFF7A0B79A8
:10135B008F1215637B017A007953C003C002C00161
:10136B007B017A0079419000BEEBF0A3EAF0A3E990
:10137B00F09000C17402F09000C27409F0D001D05B
:0A138B0002D003120E1312175322B2
:100B8F001216D990003CEFF090003CE0FF90003D32
:100B9F00E475F0011202ABADF0FC74A02DF5827478
:100BAF00003CF583EFF09000A0E0FF7E00EF644083
:100BBF004E7009900114E4F0A37401F090003DE031
:100BCF00FEA3E0FFC3EF9404EE94005003020C81E8
:100BDF009000A3E0FF7E00EF2405FFEE3400FE90AF
:100BEF00003DE0FCA3E0FDEF6D7002EE6C600302D0
:100BFF000C817B017A0079A09000A3E0FF7E00EFCB
:100C0F002404FFEE3400FE9000C7EEF0A3EFF07D5A
:100C1F000012116E9000A3E0FE74A42EF582E4344E
:100C2F0000F583E0FEEFB506287B017A007953C00B
:100C3F0003C002C0017B017A0079A09000DAEBF0CB
:100C4F00A3EAF0A3E9F0D001D002D00312075B8032
:100C5F0019900040E004F0700690003FE004F07B34
:100C6F00FF7A1779507D0212139590003DE4F0A39F
:020C7F00E4F09F
:010C81002250
:1012FB007B017A0079531214A6EF70437B017A00BD
:10130B007953C003C002C0017B017A0079AA900017
:10131B00E0EBF0A3EAF0A3E9F0D001D002D0031286
:10132B00094C9000AAE0FF9000ABE0FD7B017A0036
:0F133B0079AE9000ADE0FE9000B8EEF0120F55C5
:01134A002280
:10151B009000ECEBF0A3EAF0A3E9F09000EFEDF014
:10152B009000ECE0FBA3E0FAA3E0F99000EFE0FD04
:04153B0012139522D0
:050E070042011400008F
:0E16BE0053B3FE43B4017FF47E0112144E229A
:10165E00900112EEF0A3EFF012153F900112E0FE92
:07166E00A3E0FF12147A2231
:10002600AFD47E00EF7F00FEADDC7C00EE4CFEEF31
:030036004DFF2259
:100C82009000CBEEF0A3EFF09000CDECF0A3EDF0EE
:100C92009000CFE4F0A3E4F09000CDE0FEA3E0FFEB
:100CA2009000CBE0FCA3E0FDD3ED9FEC9E405C9076
:100CB20000CBE0FEA3E0FF9000CFEEF0A3EFF090B8
:100CC20000CDE0FEA3E0FF9000CFE0FCA3E0FDD367
:100CD200ED9FEC9E5003020D64900114E0FEA3E030
:100CE200FFEF64014E607B9000CFE0FEA3E0FF12B5
:100CF200147A7F147E0012144E9000D0E024FFF08C
:100D02009000CFE034FFF080B680579000CBE0FE39
:100D1200A3E0FF9000CFEEF0A3EFF09000CDE0FE55
:100D2200A3E0FF9000CFE0FCA3E0FDC3ED9FEC9EAB
:100D32005030900114E0FEA3E0FFEF64014E602208
:100D42009000CFE0FEA3E0FF12147A7F147E00121F
:100D5200144E9000D0E004F070069000CFE004F052
:0A0D620080B9900114E4F0A3E4F05E
:010D6C002264
:0812A7009000F0EEF0A3EFF05F
:1012AF009000F2E4F0A3E4F09000F0E0FEA3E0FF82
:1012BF009000F2EEF0A3EFF09000F2E0FEA3E0FF5B
:1012CF00D3EF9405EE940040229000F2E0FEA3E0ED
:1012DF00FF12147A7F147E0012144E9000F3E02454
:0B12EF00FFF09000F2E034FFF080CD33
:0112FA0022D1
:1015C50053B3DF43B42053B1FE43B20153B1FD43DE
:0C15D500B2025390DF5380FE5380FD22D1
:1015FC0090011CEFF090011CE0FF7E00EF64014EA7
:0A160C007004439020225390DF2267
:0417400043800122BF
:041744005380FE22AE
:0417480043800222B6
:04174C005380FD22A7
:10168B0043B38053B47F43E101C2EF53E8F043F619
:02169B0001222A
:0916EE00C2EF43E84030EFFD2299
:1011DC009000D1E4F0A3E4F09000D3E4F0A3E4F0A9
:1011EC009000D5E4F0A3E4F01216EEE5C2540FFF24
:1011FC007E009000D1EEF0A3EFF0AFC37E00900024
:10120C00D3EEF0A3EFF09000D3E0FEA3E0FFEFC429
:10121C00F8540FC868FFEEC454F048FE9000D1E0BB
:10122C00FCA3E0FDEE4CFEEF4DFF9000D5EEF0A3DD
:0A123C00EFF09000D5E0FEA3E0FF04
:011246002285
:10144E00900116EEF0A3EFF0900116E0FEA3E0FF80
:10145E00EF4E60177FE87E031213DE900117E02433
:0C146E00FFF0900116E034FFF080DD225A
:0813DE009000F4EEF0A3EFF023
:1013E6009000F4E0FCA3E0FDE412004312007C90C0
:1013F60000F6EEF0A3EFF09000F6E0FEA3E0FFEFBC
:101406004E6011009000F7E024FFF09000F6E03403
:04141600FFF080E380
:01141A0022AF
:10153F0053B3FE53B4FE43DE0453DF3F53DFEFD20A
:10154F00DC538EBF43DF0353DFFB75D60075D1002D
:04155F0075D9852293
:10147A00900118EEF0A3EFF0C2DF900118E0FEA38E
:10148A00E0FF7F00EEFF7E008FD4900118E0FEA3FC
:0C149A00E0FFEF54FFF5DCD2DED2DF22D1
:060E0C0043010500000097
:100EB7009000F812046253B1BF53B2BF53B17F53CE
:100EC700B27F9000F8E0F8A3E0F9A3E0FAA3E0FB13
:100ED7007F407E427D0F7C001203AFA804A905AABC
:100EE70006AB07C374FF9BFF74FF9AFEE499FDE40A
:100EF70098FC780812044F8FC69000F8E0F8A3E03A
:100F0700F9A3E0FAA3E0FB7F407E427D0F7C00124D
:100F170003AFA804A905AA06AB07C374FF9BFF7418
:100F2700FF9AFEE499FDE498FCEF54FFFFEE5400AE
:100F3700FEED5400FDEC5400FC8FC5759870438797
:0E0F47008053C4F843C42043C4081217562236
:03175300D2AC22F3
:03175600C2AC2200
:0500030090011AEFF06E
:10000800C29990011AE0FFEF64FFFF90011BEFF027
:0A00180090011AE0FF8F993099FD66
:0100220022BB
:101395009000E3EBF0A3EAF0A3E9F09000E6EDF0AE
:1013A5009000E7E4F09000E6E0FF9000E7E0FEEE55
:1013B500C39F50249000E3E0FBA3E0FAA3E0F9907B
:1013C50000E7E0FF8F827583001201C2FF12000360
:0813D5009000E7E004F080CD78
:0113DD0022ED
:0B16D90090011DE599F090011DE0FF5D
:0116E40022E3
:10156300900102EBF0A3EAF0A3E9F0900102E0FBA3
:10157300A3E0FAA3E0F9900105EBF0A3EAF0A3E9F5
:02158300F02254
:030023000210F4D4
:1010F400C0E0C0F0C083C082C0D075D000C000C0C2
:1011040001C002C003C004C005C006C00730983A3D
:10111400C2987B007A007900C003C002C00190012C
:1011240005E0FBA3E0FAA3E0F9D082D083D0E06B22
:101134007008E965827003EA6583600E900105E03A
:10114400FBA3E0FAA3E0F9120503309902C299D097
:1011540007D006D005D004D003D002D001D000D0EF
:0A116400D0D082D083D0F0D0E0326A
:1015E10043B30153B4FE43E90143E90453EAFE4323
:0B15F100EB0143E904439B02D2AF2250
:07172F0053B1FD43B2022299
:03003B000216CCDE
:0D16CC00C0D053ECFEA281B39281D0D03289
:100E13009000BBEBF0A3EAF0A3E9F09000BBE0FB8A
:100E2300A3E0FAA3E0F9758206758300E475F00088
:100E33001203469000BBE0FBA3E0FAA3E0F975823E
:100E430008758300E475F0001203469000BBE0FBD5
:100E5300A3E0FAA3E0F9758205758300E412022288
:100E63009000C2E0FF9000BBE0FBA3E0FAA3E0F92F
:100E7300758203758300EF1202229000C1E0FF9098
:100E830000BBE0FBA3E0FAA3E0F9758204758300DD
:100E9300EF1202229000BEE0FBA3E0FAA3E0F9C048
:100EA30003C002C0019000BBE0FBA3E0FAA3E0F99A
:040EB30012048E2275
:10075B009000D7EBF0A3EAF0A3E9F09000D7E0FB11
:10076B00A3E0FAA3E0F91215859000D7E0FBA3E014
:10077B00FAA3E0F97582047583001201C2FEEFC380
:10078B009E500302083C9000D7E0FBA3E0FAA3E0E5
:10079B00F97582047583001201C2FF9000D7E0FB4C
:1007AB00A3E0FAA3E0F97582037583001201C2FE80
:1007BB00EE8FF0A4FFAEF09000D7E0FBA3E0FAA31E
:1007CB00E0F97582087583001202C1FDACF0C3ED30
:1007DB009FEC9E40189000D7E0FBA3E0FAA3E0F952
:1007EB00758208758300E475F0001203469000D7FC
:1007FB00E0FBA3E0FAA3E0F9758203758300120115
:10080B00C2FF7E009000D7E0FBA3E0FAA3E0F975EE
:10081B008208758300EE8FF01202F99000D7E0FB8F
:10082B00A3E0FAA3E0F975820575830074FF12014A
:10083B00EF9000D7E0FBA3E0FAA3E0F97582047513
:10084B0083001201C2FF9000D7E0FBA3E0FAA3E004
:10085B00F97582037583001201C2FEEE8FF0A4FFBF
:10086B00AEF09000D7E0FBA3E0FAA3E0F9758206A7
:10087B007583001202C1FDACF0C3ED9FEC9E4018D6
:10088B009000D7E0FBA3E0FAA3E0F975820675832D
:10089B0000E475F0001203469000D7E0FBA3E0FAEA
:1008AB00A3E0F97582037583001201C2FF7E0090ED
:1008BB0000DAE0FBA3E0FAA3E0F9C003C002C00139
:1008CB009000D7E0FBA3E0FAA3E0F97582067583ED
:1008DB00001202C1FDACF09000D7E0FBA3E0FAA33D
:1008EB00E0F912046EE92DF9EA3CFAA801AC02AD6D
:1008FB0003D001D002D0031201839000D7E0FBA3F9
:10090B00E0FAA3E0F97582037583001201C2FF7E42
:10091B00009000D7E0FBA3E0FAA3E0F9758206751F
:10092B008300EE8FF01202F99000D7E0FBA3E0FA00
:10093B00A3E0F975820575830074011201EF7F0145
:01094B002289
:10094C009000DDEBF0A3EAF0A3E9F09000DDE0FB12
:10095C00A3E0FAA3E0F9121585EF7003020A7B906D
:10096C0000DDE0FBA3E0FAA3E0F9758204758300D7
:10097C001201C2FF9000DDE0FBA3E0FAA3E0F975E1
:10098C0082037583001201C2FEEE8FF0A4FFAEF05D
:10099C009000DDE0FBA3E0FAA3E0F9758208758313
:1009AC00001202C1FDACF0C3ED9FEC9E401890000C
:1009BC00DDE0FBA3E0FAA3E0F9758208758300E49F
:1009CC0075F0001203469000DDE0FBA3E0FAA3E013
:1009DC00F97582037583001201C2FF7E009000DD61
:1009EC00E0FBA3E0FAA3E0F975820875830012021C
:1009FC00C1FDACF09000DDE0FBA3E0FAA3E0F9123E
:100A0C00046EE92DF9EA3CFAC003C002C001900063
:100A1C00E0E0FBA3E0FAA3E0F9A801AC02AD03D03F
:100A2C0001D002D0031201839000DDE0FBA3E0FAB9
:100A3C00A3E0F97582037583001201C2FF7E00905A
:100A4C0000DDE0FBA3E0FAA3E0F9758208758300F2
:100A5C00EE8FF01202F99000DDE0FBA3E0FAA3E0C8
:100A6C00F975820575830074FF1201EF7F01227FF7
:020A7C00002256
:1014A600900108EBF0A3EAF0A3E9F0900108E0FB55
:1014B600A3E0FAA3E0F97582057583001201C2FF65
:0914C600EF60037F00227F012288
:1015850090010BEBF0A3EAF0A3E9F090010BE0FB6F
:10159500A3E0FAA3E0F97582057583001201C2FF85
:0115A5002223
:10116E009000C3EBF0A3EAF0A3E9F09000C6EDF017
:10117E009000C9E4F09000CAE4F09000C6E0FF9041
:10118E0000CAEFF09000CAE0FF7E009000C7E0FCBE
:10119E00A3E0FDC3EF9DEE9C502E9000C9E0FF90A2
:1011AE0000C3E0FBA3E0FAA3E0F99000CAE0FE8ED4
:1011BE00827583001201C2FEEF6EFF9000C9EFF040
:0D11CE009000CAE004F080BC9000C9E0FF72
:0111DB0022F1
:10003E0075F020800E75F010800575F0087D007E3D
:10004E00007F003392D530D503120441EC334010BB
:10005E00EF33FFEE33FEED33FDEC33FCD5F0ED2246
:0E006E00E5F0247EA2D513CC92E7CDCEFF2282
:10007C00EDD2E7CD33EC3392D524814006E4FFFE7C
:10008C00FDFC22FCE4CFCECDCC24E0501174FF80DB
:10009C00EDC3CC13CCCD13CDCE13CECF13CF047078
:0700AC00F030D5DE02044133
:100FF3000216E5E493A3F8E493A34003F68001F219
:1010030008DFF48029E493A3F85407240CC8C333FE
:10101300C4540F4420C8834004F456800146F6DFCD
:10102300E4800B0102040810204080900D6DE47EE3
:10103300019360BCA3FF543F30E509541FFEE493C2
:10104300A360010ECF54C025E060A840B8E493A389
:10105300FAE493A3F8E493A3C8C582C8CAC583CAB4
:10106300F0A3C8C582C8CAC583CADFE9DEE780BE6C
:010E120000DF
:1000B300E709F608DFFA8046E709F208DFFA803E2F
:1000C30088828C83E709F0A3DFFA8032E309F6081C
:1000D300DFFA8078E309F208DFFA807088828C8384
:1000E300E309F0A3DFFA806489828A83E0A3F60838
:1000F300DFFA805889828A83E0A3F208DFFA804C12
:1001030080D280FA80C680D4806980F280338010E8
:1001130080A680EA809A80A880DA80E280CA803351
:1001230089828A83ECFAE493A3C8C582C8CCC583C9
:10013300CCF0A3C8C582C8CCC583CCDFE9DEE78099
:100143000D89828A83E493A3F608DFF9ECFAA9F018
:10015300EDFB2289828A83ECFAE0A3C8C582C8CC6E
:10016300C583CCF0A3C8C582C8CCC583CCDFEADE87
:10017300E880DB89828A83E493A3F208DFF980CCE9
:1001830088F0EF60010E4E60C388F0ED2402B404E2
:100193000050B9F582EB2402B4040050AF23234589
:0601A300822390010373AA
:1001A900BB010689828A83E0225002E722BBFE0254
:0901B900E32289828A83E4932287
:1001C200BB010CE58229F582E5833AF583E02250F2
:1001D20006E92582F8E622BBFE06E92582F8E2223C
:0D01E200E58229F582E5833AF583E4932256
:1001EF00BB010FF8E58229F582E5833AF583E02814
:1001FF00F0225009C58229F8E58226F622BBFE09B6
:10020F00C58229F8E22582F222F8EA2583F583E9EF
:03021F00932822FF
:10022200F8BB010DE58229F582E5833AF583E8F012
:10023200225006E92582C8F622BBFE05E92582C8BE
:02024200F222A6
:10024400EF8DF0A4A8F0CF8CF0A428CE8DF0A42ECE
:02025400FE2288
:10025600BC000BBE0029EF8DF084FFADF022E4CC8C
:10026600F875F008EF2FFFEE33FEEC33FCEE9DEC55
:10027600984005FCEE9DFE0FD5F0E9E4CEFD22ED9B
:10028600F8F5F0EE8420D21CFEADF075F008EF2FE5
:10029600FFED33FD4007985006D5F0F222C398FDD6
:0502A6000FD5F0EA2273
:1002AB00A3F8E0C5F025F0F0E58215827002158306
:0602BB00E0C838F0E82263
:1002C100BB0110E58229F582E5833AF583E0F5F07B
:1002D100A3E0225009E92582F886F008E622BBFE58
:1002E1000AE92582F8E2F5F008E222E5832AF5839E
:0802F100E993F5F0A3E9932263
:1002F900BB010DC58229C582C5833AC5830205099B
:100309005011C58229F808E5F026F618F5F0E582BE
:1003190036F622BBFE11C58229F808E225F0F5F070
:10032900F218E23582F222F8E58229F582E5832A7C
:0D033900F58374019325F0F5F0E49338226C
:10034600F8BB0111E58229F582E5833AF583E8F0E9
:10035600E5F0A3F0225009E92582C8F608A6F022A6
:0D036600BBFE09E92582C8F2E5F008F2228D
:1003730075F008758200EF2FFFEE33FECD33CDCC41
:1003830033CCC58233C5829BED9AEC99E5829840C4
:100393000CF582EE9BFEED9AFDEC99FC0FD5F0D6A1
:1003A300E4CEFBE4CDFAE4CCF9A88222B800C1B9CB
:1003B3000059BA002DEC8BF084CFCECDFCE5F0CB09
:1003C300F97818EF2FFFEE33FEED33FDEC33FCEB42
:1003D30033FB10D703994004EB99FB0FD8E5E4F9FD
:1003E300FA227818EF2FFFEE33FEED33FDEC33FCEA
:1003F300C933C910D7059BE99A4007EC9BFCE99ADE
:10040300F90FD8E0E4C9FAE4CCFB2275F010EF2F22
:10041300FFEE33FEED33FDCC33CCC833C810D70722
:100423009BEC9AE899400AED9BFDEC9AFCE899F85D
:0E0433000FD5F0DAE4CDFBE4CCFAE4C8F922F0
:0E044100C3E49FFFE49EFEE49DFDE49CFC22CC
:10044F00E8600FECC313FCED13FDEE13FEEF13FF8B
:03045F00D8F122AF
:0C046200ECF0A3EDF0A3EEF0A3EFF0220D
:10046E00BB010789828A830205315005E9F802052E
:10047E001FBBFE05E9F802054389828A83020555F2
:10048E00BB011A89828A83D0F0D0E0F8D0E0F9D08F
:10049E00E0FAD0E0FBE8C0E0C0F002053A5016E901
:1004AE00F8D083D082D0E0F9D0E0FAD0E0FBC08261
:1004BE00C083020528BBFE16E9F8D083D082D0E0B7
:0F04CE00F9D0E0FAD0E0FBC082C08302054C22D7
:1004DD00D083D082F8E4937012740193700DA3A3AE
:1004ED0093F8740193F5828883E4737402936860C2
:0604FD00EFA3A3A380DFC2
:060503008A838982E47383
:10050900C5F0F8A3E028F0C5F0F8E582158270027D
:060519001583E038F0221A
:09051F00E6FB08E6FA08E6F92201
:09052800EBF608EAF608E9F622F8
:09053100E0FBA3E0FAA3E0F922CB
:09053A00EBF0A3EAF0A3E9F022C2
:09054300E2FB08E2FA08E2F922E9
:09054C00EBF208EAF208E9F222E0
:0C055500E493FB740193FA740293F92202
:00000001FF
