:03000000020D5797
:0C0D5700787FE4F6D8FD758107020D9E40
:09000E004200013A984100000093
:1010EA001212B6900000EFF07B017A007909C00372
:1010FA00C002C0017B017A007900900024EBF0A3C2
:0E110A00EAF0A3E9F0D001D002D00312079B57
:0111180022B4
:100FFD00900050743AF0A37498F01212A87FE87E16
:10100D000312111912124B7F011212677FE87E0332
:10101D001211197F987E3A1212817D107C277F98CC
:10102D007E3A120ABE7D987C3A7F107E27120ABE48
:02103D0080E849
:01103F00228E
:0E12A80053B3FE43B4017FF47E0112111922EC
:10128100900064EEF0A3EFF0121298900064E0FE7B
:07129100A3E0FF12107D2213
:050ECD0090002DEFF084
:100ED20090002DE0FCE41202CE7B007A00792078AB
:100EE2004112022790002E12069C7F007E007D1682
:100EF2007C4390002EE0F8A3E0F9A3E0FAA3E0FB24
:100F020012011EA804A905AA06AB077F007E487D30
:090F1200557C461200291203026D
:010F1B0022B3
:100ABE0090001BEEF0A3EFF090001DECF0A3EDF014
:100ACE0090001FE4F0A3E4F090001DE0FEA3E0FF11
:100ADE0090001BE0FCA3E0FDC3ED9FEC9E404A900E
:100AEE00001BE0FEA3E0FF90001FEEF0A3EFF090DE
:100AFE00001DE0FEA3E0FF90001FE0FCA3E0FDD38D
:100B0E00ED9FEC9E406C90001FE0FEA3E0FF1210E4
:100B1E007D7F0A7E00121119900020E024FFF090D4
:100B2E00001FE034FFF080C72290001BE0FEA3E020
:100B3E00FF90001FEEF0A3EFF090001DE0FEA3E08B
:100B4E00FF90001FE0FCA3E0FDD3ED9FEC9E502232
:100B5E0090001FE0FEA3E0FF12107D7F0A7E0012C0
:100B6E001119900020E004F0700690001FE004F0D0
:020B7E0080C72E
:010B80002252
:10124B0053B3DF43B42053B1FE43B20153B1FD435B
:0C125B00B2025390DF5380FE5380FD224E
:1012670090006AEFF090006AE0FF7E00EF64014EA5
:0A1277007004439020225390DF2200
:040003004380012213
:040007005380FE2202
:04001E0043800222F7
:0412C2005380FD2236
:10111900900066EEF0A3EFF0900066E0FEA3E0FF1A
:10112900EF4E60177FE87E03121040900067E024BD
:0C113900FFF0900066E034FFF080DD2243
:08104000900037EEF0A3EFF081
:10104800900037E0FCA3E0FDE41202C9120302900D
:101058000039EEF0A3EFF0900039E0FEA3E0FFEFD7
:101068004E60110090003AE024FFF0900039E0341F
:04107800FFF080E322
:01107C002251
:1012980043DE0443D81053DF3F43DF0453DFFC220F
:08107D0090003BEEF0A3EFF040
:1010850053D87F90003BE0FEA3E0FF90003DEEF0DB
:10109500A3EFF075D10075D94290003DE0FEA3E0C5
:1010A500FFEEFF7E008FD490003DE0FEA3E0FF8FB2
:0410B500DC43D880C0
:0110B9002214
:080F1C0090003FEEF0A3EFF09E
:100F240090003FE0FEA3E0FF900041EEF0A3EFF05D
:100F3400900041E0FEA3E0FFD3EF9498EE943A5082
:100F440022900041E0FEA3E0FF12107D7F647E004A
:100F5400121119900042E02464F0900041E0340042
:030F6400F080CD4D
:010F67002267
:080F6800900043EEF0A3EFF04E
:100F7000900045743AF0A37498F0900043E0FEA30B
:100F8000E0FF900045E0FCA3E0FDD3ED9FEC9E4028
:100F900022900045E0FEA3E0FF12107D7F647E00FA
:100FA000121119900046E0249CF0900045E034FFB7
:030FB000F080C707
:010FB300221B
:1010BA0090006BEFF090006BE0FFEF12071710D86B
:1010CA000010E40110E40210E403000010E4438E6F
:1010DA0008758A80758CC14389017F0012117122BB
:1011C600900052EBF0A3EAF0A3E9F0900052E0FBA6
:1011D600A3E0FAA3E0F9900055EBF0A3EAF0A3E947
:0211E600F022F5
:1011450090006CEFF090006CE0FFEF120717116351
:1011550000116701116A02116D03000011704388C7
:0C116500102243884043C80443C4082201
:1011710090006DEFF090006DE0FFEF120717118FF7
:10118100001193011196021199030000119C5388DB
:0C119100EF225388BF53C8FB53C4F72261
:03000B00020E5D85
:100E5D00C0E0C0F0C083C082C0D075D000C000C05B
:100E6D0001C002C003C004C005C006C0077B007AE4
:100E7D00007900C003C002C001900055E0FBA3E063
:100E8D00FAA3E0F9D082D083D0E06B7008E96582D7
:100E9D007003EA6583600E900055E0FBA3E0FAA3B2
:100EAD00E0F912073DD007D006D005D004D003D00D
:100EBD0002D001D000D0D0D082D083D0F0D0E0329B
:0600170043005B00000045
:100C250090004712069C53B1BF53B2BF53B17F53D7
:100C3500B27F900047E0F8A3E0F9A3E0FAA3E0FB58
:100C45007F407E427D0F7C001205E9A804A905AA14
:100C550006AB07C374FF9BFF74FF9AFEE499FDE49E
:100C650098FC78081206898FC6900047E0F8A3E043
:100C7500F9A3E0FAA3E0FB7F407E427D0F7C0012E2
:100C850005E9A804A905AA06AB07C374FF9BFF7471
:100C9500FF9AFEE499FDE498FCEF54FFFFEE540043
:100CA500FEED5400FDEC5400FC8FC575987043872C
:0E0CB5008053C4F843C42043C4081212C9225D
:0312C600D2AC2285
:0312C900C2AC2292
:05122B00900068EFF0E7
:10123000C299900068E0FFEF64FFFF900069EFF053
:0A124000900068E0FF8F993099FDDF
:01124A002281
:100FB400900032EBF0A3EAF0A3E9F0900035EDF0F5
:100FC400900036E4F0900035E0FF900036E0FEEE4D
:100FD400C39F5024900032E0FBA3E0FAA3E0F99011
:100FE4000036E0FF8F82758300120479FF12122B02
:080FF400900036E004F080CD0E
:010FFC0022D2
:0B12B60090006EE599F090006EE0FFE4
:0112C100220A
:100CC300E5875410FF7E00EF64104E6003020D565B
:100CD30090004BE584F090004CE585F090004BE0EC
:100CE300FF7E00EF25E0FFEE33FE90004CE0FDEDCC
:100CF3005401FD7C00EF2DFFEE3CFE90004DEEF025
:100D0300A3EFF090004EE024F1F090004DE034FFAB
:100D1300F090004DE0FEA3E0FFEF5401FF90004C84
:100D2300EFF090004DE0FEA3E0FFEEC313FEEF13E0
:100D3300FF90004BEFF075C7AA75C75590004BE0C5
:100D4300FF8F8475C7AA75C75590004CE0FF8F8548
:030D53005387EFD4
:010D5600227A
:1011E800900058EBF0A3EAF0A3E9F0900058E0FB78
:1011F800A3E0FAA3E0F990005BEBF0A3EAF0A3E91F
:02120800F022D2
:03002300020DE3E8
:100DE300C0E0C0F0C083C082C0D075D000C000C0D6
:100DF30001C002C003C004C005C006C00730983A52
:100E0300C2987B007A007900C003C002C001900041
:100E13005BE0FBA3E0FAA3E0F9D082D083D0E06BE0
:100E23007008E965827003EA6583600E90005BE0F9
:100E3300FBA3E0FAA3E0F912073D309902C299D06F
:100E430007D006D005D004D003D002D001D000D003
:0A0E5300D0D082D083D0F0D0E0327E
:100B8100900013EBF0A3EAF0A3E9F0900013E0FB6F
:100B9100A3E0FAA3E0F9758206758300E475F0001D
:100BA100120580900013E0FBA3E0FAA3E0F975823F
:100BB10008758300E475F000120580900013E0FBD6
:100BC100A3E0FAA3E0F9758205758300E41204D964
:100BD10090001AE0FF900013E0FBA3E0FAA3E0F914
:100BE100758203758300EF1204D9900019E0FF901C
:100BF1000013E0FBA3E0FAA3E0F97582047583001A
:100C0100EF1204D9900016E0FBA3E0FAA3E0F9C0CB
:100C110003C002C001900013E0FBA3E0FAA3E0F9D6
:040C21001206C822CD
:10079B00900021EBF0A3EAF0A3E9F0900021E0FB3D
:1007AB00A3E0FAA3E0F912120A900021E0FBA3E008
:1007BB00FAA3E0F9758204758300120479FEEFC386
:1007CB009E500302087C900021E0FBA3E0FAA3E01B
:1007DB00F9758204758300120479FF900021E0FB08
:1007EB00A3E0FAA3E0F9758203758300120479FE86
:1007FB00EE8FF0A4FFAEF0900021E0FBA3E0FAA394
:10080B00E0F97582087583001204FBFDACF0C3EDB3
:10081B009FEC9E4018900021E0FBA3E0FAA3E0F9C7
:10082B00758208758300E475F00012058090002135
:10083B00E0FBA3E0FAA3E0F97582037583001204D1
:10084B0079FF7E00900021E0FBA3E0FAA3E0F975AD
:10085B008208758300EE8FF0120533900021E0FBC8
:10086B00A3E0FAA3E0F975820575830074FF120407
:10087B00A6900021E0FBA3E0FAA3E0F975820475D2
:10088B008300120479FF900021E0FBA3E0FAA3E0C0
:10089B00F9758203758300120479FEEE8FF0A4FFC5
:1008AB00AEF0900021E0FBA3E0FAA3E0F97582061D
:1008BB007583001204FBFDACF0C3ED9FEC9E40185A
:1008CB00900021E0FBA3E0FAA3E0F97582067583A3
:1008DB0000E475F000120580900021E0FBA3E0FA24
:1008EB00A3E0F9758203758300120479FF7E0090F3
:1008FB000024E0FBA3E0FAA3E0F9C003C002C001AF
:10090B00900021E0FBA3E0FAA3E0F9758206758362
:10091B00001204FBFDACF0900021E0FBA3E0FAA376
:10092B00E0F91206A8E92DF9EA3CFAA801AC02ADF0
:10093B0003D001D002D003120453900021E0FBA39B
:10094B00E0FAA3E0F9758203758300120479FF7E48
:10095B0000900021E0FBA3E0FAA3E0F97582067595
:10096B008300EE8FF0120533900021E0FBA3E0FA39
:10097B00A3E0F975820575830074011204A67F014B
:01098B002249
:10098C00900027EBF0A3EAF0A3E9F0900027E0FB3E
:10099C00A3E0FAA3E0F912120AEF7003020ABB906B
:1009AC000027E0FBA3E0FAA3E0F97582047583004D
:1009BC00120479FF900027E0FBA3E0FAA3E0F9759D
:1009CC008203758300120479FEEE8FF0A4FFAEF063
:1009DC00900027E0FBA3E0FAA3E0F9758208758389
:1009EC00001204FBFDACF0C3ED9FEC9E4018900090
:1009FC0027E0FBA3E0FAA3E0F9758208758300E415
:100A0C0075F000120580900027E0FBA3E0FAA3E04C
:100A1C00F9758203758300120479FF7E009000271C
:100A2C00E0FBA3E0FAA3E0F97582087583001204D9
:100A3C00FBFDACF0900027E0FBA3E0FAA3E0F91279
:100A4C0006A8E92DF9EA3CFAC003C002C0019000E7
:100A5C002AE0FBA3E0FAA3E0F9A801AC02AD03D0B5
:100A6C0001D002D003120453900027E0FBA3E0FA5C
:100A7C00A3E0F9758203758300120479FF7E009060
:100A8C000027E0FBA3E0FAA3E0F975820875830068
:100A9C00EE8FF0120533900027E0FBA3E0FAA3E001
:100AAC00F975820575830074FF1204A67F01227FFD
:020ABC00002216
:10119D0090005EEBF0A3EAF0A3E9F090005EE0FBB7
:1011AD00A3E0FAA3E0F9758205758300120479FFB7
:0911BD00EF60037F00227F012294
:10120A00900061EBF0A3EAF0A3E9F0900061E0FB43
:10121A00A3E0FAA3E0F9758205758300120479FF49
:01122A0022A1
:1000260002036EE86480F8E933E83360110460F097
:10003600ED33EC337009E8FCE9FDEAFEEBFF220440
:1000460060DED3EB9FEA9EE99DE8C2E78CF0C2F73B
:1000560095F0400CE8CCF8E9CDF9EACEFAEBCFFB07
:1000660012033985D0F05804700320D5B3E8047024
:10007600075002B2D502037892D5EC0460F7E4CCBF
:10008600C0E0C398F8603B94186008400DD0E0FBD0
:10009600020350E4FBFAC9FC8028E830E406E4C910
:1000A600FBE4CAFCE830E305E4C9CACBFCE8540724
:1000B6006010F8C3E913F9EA13FAEB13FBEC13FC2F
:1000C600D8F130F52FC3E49CFCEF9BFFEE9AFEEDD2
:1000D60099FDD0E0FBEF4E4D4C701222DB0302037C
:1000E60075EC2CFCEF33FFEE33FEED33FDED30E720
:1000F600EB020350EF2BFFEE3AFEED39FDD0E0FBAD
:1001060050130BBB0003020378ED13FDEE13FEEF55
:0801160013FFEC13FC0203507F
:10011E00EC4D6011E8497017ED33EC3304600DE4DB
:10012E00FCFFFEFD22E933E8330470F802036E1281
:10013E00033958046009E4CC248150062850090282
:10014E000378284003020375C0E0EB4A7044B9807F
:10015E0006D0E0FB020364EF4E701CBD8008EBFF7F
:10016E00EAFEE9FD80EBE98DF0A4FEE5F002020760
:10017E00E9CDF9EAFEEBFFEF89F0A4FCE5F0CE89BC
:10018E00F0A42EFFE435F0CD89F0A42DFEE435F079
:10019E008067EF4E7005BD80D780C3EF8BF0A4ACA7
:1001AE00F0EE8BF0A42CFCE435F0F8EF8AF0A42CE2
:1001BE00E5F038FCE433CB8DF0A42CFCE5F03BF8F5
:1001CE00EE8AF0A42CFCE5F038F8E433CF89F0A4E5
:1001DE002CFCE5F038CF3400CE89F0A42FFFE5F0EB
:1001EE003EFEE433C98DF0A42EFEE5F039CD8AF043
:1001FE00A42FFFE5F03EFEE43DFD33D0E0FB5007BB
:10020E000BBB000F020378EC2CFCEF33FFEE33FE3A
:06021E00ED33FD02035068
:10022400020378EC5D046005E85904700302036E70
:10023400120339580460F6EC4860F2EC7004FDFED9
:10024400FF22C860DB2481C85009C39860025006AD
:100254000203759850CAF582E9294B4A7005AB82AE
:1002640002036475F0007C1A7880C3EF9BEE9AED6C
:1002740099400DC3EF9BFFEE9AFEED99FDE842F025
:10028400DC23ACF0D0E0FFD0E0FED0E0FDAB822078
:10029400E7101BEB60BAEC2CFCEF33FFEE33FEED02
:1002A40033FD020350E803F830E705C0F075F000B1
:1002B400EF2FFFEE33FEED33FD40B830E7C280AAE6
:1002C40075F020800E75F010800575F0087D007EB5
:1002D400007F003392D530D50312067BEC334010F7
:1002E400EF33FFEE33FEED33FDEC33FCD5F0ED22BE
:0E02F400E5F0247EA2D513CC92E7CDCEFF22FA
:10030200EDD2E7CD33EC3392D524814006E4FFFEF3
:10031200FDFC22FCE4CFCECDCC24E0501174FF8052
:10032200EDC3CC13CCCD13CDCE13CECF13CF0470EF
:07033200F030D5DE02067B6E
:10033900E9D2E7C933E833F892D5EDD2E7CD33EC0A
:0703490033FC5002B2D52283
:10035000EC30E7100FBF000C0EBE00080DBD00040E
:100360000BEB6014A2D5EB13FCED92E7FD2274FFBA
:10037000FCFDFEFF22E480F8A2D574FF13FC7D8013
:03038000E480EF27
:100D6300020FFDE493A3F8E493A34003F68001F29A
:100D730008DFF48029E493A3F85407240CC8C33391
:100D8300C4540F4420C8834004F456800146F6DF60
:100D9300E4800B010204081020408090000EE47EE2
:100DA300019360BCA3FF543F30E509541FFEE49355
:100DB300A360010ECF54C025E060A840B8E493A31C
:100DC300FAE493A3F8E493A3C8C582C8CAC583CA47
:100DD300F0A3C8C582C8CAC583CADFE9DEE780BEFF
:01001D0000E2
:10038300E709F608DFFA8046E709F208DFFA803E5C
:1003930088828C83E709F0A3DFFA8032E309F60849
:1003A300DFFA8078E309F208DFFA807088828C83B1
:1003B300E309F0A3DFFA806489828A83E0A3F60865
:1003C300DFFA805889828A83E0A3F208DFFA804C3F
:1003D30080D280FA80C680D4806980F28033801016
:1003E30080A680EA809A80A880DA80E280CA80337F
:1003F30089828A83ECFAE493A3C8C582C8CCC583F7
:10040300CCF0A3C8C582C8CCC583CCDFE9DEE780C6
:100413000D89828A83E493A3F608DFF9ECFAA9F045
:10042300EDFB2289828A83ECFAE0A3C8C582C8CC9B
:10043300C583CCF0A3C8C582C8CCC583CCDFEADEB4
:10044300E880DB89828A83E493A3F208DFF980CC16
:1004530088F0EF60010E4E60C388F0ED2402B4040F
:100463000050B9F582EB2402B4040050AF232345B6
:0604730082239003D37305
:10047900BB010CE58229F582E5833AF583E0225038
:1004890006E92582F8E622BBFE06E92582F8E22282
:0D049900E58229F582E5833AF583E493229C
:1004A600BB010FF8E58229F582E5833AF583E0285A
:1004B600F0225009C58229F8E58226F622BBFE09FC
:1004C600C58229F8E22582F222F8EA2583F583E936
:0304D60093282246
:1004D900F8BB010DE58229F582E5833AF583E8F059
:1004E900225006E92582C8F622BBFE05E92582C805
:0204F900F222ED
:1004FB00BB0110E58229F582E5833AF583E0F5F03F
:10050B00A3E0225009E92582F886F008E622BBFE1B
:10051B000AE92582F8E2F5F008E222E5832AF58361
:08052B00E993F5F0A3E9932226
:10053300BB010DC58229C582C5833AC58302074322
:100543005011C58229F808E5F026F618F5F0E58282
:1005530036F622BBFE11C58229F808E225F0F5F034
:10056300F218E23582F222F8E58229F582E5832A40
:0D057300F58374019325F0F5F0E493382230
:10058000F8BB0111E58229F582E5833AF583E8F0AD
:10059000E5F0A3F0225009E92582C8F608A6F0226A
:0D05A000BBFE09E92582C8F2E5F008F22251
:1005AD0075F008758200EF2FFFEE33FECD33CDCC05
:1005BD0033CCC58233C5829BED9AEC99E582984088
:1005CD000CF582EE9BFEED9AFDEC99FC0FD5F0D665
:1005DD00E4CEFBE4CDFAE4CCF9A88222B800C1B98F
:1005ED000059BA002DEC8BF084CFCECDFCE5F0CBCD
:1005FD00F97818EF2FFFEE33FEED33FDEC33FCEB06
:10060D0033FB10D703994004EB99FB0FD8E5E4F9C0
:10061D00FA227818EF2FFFEE33FEED33FDEC33FCAD
:10062D00C933C910D7059BE99A4007EC9BFCE99AA1
:10063D00F90FD8E0E4C9FAE4CCFB2275F010EF2FE6
:10064D00FFEE33FEED33FDCC33CCC833C810D707E6
:10065D009BEC9AE899400AED9BFDEC9AFCE899F821
:0E066D000FD5F0DAE4CDFBE4CCFAE4C8F922B4
:0E067B00C3E49FFFE49EFEE49DFDE49CFC2290
:10068900E8600FECC313FCED13FDEE13FEEF13FF4F
:03069900D8F12273
:0C069C00ECF0A3EDF0A3EEF0A3EFF022D1
:1006A800BB010789828A8302076B5005E9F80207B4
:1006B80059BBFE05E9F802077D89828A8302078F04
:1006C800BB011A89828A83D0F0D0E0F8D0E0F9D053
:1006D800E0FAD0E0FBE8C0E0C0F00207745016E989
:1006E800F8D083D082D0E0F9D0E0FAD0E0FBC08225
:1006F800C083020762BBFE16E9F8D083D082D0E03F
:0F070800F9D0E0FAD0E0FBC082C083020786225E
:10071700D083D082F8E4937012740193700DA3A371
:1007270093F8740193F5828883E473740293686085
:06073700EFA3A3A380DF85
:06073D008A838982E47347
:10074300C5F0F8A3E028F0C5F0F8E5821582700241
:060753001583E038F022DE
:09075900E6FB08E6FA08E6F922C5
:09076200EBF608EAF608E9F622BC
:09076B00E0FBA3E0FAA3E0F9228F
:09077400EBF0A3EAF0A3E9F02286
:09077D00E2FB08E2FA08E2F922AD
:09078600EBF208EAF208E9F222A4
:0C078F00E493FB740193FA740293F922C6
:00000001FF
