:03000000021045A6
:0C104500787FE4F6D8FD75810702108C5E
:0A0DAB004201050050420103000A56
:0917720012167C12178480FE227D
:100DB5004100BC004100BE004100C2004100C4002A
:100DC5004100BA004100C0004100BD004100BF0024
:100DD5004100C1004100C3004100B9004100BB0111
:100FB3009000CEEFF09000CFEDF09000D0EBF0A3D7
:050FC300EAF0A3E9F0D3
:100FC8009000CFE0FF9000D4EFF09000D3E0FF90C6
:100FD80000D5EFF09000CEE0FFEF1204DD10410FD6
:100FE800100710100B20100F30101340101750105E
:100FF8002670102A73102E80103D900000104412A5
:10100800178D221217942212179B221217A22290D0
:1010180000D0E0FBA3E0FAA3E0F912152D22121785
:10102800A9221217B0229000D0E0FBA3E0FAA3E0B7
:0C103800F9121553221217B7221217BE2E
:011044002289
:07178D009000BC7401F02282
:071794009000BE7401F02279
:07179B009000C27401F0226E
:0717A2009000C47401F02265
:10152D00900117EBF0A3EAF0A3E9F09000BA740173
:10153D00F0900117E0FBA3E0FAA3E0F91201A9FF77
:06154D009000BBEFF0224C
:0717A9009000C07401F02262
:0717B0009000BD7401F0225E
:1015530090011AEBF0A3EAF0A3E9F09000BF740145
:10156300F090011AE0FBA3E0FAA3E0F91201A9FF4E
:061573009000B9EFF02228
:0717B7009000C17401F02253
:0717BE009000C37401F0224A
:100DE50046001620A100010A8A46002F30A1000105
:100DF5000A9A46000040A100010AEA46000750A1F0
:100E050000010AFA46002270A1000172A2460010F4
:100E150073A1000175A646001C80A100010A2A479E
:100E2500002890A100022171634600360FA1000140
:020E35000AA50C
:100BAF009000BCE0FF7E00EF64014E606B9000BED2
:100BBF00E0FF7E00EF64014E605E9000C2E0FF7EBA
:100BCF0000EF64014E60519000C4E0FF7E00EF64BF
:100BDF00014E60449000BAE0FF7E00EF64014E606A
:100BEF00379000C0E0FF7E00EF64014E602A900056
:100BFF00BDE0FF7E00EF64014E601D9000BFE0FF7F
:100C0F007E00EF64014E60109000C1E0FF7E00EFA8
:100C1F0064014E6003020CBF9000BCE0FF7E00EF4A
:100C2F0064014E70041217E5229000BEE0FF7E00B3
:100C3F00EF64014E70041216C7229000C2E0FF7ECF
:100C4F0000EF64014E7004121627229000C4E0FFDB
:100C5F007E00EF64014E70041216F5229000BAE088
:100C6F00FF7E00EF64014E700412172F229000C018
:100C7F00E0FF7E00EF64014E700412171E229000F9
:100C8F00BDE0FF7E00EF64014E70041217C5229085
:100C9F0000BFE0FF7E00EF64014E70041214792252
:100CAF009000C1E0FF7E00EF64014E70031212A5A9
:010CBF002212
:0117E50022E1
:1016C7009000BEE4F07B017A0079167D0612157949
:0716D7009000357401F022C0
:101627009000C2E4F07F011216627D0A7C007F05FC
:0F1637007E00120CC090000DE4F0A3740AF022A4
:1016F5009000C4E4F090000DE0FEA3E0FF12130596
:061705007F0012166222B3
:10172F009000BAE4F09000BBE0FF7E00120561224A
:10171E009000C0E4F07B017A0079227D06121579E3
:01172E002298
:0617C5009000BDE4F022DB
:101479009000BFE4F09000B9E0FF7E0090012CEEEF
:10148900F0A3EFF090000DE0FEA3E0FF90012CE047
:10149900FCA3E0FD120CC012170B90000DEEF0A397
:0214A900EFF062
:0114AB00221E
:1012A5009000C1E4F0900035E0FF7E00EF64014E50
:1012B500700890002C7421F0800690002C7422F0A8
:1012C50090000FE0FF7E00EF64014E700890002D46
:1012D5007471F0800690002D7472F07B017A0079AC
:1012E500289000E2E4F0A37406F07D001211CC9082
:1012F500002EEFF07B017A0079287D0712157922FF
:1016960012173F1216467F0A7E001216DE1217CB6D
:0916A6001213A912167CD2AF2226
:1016AF000001000200030004000500060007000807
:0816BF000009000A000B000CF9
:1010D10090012EE4F0A3E4F090012EE0FEA3E0FFE6
:1010E100C3EF940CEE648094805065900103E0FEA0
:1010F100A3E0FF900105E0FCA3E0FDC3ED9FFFEC41
:101101009EFE90012EE0FCA3E0FD1202447C007DD6
:101111000C120256900103E0FCA3E0FDEF2DFDEE61
:101121003CFC90012EE0FEA3E0FFEF25E0FFEE3353
:10113100FE748E2FF58274003EF583ECF0A3EDF082
:1011410090012FE004F0700690012EE004F08088F9
:01115100227B
:0417CB0012002622C0
:08056100900071EEF0A3EFF031
:100569009000757402F07BFF7A1679AFC003C00260
:10057900C0017B017A007976A801AC02AD03D001F4
:10058900D002D0037E007F18120183900071E0FE33
:10059900A3E0FFD3EF940CEE940040047F018002A6
:1005A9007F00900071E0FCA3E0FDC3ED9401EC94A1
:1005B9000050047E0180027E00EE4FFFEF60057E51
:1005C900FF7FFF221210D1900073E4F0A3E4F090B2
:1005D9000073E0FEA3E0FFC3EF940CEE6480948007
:1005E9005066900073E0FEA3E0FFEF25E0FFEE33D5
:1005F900FE74762FF58274003EF583E0FEA3E0FFDA
:10060900900071E0FCA3E0FDEDB5072CECB50628E0
:10061900900073E0FEA3E0FFEF25E0FFEE33FE74E8
:100629008E2FF58274003EF583E0FEA3E0FF900073
:1006390071EEF0A3EFF08010900074E004F0700602
:10064900900073E004F0808712123A9000A6EEF051
:10065900A3EFF0900071E0FEA3E0FF9000A6E0FC9C
:10066900A3E0FDC3ED9FEC9E5007900075E4F08078
:100679004A900071E0FEA3E0FFEF24FEFFEE34FF95
:10068900FE9000A6E0FCA3E0FDC3ED9FEC9E402593
:10069900900071E0FEA3E0FFEF2402FFEE3400FEBC
:1006A9009000A6E0FCA3E0FDD3ED9FEC9E5006E48C
:1006B9007E007F00229000757401F0900075E0FFC4
:1006C900EF1204DD06D7000713010000074F1217C8
:1006D900DB7F0A7E001214AC1217CF12123A900077
:1006E900A6EEF0A3EFF0900071E0FEA3E0FFEF2487
:1006F900FEFFEE34FFFE9000A6E0FCA3E0FDC3ED93
:100709009FEC9E40D61217D380421217D37F0A7EE0
:10071900001214AC1217D712123A9000A6EEF0A3E9
:10072900EFF0900071E0FEA3E0FFEF2402FFEE344A
:1007390000FE9000A6E0FCA3E0FDD3ED9FEC9E50E7
:10074900D61217DB8006E47E007F0022E47E007F5C
:01075900009F
:01075A00227C
:1015C100737472696E673100737472696E67320089
:1015D100737472696E673300737472696E67340075
:0315E100524A006B
:100E37005E0040FF15C1FF15C9FF15D1FF15D90089
:100E4700000000000000000000000000000000009B
:0E0E57000041003C0042003D000041003F0011
:1013A9007F807E257D007C00120F157BFF7A0A79EC
:1013B9007E1215E47B017A007967C003C002C0017F
:1013C9007B017A00795E9000D9EBF0A3EAF0A3E9FA
:1013D900F09000DC7402F09000DD7409F0D001D0C7
:0A13E90002D003120E711217DF226A
:0C175A0090011DEBF0A3EAF0A3E9F022DF
:100A7E009000A8E4F0A3E4F012176690003CEFF0AB
:100A8E0090003CE0FF90003DE475F0011202ABAD2A
:100A9E00F0FC74AA2DF58274003CF583EFF0900003
:100AAE00AAE0FF7E00EF64404E7009900132E4F040
:100ABE00A37401F090003DE0FEA3E0FFC3EF9404A9
:100ACE00EE94005003020BAE9000ADE0FF7E00EFFF
:100ADE002405FFEE3400FE90003DE0FCA3E0FDEFA8
:100AEE006D7002EE6C6003020BAE7B017A0079AA88
:100AFE009000ADE0FF7E00EF2404FFEE3400FE9088
:100B0E0000E2EEF0A3EFF07D001211CC9000ADE00C
:100B1E00FE74AE2EF582E43400F583E0FEEF6E70C7
:100B2E00667B017A007967C003C002C0017B017A3F
:100B3E000079AA9000F5EBF0A3EAF0A3E9F0D0015A
:100B4E00D002D00312075B9000AAE0FF7E00EF6494
:100B5E00204E70447B017A007967C003C002C00149
:100B6E007B017A00795E9000FBEBF0A3EAF0A3E93B
:100B7E00F0D001D002D00312094C7B017A007962C9
:100B8E00EA494B6013801190003FE004F07BFF7A3E
:100B9E001579E17D021213F390003DE4F0A3E4F029
:010BAE002224
:101359007B017A007967121504EF70437B017A00EB
:101369007967C003C002C0017B017A0079C590008A
:10137900FBEBF0A3EAF0A3E9F0D001D002D003120D
:10138900094C9000C5E0FF9000C6E0FD7B017A00A2
:0F13990079C99000C8E0FE9000D3EEF0120FB3B8
:0113A8002222
:10157900900107EBF0A3EAF0A3E9F090010AEDF07E
:10158900900107E0FBA3E0FAA3E0F990010AE0FD6E
:041599001213F32214
:050E6500420132000013
:0E173F0053B3FE43B4017FF47E011214AC22BA
:1016DE00900130EEF0A3EFF012159D900130E0FE78
:0716EE00A3E0FF1214D82253
:10170B00AFD47E00EF7F00FEADDC7C00EE4CFEEF35
:03171B004DFF225D
:100CC0009000E6EEF0A3EFF09000E8ECF0A3EDF07A
:100CD0009000EAE4F0A3E4F09000E8E0FEA3E0FF77
:100CE0009000E6E0FCA3E0FDD3ED9FEC9E405C901D
:100CF00000E6E0FEA3E0FF9000EAEEF0A3EFF09044
:100D000000E8E0FEA3E0FF9000EAE0FCA3E0FDD3F2
:100D1000ED9FEC9E5003020DA2900132E0FEA3E095
:100D2000FFEF64014E607B9000EAE0FEA3E0FF125B
:100D300014D87F147E001214AC9000EBE024FFF076
:100D40009000EAE034FFF080B680579000E6E0FEC5
:100D5000A3E0FF9000EAEEF0A3EFF09000E8E0FEE1
:100D6000A3E0FF9000EAE0FCA3E0FDC3ED9FEC9E52
:100D70005030900132E0FEA3E0FFEF64014E6022AC
:100D80009000EAE0FEA3E0FF1214D87F147E001268
:100D900014AC9000EBE004F070069000EAE004F080
:0A0DA00080B9900132E4F0A3E4F002
:010DAA002226
:0813050090010BEEF0A3EFF0E4
:10130D0090010DE4F0A3E4F090010BE0FEA3E0FFEB
:10131D0090010DEEF0A3EFF090010DE0FEA3E0FFC4
:10132D00D3EF9405EE9400402290010DE0FEA3E072
:10133D00FF1214D87F147E001214AC90010EE0241D
:0B134D00FFF090010DE034FFF080CDB8
:011358002272
:1016460053B3EF43B41053B3FE43B40153B3F7435C
:0C165600B4085390EF5390FE5390F7221D
:1016620090013AEFF090013AE0FF7E00EF64014E04
:0A1672007004439010225390EF2201
:0417CF004390012220
:0417D3005390FE220F
:0417D7004390082211
:0417DB005390F7220E
:1000260043B12053B2DF43E101C2EF53E8FF43E897
:050036000543F6102255
:09177B00C2EF43E84030EFFD220B
:10123A009000ECE4F0A3E4F09000EEE4F0A3E4F014
:10124A009000F0E4F0A3E4F012177BE5C2540FFF1C
:10125A007E009000ECEEF0A3EFF0AFC37E009000AA
:10126A00EEEEF0A3EFF09000EEE0FEA3E0FFEFC495
:10127A00F8540FC868FFEEC454F048FE9000ECE042
:10128A00FCA3E0FDEE4CFEEF4DFF9000F0EEF0A364
:0A129A00EFF09000F0E0FEA3E0FF8B
:0112A4002227
:1014AC00900134EEF0A3EFF0900134E0FEA3E0FFE6
:1014BC00EF4E60177FE87E0312143C900135E02458
:0C14CC00FFF0900134E034FFF080DD22DE
:08143C0090010FEEF0A3EFF0A8
:1014440090010FE0FCA3E0FDE412004312007C9045
:101454000111EEF0A3EFF0900111E0FEA3E0FFEF25
:101464004E601100900112E024FFF0900111E0346D
:04147400FFF080E322
:011478002251
:10159D0053B3FE53B4FE43DE0153DF3F53DFEFD2AF
:1015AD00DC538EBF43DF0353DFFB75D60075D100CF
:0415BD0075D9852235
:1014D800900136EEF0A3EFF0C2DF900136E0FEA3F4
:1014E800E0FF7F00EEFF7E008FD2900136E0FEA382
:0C14F800E0FFEF54FFF5DAD2DED2DF2275
:060E6A004301230000001B
:100F150090011312046253B1BF53B2BF53B17F5353
:100F2500B27F900113E0F8A3E0F9A3E0FAA3E0FB98
:100F35007F407E427D0F7C001203AFA804A905AA5D
:100F450006AB07C374FF9BFF74FF9AFEE499FDE4AB
:100F550098FC780812044F8FC6900113E0F8A3E0BF
:100F6500F9A3E0FAA3E0FB7F407E427D0F7C0012EF
:100F750003AFA804A905AA06AB07C374FF9BFF74BA
:100F8500FF9AFEE499FDE498FCEF54FFFFEE540050
:100F9500FEED5400FDEC5400FC8FC5759870438739
:0E0FA5008053C4F843C42043C4081217E2224C
:0317DF00D2AC2267
:0317E200C2AC2274
:05000300900138EFF050
:10000800C299900138E0FFEF64FFFF900139EFF0EB
:0A001800900138E0FF8F993099FD48
:0100220022BB
:1013F3009000FEEBF0A3EAF0A3E9F0900101EDF019
:10140300900102E4F0900101E0FF900102E0FEEEA2
:10141300C39F50249000FEE0FBA3E0FAA3E0F99001
:101423000102E0FF8F827583001201C2FF120003E5
:08143300900102E004F080CDFD
:01143B00228E
:0B17660090013BE599F090013BE0FF93
:011771002255
:1015E400900120EBF0A3EAF0A3E9F0900120E0FBE6
:1015F400A3E0FAA3E0F9900123EBF0A3EAF0A3E956
:02160400F022D2
:0300230002115275
:10115200C0E0C0F0C083C082C0D075D000C000C063
:1011620001C002C003C004C005C006C00730983ADF
:10117200C2987B007A007900C003C002C0019001CE
:1011820023E0FBA3E0FAA3E0F9D082D083D0E06BA6
:101192007008E965827003EA6583600E900123E0BE
:1011A200FBA3E0FAA3E0F9120503309902C299D039
:1011B20007D006D005D004D003D002D001D000D091
:0A11C200D0D082D083D0F0D0E0320C
:10167C0043B38053B47F43E90143E98043EA805389
:0A168C00EB7F439B02D2AFD29722FE
:0917840053B3DF43B420C29522E7
:03003B0002174D5C
:0D174D00C0D053EC7FA295B39295D0D0325E
:100E71009000D6EBF0A3EAF0A3E9F09000D6E0FBF6
:100E8100A3E0FAA3E0F9758206758300E475F0002A
:100E91001203469000D6E0FBA3E0FAA3E0F97582C5
:100EA10008758300E475F0001203469000D6E0FB5C
:100EB100A3E0FAA3E0F9758205758300E41202222A
:100EC1009000DDE0FF9000D6E0FBA3E0FAA3E0F99B
:100ED100758203758300EF1202229000DCE0FF901F
:100EE10000D6E0FBA3E0FAA3E0F975820475830064
:100EF100EF1202229000D9E0FBA3E0FAA3E0F9C0CF
:100F010003C002C0019000D6E0FBA3E0FAA3E0F920
:040F110012048E2216
:10075B009000F2EBF0A3EAF0A3E9F09000F2E0FBDB
:10076B00A3E0FAA3E0F91216069000F2E0FBA3E077
:10077B00FAA3E0F97582047583001201C2FEEFC380
:10078B009E500302083C9000F2E0FBA3E0FAA3E0CA
:10079B00F97582047583001201C2FF9000F2E0FB31
:1007AB00A3E0FAA3E0F97582037583001201C2FE80
:1007BB00EE8FF0A4FFAEF09000F2E0FBA3E0FAA303
:1007CB00E0F97582087583001202C1FDACF0C3ED30
:1007DB009FEC9E40189000F2E0FBA3E0FAA3E0F937
:1007EB00758208758300E475F0001203469000F2E1
:1007FB00E0FBA3E0FAA3E0F9758203758300120115
:10080B00C2FF7E009000F2E0FBA3E0FAA3E0F975D3
:10081B008208758300EE8FF01202F99000F2E0FB74
:10082B00A3E0FAA3E0F975820575830074FF12014A
:10083B00EF9000F2E0FBA3E0FAA3E0F975820475F8
:10084B0083001201C2FF9000F2E0FBA3E0FAA3E0E9
:10085B00F97582037583001201C2FEEE8FF0A4FFBF
:10086B00AEF09000F2E0FBA3E0FAA3E0F97582068C
:10087B007583001202C1FDACF0C3ED9FEC9E4018D6
:10088B009000F2E0FBA3E0FAA3E0F9758206758312
:10089B0000E475F0001203469000F2E0FBA3E0FACF
:1008AB00A3E0F97582037583001201C2FF7E0090ED
:1008BB0000F5E0FBA3E0FAA3E0F9C003C002C0011E
:1008CB009000F2E0FBA3E0FAA3E0F97582067583D2
:1008DB00001202C1FDACF09000F2E0FBA3E0FAA322
:1008EB00E0F912046EE92DF9EA3CFAA801AC02AD6D
:1008FB0003D001D002D0031201839000F2E0FBA3DE
:10090B00E0FAA3E0F97582037583001201C2FF7E42
:10091B00009000F2E0FBA3E0FAA3E0F97582067504
:10092B008300EE8FF01202F99000F2E0FBA3E0FAE5
:10093B00A3E0F975820575830074011201EF7F0145
:01094B002289
:10094C009000F8EBF0A3EAF0A3E9F09000F8E0FBDC
:10095C00A3E0FAA3E0F9121606EF7003020A7B90EB
:10096C0000F8E0FBA3E0FAA3E0F9758204758300BC
:10097C001201C2FF9000F8E0FBA3E0FAA3E0F975C6
:10098C0082037583001201C2FEEE8FF0A4FFAEF05D
:10099C009000F8E0FBA3E0FAA3E0F97582087583F8
:1009AC00001202C1FDACF0C3ED9FEC9E401890000C
:1009BC00F8E0FBA3E0FAA3E0F9758208758300E484
:1009CC0075F0001203469000F8E0FBA3E0FAA3E0F8
:1009DC00F97582037583001201C2FF7E009000F846
:1009EC00E0FBA3E0FAA3E0F975820875830012021C
:1009FC00C1FDACF09000F8E0FBA3E0FAA3E0F91223
:100A0C00046EE92DF9EA3CFAC003C002C001900063
:100A1C00FBE0FBA3E0FAA3E0F9A801AC02AD03D024
:100A2C0001D002D0031201839000F8E0FBA3E0FA9E
:100A3C00A3E0F97582037583001201C2FF7E00905A
:100A4C0000F8E0FBA3E0FAA3E0F9758208758300D7
:100A5C00EE8FF01202F99000F8E0FBA3E0FAA3E0AD
:100A6C00F975820575830074FF1201EF7F01227FF7
:020A7C00002256
:10150400900126EBF0A3EAF0A3E9F0900126E0FBBA
:10151400A3E0FAA3E0F97582057583001201C2FF06
:09152400EF60037F00227F012229
:10160600900129EBF0A3EAF0A3E9F0900129E0FBB1
:10161600A3E0FAA3E0F97582057583001201C2FF03
:0116260022A1
:1011CC009000DEEBF0A3EAF0A3E9F09000E1EDF083
:1011DC009000E4E4F09000E5E4F09000E1E0FF9092
:1011EC0000E5EFF09000E5E0FF7E009000E2E0FC0F
:1011FC00A3E0FDC3EF9DEE9C502E9000E4E0FF9029
:10120C0000DEE0FBA3E0FAA3E0F99000E5E0FE8E3F
:10121C00827583001201C2FEEF6EFF9000E4EFF0C6
:0D122C009000E5E004F080BC9000E4E0FFDD
:011239002292
:10003E0075F020800E75F010800575F0087D007E3D
:10004E00007F003392D530D503120441EC334010BB
:10005E00EF33FFEE33FEED33FDEC33FCD5F0ED2246
:0E006E00E5F0247EA2D513CC92E7CDCEFF2282
:10007C00EDD2E7CD33EC3392D524814006E4FFFE7C
:10008C00FDFC22FCE4CFCECDCC24E0501174FF80DB
:10009C00EDC3CC13CCCD13CDCE13CECF13CF047078
:0700AC00F030D5DE02044133
:10105100021772E493A3F8E493A34003F68001F22C
:1010610008DFF48029E493A3F85407240CC8C333A0
:10107100C4540F4420C8834004F456800146F6DF6F
:10108100E4800B0102040810204080900DABE47E47
:10109100019360BCA3FF543F30E509541FFEE49364
:1010A100A360010ECF54C025E060A840B8E493A32B
:1010B100FAE493A3F8E493A3C8C582C8CAC583CA56
:1010C100F0A3C8C582C8CAC583CADFE9DEE780BE0E
:010E70000081
:1000B300E709F608DFFA8046E709F208DFFA803E2F
:1000C30088828C83E709F0A3DFFA8032E309F6081C
:1000D300DFFA8078E309F208DFFA807088828C8384
:1000E300E309F0A3DFFA806489828A83E0A3F60838
:1000F300DFFA805889828A83E0A3F208DFFA804C12
:1001030080D280FA80C680D4806980F280338010E8
:1001130080A680EA809A80A880DA80E280CA803351
:1001230089828A83ECFAE493A3C8C582C8CCC583C9
:10013300CCF0A3C8C582C8CCC583CCDFE9DEE78099
:100143000D89828A83E493A3F608DFF9ECFAA9F018
:10015300EDFB2289828A83ECFAE0A3C8C582C8CC6E
:10016300C583CCF0A3C8C582C8CCC583CCDFEADE87
:10017300E880DB89828A83E493A3F208DFF980CCE9
:1001830088F0EF60010E4E60C388F0ED2402B404E2
:100193000050B9F582EB2402B4040050AF23234589
:0601A300822390010373AA
:1001A900BB010689828A83E0225002E722BBFE0254
:0901B900E32289828A83E4932287
:1001C200BB010CE58229F582E5833AF583E02250F2
:1001D20006E92582F8E622BBFE06E92582F8E2223C
:0D01E200E58229F582E5833AF583E4932256
:1001EF00BB010FF8E58229F582E5833AF583E02814
:1001FF00F0225009C58229F8E58226F622BBFE09B6
:10020F00C58229F8E22582F222F8EA2583F583E9EF
:03021F00932822FF
:10022200F8BB010DE58229F582E5833AF583E8F012
:10023200225006E92582C8F622BBFE05E92582C8BE
:02024200F222A6
:10024400EF8DF0A4A8F0CF8CF0A428CE8DF0A42ECE
:02025400FE2288
:10025600BC000BBE0029EF8DF084FFADF022E4CC8C
:10026600F875F008EF2FFFEE33FEEC33FCEE9DEC55
:10027600984005FCEE9DFE0FD5F0E9E4CEFD22ED9B
:10028600F8F5F0EE8420D21CFEADF075F008EF2FE5
:10029600FFED33FD4007985006D5F0F222C398FDD6
:0502A6000FD5F0EA2273
:1002AB00A3F8E0C5F025F0F0E58215827002158306
:0602BB00E0C838F0E82263
:1002C100BB0110E58229F582E5833AF583E0F5F07B
:1002D100A3E0225009E92582F886F008E622BBFE58
:1002E1000AE92582F8E2F5F008E222E5832AF5839E
:0802F100E993F5F0A3E9932263
:1002F900BB010DC58229C582C5833AC5830205099B
:100309005011C58229F808E5F026F618F5F0E582BE
:1003190036F622BBFE11C58229F808E225F0F5F070
:10032900F218E23582F222F8E58229F582E5832A7C
:0D033900F58374019325F0F5F0E49338226C
:10034600F8BB0111E58229F582E5833AF583E8F0E9
:10035600E5F0A3F0225009E92582C8F608A6F022A6
:0D036600BBFE09E92582C8F2E5F008F2228D
:1003730075F008758200EF2FFFEE33FECD33CDCC41
:1003830033CCC58233C5829BED9AEC99E5829840C4
:100393000CF582EE9BFEED9AFDEC99FC0FD5F0D6A1
:1003A300E4CEFBE4CDFAE4CCF9A88222B800C1B9CB
:1003B3000059BA002DEC8BF084CFCECDFCE5F0CB09
:1003C300F97818EF2FFFEE33FEED33FDEC33FCEB42
:1003D30033FB10D703994004EB99FB0FD8E5E4F9FD
:1003E300FA227818EF2FFFEE33FEED33FDEC33FCEA
:1003F300C933C910D7059BE99A4007EC9BFCE99ADE
:10040300F90FD8E0E4C9FAE4CCFB2275F010EF2F22
:10041300FFEE33FEED33FDCC33CCC833C810D70722
:100423009BEC9AE899400AED9BFDEC9AFCE899F85D
:0E0433000FD5F0DAE4CDFBE4CCFAE4C8F922F0
:0E044100C3E49FFFE49EFEE49DFDE49CFC22CC
:10044F00E8600FECC313FCED13FDEE13FEEF13FF8B
:03045F00D8F122AF
:0C046200ECF0A3EDF0A3EEF0A3EFF0220D
:10046E00BB010789828A830205315005E9F802052E
:10047E001FBBFE05E9F802054389828A83020555F2
:10048E00BB011A89828A83D0F0D0E0F8D0E0F9D08F
:10049E00E0FAD0E0FBE8C0E0C0F002053A5016E901
:1004AE00F8D083D082D0E0F9D0E0FAD0E0FBC08261
:1004BE00C083020528BBFE16E9F8D083D082D0E0B7
:0F04CE00F9D0E0FAD0E0FBC082C08302054C22D7
:1004DD00D083D082F8E4937012740193700DA3A3AE
:1004ED0093F8740193F5828883E4737402936860C2
:0604FD00EFA3A3A380DFC2
:060503008A838982E47383
:10050900C5F0F8A3E028F0C5F0F8E582158270027D
:060519001583E038F0221A
:09051F00E6FB08E6FA08E6F92201
:09052800EBF608EAF608E9F622F8
:09053100E0FBA3E0FAA3E0F922CB
:09053A00EBF0A3EAF0A3E9F022C2
:09054300E2FB08E2FA08E2F922E9
:09054C00EBF208EAF208E9F222E0
:0C055500E493FB740193FA740293F92202
:00000001FF
