:03000000020FE309
:0C0FE300787FE4F6D8FD75810702102A23
:0A0D6A004200E700504200E5000AD5
:0C16E6001216111212F7120A7E80F82270
:100D740041009E004100A0004100A4004100A600E3
:100D840041009C004100A20041009F004100A100DD
:100D94004100A3004100A50041009B0041009D01CA
:100F51009000B0EFF09000B1EDF09000B2EBF0A393
:050F6100EAF0A3E9F035
:100F66009000B1E0FF9000B6EFF09000B5E0FF9082
:100F760000B7EFF09000B0E0FFEF1204DD0FDF0FD7
:100F86000FA5100FA9200FAD300FB1400FB5500FB0
:100F9600C4700FC8730FCC800FDB9000000FE212F5
:100FA600171C221217232212172A221217312290F7
:100FB60000B2E0FBA3E0FAA3E0F91214CB22121769
:100FC600382212173F229000B2E0FBA3E0FAA3E01A
:0C0FD600F91214F1221217462212174DD6
:010FE20022EC
:07171C0090009E7401F02211
:071723009000A07401F02208
:07172A009000A47401F022FD
:071731009000A67401F022F4
:1014CB009000F9EBF0A3EAF0A3E9F090009C740113
:1014DB00F09000F9E0FBA3E0FAA3E0F91201A9FFF9
:0614EB0090009DEFF022CD
:071738009000A27401F022F1
:07173F0090009F7401F022ED
:1014F1009000FCEBF0A3EAF0A3E9F09000A17401E5
:10150100F09000FCE0FBA3E0FAA3E0F91201A9FFCF
:0615110090009BEFF022A8
:071746009000A37401F022E2
:07174D009000A57401F022D9
:100DA40046001620A100010A8A46002F30A1000146
:100DB4000A9A46000040A100010AEA46000750A131
:100DC40000010AFA46002270A1000172A246001036
:100DD40073A1000175A646001C80A100010A2A47E0
:100DE400002890A100022171634600360FA1000182
:020DF4000AA54E
:100A7E0090009EE0FF7E00EF64014E606B9000A040
:100A8E00E0FF7E00EF64014E605E9000A4E0FF7E0A
:100A9E0000EF64014E60519000A6E0FF7E00EF640F
:100AAE00014E604490009CE0FF7E00EF64014E60BA
:100ABE00379000A2E0FF7E00EF64014E602A9000A6
:100ACE009FE0FF7E00EF64014E601D9000A1E0FFED
:100ADE007E00EF64014E60109000A3E0FF7E00EFF9
:100AEE0064014E6003020B8E90009EE0FF7E00EFCD
:100AFE0064014E7004121771229000A0E0FF7E0078
:100B0E00EF64014E7004121642229000A4E0FF7EA4
:100B1E0000EF64014E70041215A2229000A6E0FFB1
:100B2E007E00EF64014E70041216702290009CE05D
:100B3E00FF7E00EF64014E70041216BB229000A2DD
:100B4E00E0FF7E00EF64014E7004121699229000B1
:100B5E009FE0FF7E00EF64014E70041216AA2290F1
:100B6E0000A1E0FF7E00EF64014E70041214172204
:100B7E009000A3E0FF7E00EF64014E70031212435B
:010B8E002244
:011771002255
:101642009000A0E4F07B017A0079167D061215174E
:071652009000357401F02245
:1015A2009000A4E4F07F011215DD7D0A7C007F0526
:0F15B2007E00120C7F90000DE4F0A3740AF0226B
:101670009000A6E4F090000DE0FEA3E0FF1212A39C
:061680007F001215DD22BF
:1016BB0090009CE4F090009DE0FF7E0012056122FB
:101699009000A2E4F07B017A0079227D06121517E9
:0116A900221E
:1016AA0090009FE4F07B017A0079107D06121517ED
:0116BA00220D
:101417009000A1E4F090009BE0FF7E0090010EEEAB
:10142700F0A3EFF090000DE0FEA3E0FF90010EE0C7
:10143700FCA3E0FD120C7F12168690000DEEF0A3C0
:02144700EFF0C4
:011449002280
:101243009000A3E4F0900035E0FF7E00EF64014ED0
:10125300700890002C7421F0800690002C7422F00A
:1012630090000FE0FF7E00EF64014E700890002DA8
:101273007471F0800690002D7472F07B017A00790E
:10128300289000C4E4F0A37406F07D0012116A9064
:10129300002EEFF07B017A0079287D0712151722C3
:101611001216CB1215C17F0A7E00121659121754E9
:091621001213471215F7D2AF2293
:10162A00000100020003000400050006000700088C
:08163A000009000A000B000C7E
:10106F00900110E4F0A3E4F0900110E0FEA3E0FF84
:10107F00C3EF940CEE6480948050659000E5E0FE21
:10108F00A3E0FF9000E7E0FCA3E0FDC3ED9FFFECC2
:10109F009EFE900110E0FCA3E0FD1202447C007D57
:1010AF000C1202569000E5E0FCA3E0FDEF2DFDEEE3
:1010BF003CFC900110E0FEA3E0FFEF25E0FFEE33D4
:1010CF00FE74592FF58274003EF583ECF0A3EDF01A
:1010DF00900111E004F07006900110E004F0808898
:0110EF0022DE
:041754001200262237
:0805610090003CEEF0A3EFF066
:100569009000407402F07BFF7A16792AC003C0021A
:10057900C0017B017A007941A801AC02AD03D00129
:10058900D002D0037E007F1812018390003CE0FE68
:10059900A3E0FFD3EF940CEE940040047F018002A6
:1005A9007F0090003CE0FCA3E0FDC3ED9401EC94D6
:1005B9000050047E0180027E00EE4FFFEF60057E51
:1005C900FF7FFF2212106F90003EE4F0A3E4F09049
:1005D900003EE0FEA3E0FFC3EF940CEE648094803C
:1005E900506690003EE0FEA3E0FFEF25E0FFEE330A
:1005F900FE74412FF58274003EF583E0FEA3E0FF0F
:1006090090003CE0FCA3E0FDEDB5072CECB5062815
:1006190090003EE0FEA3E0FFEF25E0FFEE33FE741D
:10062900592FF58274003EF583E0FEA3E0FF9000A8
:100639003CEEF0A3EFF0801090003FE004F070066C
:1006490090003EE004F080871211D8900071EEF01E
:10065900A3EFF090003CE0FEA3E0FF900071E0FC06
:10066900A3E0FDC3ED9FEC9E5007900040E4F080AD
:100679004A90003CE0FEA3E0FFEF24FEFFEE34FFCA
:10068900FE900071E0FCA3E0FDC3ED9FEC9E4025C8
:1006990090003CE0FEA3E0FFEF2402FFEE3400FEF1
:1006A900900071E0FCA3E0FDD3ED9FEC9E5006E4C1
:1006B9007E007F00229000407401F0900040E0FF2E
:1006C900EF1204DD06D7000713010000074F1217C8
:1006D900647F0A7E0012144A1217581211D890002A
:1006E90071EEF0A3EFF090003CE0FEA3E0FFEF24F1
:1006F900FEFFEE34FFFE900071E0FCA3E0FDC3EDC8
:100709009FEC9E40D612175C804212175C7F0A7ECE
:100719000012144A1217601211D8900071EEF0A35A
:10072900EFF090003CE0FEA3E0FFEF2402FFEE347F
:1007390000FE900071E0FCA3E0FDD3ED9FEC9E501C
:10074900D61217648006E47E007F0022E47E007FD3
:01075900009F
:01075A00227C
:03176800524A00E2
:0D0DF60041007300420074000041007600CF
:101347007F807E257D007C00120EB37BFF7A0B79B0
:101357008F12155F7B017A007980C003C002C0013C
:101367007B017A0079779000BBEBF0A3EAF0A3E961
:10137700F09000BE7402F09000BF7409F0D001D065
:0A13870002D003120E0F12176B22A2
:0C16F2009000FFEBF0A3EAF0A3E9F02267
:100B8F0090008AE4F0A3E4F01216FE900073EFF0E9
:100B9F00900073E0FF900074E475F0011202ABADAA
:100BAF00F0FC748C2DF58274003CF583EFF090000F
:100BBF008CE0FF7E00EF64404E7009900114E4F06A
:100BCF00A37401F0900074E0FEA3E0FFC3EF940460
:100BDF00EE94005003020C7E90008FE0FF7E00EF3A
:100BEF002405FFEE3400FE900074E0FCA3E0FDEF5F
:100BFF006D7002EE6C70787B017A00798C90008FAB
:100C0F00E0FF7E00EF2404FFEE3400FE9000C4EE00
:100C1F00F0A3EFF07D0012116A90008FE0FE749048
:100C2F002EF582E43400F583E0FEEFB506287B0154
:100C3F007A007980C003C002C0017B017A00798CF1
:100C4F009000D7EBF0A3EAF0A3E9F0D001D002D0E7
:100C5F000312075B8011900076E004F07BFF7A1798
:0F0C6F0079687D02121391900074E4F0A3E4F011
:010C7E002253
:1012F7007B017A0079801214A2EF70437B017A0098
:101307007980C003C002C0017B017A0079A79000F1
:10131700DDEBF0A3EAF0A3E9F0D001D002D003128D
:10132700094C9000A7E0FF9000A8E0FD7B017A0040
:0F13370079AB9000AAE0FE9000B5EEF0120F51D6
:011346002284
:101517009000E9EBF0A3EAF0A3E9F09000ECEDF01E
:101527009000E9E0FBA3E0FAA3E0F99000ECE0FD0E
:0415370012139122D8
:050E0300420114000093
:0E16CB0053B3FE43B4017FF47E0112144A2291
:10165900900112EEF0A3EFF012153B900112E0FE9B
:07166900A3E0FF121476223A
:10168600AFD47E00EF7F00FEADDC7C00EE4CFEEFBB
:031696004DFF22E3
:100C7F009000C8EEF0A3EFF09000CAECF0A3EDF0F7
:100C8F009000CCE4F0A3E4F09000CAE0FEA3E0FFF4
:100C9F009000C8E0FCA3E0FDD3ED9FEC9E405C907C
:100CAF0000C8E0FEA3E0FF9000CCEEF0A3EFF090C1
:100CBF0000CAE0FEA3E0FF9000CCE0FCA3E0FDD370
:100CCF00ED9FEC9E5003020D61900114E0FEA3E036
:100CDF00FFEF64014E607B9000CCE0FEA3E0FF12BB
:100CEF0014767F147E0012144A9000CDE024FFF09A
:100CFF009000CCE034FFF080B680579000C8E0FE43
:100D0F00A3E0FF9000CCEEF0A3EFF09000CAE0FE5E
:100D1F00A3E0FF9000CCE0FCA3E0FDC3ED9FEC9EB1
:100D2F005030900114E0FEA3E0FFEF64014E60220B
:100D3F009000CCE0FEA3E0FF1214767F147E001229
:100D4F00144A9000CDE004F070069000CCE004F05F
:0A0D5F0080B9900114E4F0A3E4F061
:010D69002267
:0812A3009000EDEEF0A3EFF066
:1012AB009000EFE4F0A3E4F09000EDE0FEA3E0FF8C
:1012BB009000EFEEF0A3EFF09000EFE0FEA3E0FF65
:1012CB00D3EF9405EE940040229000EFE0FEA3E0F4
:1012DB00FF1214767F147E0012144A9000F0E02463
:0B12EB00FFF09000EFE034FFF080CD3A
:0112F60022D5
:1015C10053B3EF43B41053B3FE43B40153B3F743E2
:0C15D100B4085390EF5390FE5390F722A3
:1015DD0090011CEFF090011CE0FF7E00EF64014EC6
:0A15ED007004439010225390EF2287
:041758004390012297
:04175C005390FE2286
:041760004390082288
:041764005390F72285
:1000260043B12053B2DF43E101C2EF53E8FF43E897
:050036000543F6102255
:09170A00C2EF43E84030EFFD227C
:1011D8009000CEE4F0A3E4F09000D0E4F0A3E4F0B3
:1011E8009000D2E4F0A3E4F012170AE5C2540FFF0E
:1011F8007E009000CEEEF0A3EFF0AFC37E0090002B
:10120800D0EEF0A3EFF09000D0E0FEA3E0FFEFC433
:10121800F8540FC868FFEEC454F048FE9000CEE0C2
:10122800FCA3E0FDEE4CFEEF4DFF9000D2EEF0A3E4
:0A123800EFF09000D2E0FEA3E0FF0B
:011242002289
:10144A00900116EEF0A3EFF0900116E0FEA3E0FF84
:10145A00EF4E60177FE87E031213DA900117E0243B
:0C146A00FFF0900116E034FFF080DD225E
:0813DA009000F1EEF0A3EFF02A
:1013E2009000F1E0FCA3E0FDE412004312007C90C7
:1013F20000F3EEF0A3EFF09000F3E0FEA3E0FFEFC6
:101402004E6011009000F4E024FFF09000F3E0340D
:04141200FFF080E384
:0114160022B3
:10153B0053B3FE53B4FE43DE0153DF3F53DFEFD211
:10154B00DC538EBF43DF0353DFFB75D60075D10031
:04155B0075D9852297
:10147600900118EEF0A3EFF0C2DF900118E0FEA392
:10148600E0FF7F00EEFF7E008FD2900118E0FEA302
:0C149600E0FFEF54FFF5DAD2DED2DF22D7
:060E08004301050000009B
:100EB3009000F512046253B1BF53B2BF53B17F53D5
:100EC300B27F9000F5E0F8A3E0F9A3E0FAA3E0FB1A
:100ED3007F407E427D0F7C001203AFA804A905AAC0
:100EE30006AB07C374FF9BFF74FF9AFEE499FDE40E
:100EF30098FC780812044F8FC69000F5E0F8A3E041
:100F0300F9A3E0FAA3E0FB7F407E427D0F7C001251
:100F130003AFA804A905AA06AB07C374FF9BFF741C
:100F2300FF9AFEE499FDE498FCEF54FFFFEE5400B2
:100F3300FEED5400FDEC5400FC8FC575987043879B
:0E0F43008053C4F843C42043C40812176E2222
:03176B00D2AC22DB
:03176E00C2AC22E8
:0500030090011AEFF06E
:10000800C29990011AE0FFEF64FFFF90011BEFF027
:0A00180090011AE0FF8F993099FD66
:0100220022BB
:101391009000E0EBF0A3EAF0A3E9F09000E3EDF0B8
:1013A1009000E4E4F09000E3E0FF9000E4E0FEEE62
:1013B100C39F50249000E0E0FBA3E0FAA3E0F99082
:1013C10000E4E0FF8F827583001201C2FF12000367
:0813D1009000E4E004F080CD7F
:0113D90022F1
:0B16FE0090011DE599F090011DE0FF38
:0117090022BD
:10155F00900102EBF0A3EAF0A3E9F0900102E0FBA7
:10156F00A3E0FAA3E0F9900105EBF0A3EAF0A3E9F9
:02157F00F02258
:030023000210F0D8
:1010F000C0E0C0F0C083C082C0D075D000C000C0C6
:1011000001C002C003C004C005C006C00730983A41
:10111000C2987B007A007900C003C002C001900130
:1011200005E0FBA3E0FAA3E0F9D082D083D0E06B26
:101130007008E965827003EA6583600E900105E03E
:10114000FBA3E0FAA3E0F9120503309902C299D09B
:1011500007D006D005D004D003D002D001D000D0F3
:0A116000D0D082D083D0F0D0E0326E
:1015F70043B38053B47F43E90143E98043EA80530F
:0A160700EB7F439B02D2AFD2972283
:0917130053B3DF43B420C2952258
:03003B000216D9D1
:0D16D900C0D053EC7FA295B39295D0D032D3
:100E0F009000B8EBF0A3EAF0A3E9F09000B8E0FB94
:100E1F00A3E0FAA3E0F9758206758300E475F0008C
:100E2F001203469000B8E0FBA3E0FAA3E0F9758245
:100E3F0008758300E475F0001203469000B8E0FBDC
:100E4F00A3E0FAA3E0F9758205758300E41202228C
:100E5F009000BFE0FF9000B8E0FBA3E0FAA3E0F939
:100E6F00758203758300EF1202229000BEE0FF909F
:100E7F0000B8E0FBA3E0FAA3E0F9758204758300E4
:100E8F00EF1202229000BBE0FBA3E0FAA3E0F9C04F
:100E9F0003C002C0019000B8E0FBA3E0FAA3E0F9A1
:040EAF0012048E2279
:10075B009000D4EBF0A3EAF0A3E9F09000D4E0FB17
:10076B00A3E0FAA3E0F91215819000D4E0FBA3E01B
:10077B00FAA3E0F97582047583001201C2FEEFC380
:10078B009E500302083C9000D4E0FBA3E0FAA3E0E8
:10079B00F97582047583001201C2FF9000D4E0FB4F
:1007AB00A3E0FAA3E0F97582037583001201C2FE80
:1007BB00EE8FF0A4FFAEF09000D4E0FBA3E0FAA321
:1007CB00E0F97582087583001202C1FDACF0C3ED30
:1007DB009FEC9E40189000D4E0FBA3E0FAA3E0F955
:1007EB00758208758300E475F0001203469000D4FF
:1007FB00E0FBA3E0FAA3E0F9758203758300120115
:10080B00C2FF7E009000D4E0FBA3E0FAA3E0F975F1
:10081B008208758300EE8FF01202F99000D4E0FB92
:10082B00A3E0FAA3E0F975820575830074FF12014A
:10083B00EF9000D4E0FBA3E0FAA3E0F97582047516
:10084B0083001201C2FF9000D4E0FBA3E0FAA3E007
:10085B00F97582037583001201C2FEEE8FF0A4FFBF
:10086B00AEF09000D4E0FBA3E0FAA3E0F9758206AA
:10087B007583001202C1FDACF0C3ED9FEC9E4018D6
:10088B009000D4E0FBA3E0FAA3E0F9758206758330
:10089B0000E475F0001203469000D4E0FBA3E0FAED
:1008AB00A3E0F97582037583001201C2FF7E0090ED
:1008BB0000D7E0FBA3E0FAA3E0F9C003C002C0013C
:1008CB009000D4E0FBA3E0FAA3E0F97582067583F0
:1008DB00001202C1FDACF09000D4E0FBA3E0FAA340
:1008EB00E0F912046EE92DF9EA3CFAA801AC02AD6D
:1008FB0003D001D002D0031201839000D4E0FBA3FC
:10090B00E0FAA3E0F97582037583001201C2FF7E42
:10091B00009000D4E0FBA3E0FAA3E0F97582067522
:10092B008300EE8FF01202F99000D4E0FBA3E0FA03
:10093B00A3E0F975820575830074011201EF7F0145
:01094B002289
:10094C009000DAEBF0A3EAF0A3E9F09000DAE0FB18
:10095C00A3E0FAA3E0F9121581EF7003020A7B9071
:10096C0000DAE0FBA3E0FAA3E0F9758204758300DA
:10097C001201C2FF9000DAE0FBA3E0FAA3E0F975E4
:10098C0082037583001201C2FEEE8FF0A4FFAEF05D
:10099C009000DAE0FBA3E0FAA3E0F9758208758316
:1009AC00001202C1FDACF0C3ED9FEC9E401890000C
:1009BC00DAE0FBA3E0FAA3E0F9758208758300E4A2
:1009CC0075F0001203469000DAE0FBA3E0FAA3E016
:1009DC00F97582037583001201C2FF7E009000DA64
:1009EC00E0FBA3E0FAA3E0F975820875830012021C
:1009FC00C1FDACF09000DAE0FBA3E0FAA3E0F91241
:100A0C00046EE92DF9EA3CFAC003C002C001900063
:100A1C00DDE0FBA3E0FAA3E0F9A801AC02AD03D042
:100A2C0001D002D0031201839000DAE0FBA3E0FABC
:100A3C00A3E0F97582037583001201C2FF7E00905A
:100A4C0000DAE0FBA3E0FAA3E0F9758208758300F5
:100A5C00EE8FF01202F99000DAE0FBA3E0FAA3E0CB
:100A6C00F975820575830074FF1201EF7F01227FF7
:020A7C00002256
:1014A200900108EBF0A3EAF0A3E9F0900108E0FB59
:1014B200A3E0FAA3E0F97582057583001201C2FF69
:0914C200EF60037F00227F01228C
:1015810090010BEBF0A3EAF0A3E9F090010BE0FB73
:10159100A3E0FAA3E0F97582057583001201C2FF89
:0115A1002227
:10116A009000C0EBF0A3EAF0A3E9F09000C3EDF021
:10117A009000C6E4F09000C7E4F09000C3E0FF904E
:10118A0000C7EFF09000C7E0FF7E009000C4E0FCCB
:10119A00A3E0FDC3EF9DEE9C502E9000C6E0FF90A9
:1011AA0000C0E0FBA3E0FAA3E0F99000C7E0FE8EDE
:1011BA00827583001201C2FEEF6EFF9000C6EFF047
:0D11CA009000C7E004F080BC9000C6E0FF7C
:0111D70022F5
:10003E0075F020800E75F010800575F0087D007E3D
:10004E00007F003392D530D503120441EC334010BB
:10005E00EF33FFEE33FEED33FDEC33FCD5F0ED2246
:0E006E00E5F0247EA2D513CC92E7CDCEFF2282
:10007C00EDD2E7CD33EC3392D524814006E4FFFE7C
:10008C00FDFC22FCE4CFCECDCC24E0501174FF80DB
:10009C00EDC3CC13CCCD13CDCE13CECF13CF047078
:0700AC00F030D5DE02044133
:100FEF000216E6E493A3F8E493A34003F68001F21C
:100FFF0008DFF48029E493A3F85407240CC8C33303
:10100F00C4540F4420C8834004F456800146F6DFD1
:10101F00E4800B0102040810204080900D6AE47EEA
:10102F00019360BCA3FF543F30E509541FFEE493C6
:10103F00A360010ECF54C025E060A840B8E493A38D
:10104F00FAE493A3F8E493A3C8C582C8CAC583CAB8
:10105F00F0A3C8C582C8CAC583CADFE9DEE780BE70
:010E0E0000E3
:1000B300E709F608DFFA8046E709F208DFFA803E2F
:1000C30088828C83E709F0A3DFFA8032E309F6081C
:1000D300DFFA8078E309F208DFFA807088828C8384
:1000E300E309F0A3DFFA806489828A83E0A3F60838
:1000F300DFFA805889828A83E0A3F208DFFA804C12
:1001030080D280FA80C680D4806980F280338010E8
:1001130080A680EA809A80A880DA80E280CA803351
:1001230089828A83ECFAE493A3C8C582C8CCC583C9
:10013300CCF0A3C8C582C8CCC583CCDFE9DEE78099
:100143000D89828A83E493A3F608DFF9ECFAA9F018
:10015300EDFB2289828A83ECFAE0A3C8C582C8CC6E
:10016300C583CCF0A3C8C582C8CCC583CCDFEADE87
:10017300E880DB89828A83E493A3F208DFF980CCE9
:1001830088F0EF60010E4E60C388F0ED2402B404E2
:100193000050B9F582EB2402B4040050AF23234589
:0601A300822390010373AA
:1001A900BB010689828A83E0225002E722BBFE0254
:0901B900E32289828A83E4932287
:1001C200BB010CE58229F582E5833AF583E02250F2
:1001D20006E92582F8E622BBFE06E92582F8E2223C
:0D01E200E58229F582E5833AF583E4932256
:1001EF00BB010FF8E58229F582E5833AF583E02814
:1001FF00F0225009C58229F8E58226F622BBFE09B6
:10020F00C58229F8E22582F222F8EA2583F583E9EF
:03021F00932822FF
:10022200F8BB010DE58229F582E5833AF583E8F012
:10023200225006E92582C8F622BBFE05E92582C8BE
:02024200F222A6
:10024400EF8DF0A4A8F0CF8CF0A428CE8DF0A42ECE
:02025400FE2288
:10025600BC000BBE0029EF8DF084FFADF022E4CC8C
:10026600F875F008EF2FFFEE33FEEC33FCEE9DEC55
:10027600984005FCEE9DFE0FD5F0E9E4CEFD22ED9B
:10028600F8F5F0EE8420D21CFEADF075F008EF2FE5
:10029600FFED33FD4007985006D5F0F222C398FDD6
:0502A6000FD5F0EA2273
:1002AB00A3F8E0C5F025F0F0E58215827002158306
:0602BB00E0C838F0E82263
:1002C100BB0110E58229F582E5833AF583E0F5F07B
:1002D100A3E0225009E92582F886F008E622BBFE58
:1002E1000AE92582F8E2F5F008E222E5832AF5839E
:0802F100E993F5F0A3E9932263
:1002F900BB010DC58229C582C5833AC5830205099B
:100309005011C58229F808E5F026F618F5F0E582BE
:1003190036F622BBFE11C58229F808E225F0F5F070
:10032900F218E23582F222F8E58229F582E5832A7C
:0D033900F58374019325F0F5F0E49338226C
:10034600F8BB0111E58229F582E5833AF583E8F0E9
:10035600E5F0A3F0225009E92582C8F608A6F022A6
:0D036600BBFE09E92582C8F2E5F008F2228D
:1003730075F008758200EF2FFFEE33FECD33CDCC41
:1003830033CCC58233C5829BED9AEC99E5829840C4
:100393000CF582EE9BFEED9AFDEC99FC0FD5F0D6A1
:1003A300E4CEFBE4CDFAE4CCF9A88222B800C1B9CB
:1003B3000059BA002DEC8BF084CFCECDFCE5F0CB09
:1003C300F97818EF2FFFEE33FEED33FDEC33FCEB42
:1003D30033FB10D703994004EB99FB0FD8E5E4F9FD
:1003E300FA227818EF2FFFEE33FEED33FDEC33FCEA
:1003F300C933C910D7059BE99A4007EC9BFCE99ADE
:10040300F90FD8E0E4C9FAE4CCFB2275F010EF2F22
:10041300FFEE33FEED33FDCC33CCC833C810D70722
:100423009BEC9AE899400AED9BFDEC9AFCE899F85D
:0E0433000FD5F0DAE4CDFBE4CCFAE4C8F922F0
:0E044100C3E49FFFE49EFEE49DFDE49CFC22CC
:10044F00E8600FECC313FCED13FDEE13FEEF13FF8B
:03045F00D8F122AF
:0C046200ECF0A3EDF0A3EEF0A3EFF0220D
:10046E00BB010789828A830205315005E9F802052E
:10047E001FBBFE05E9F802054389828A83020555F2
:10048E00BB011A89828A83D0F0D0E0F8D0E0F9D08F
:10049E00E0FAD0E0FBE8C0E0C0F002053A5016E901
:1004AE00F8D083D082D0E0F9D0E0FAD0E0FBC08261
:1004BE00C083020528BBFE16E9F8D083D082D0E0B7
:0F04CE00F9D0E0FAD0E0FBC082C08302054C22D7
:1004DD00D083D082F8E4937012740193700DA3A3AE
:1004ED0093F8740193F5828883E4737402936860C2
:0604FD00EFA3A3A380DFC2
:060503008A838982E47383
:10050900C5F0F8A3E028F0C5F0F8E582158270027D
:060519001583E038F0221A
:09051F00E6FB08E6FA08E6F92201
:09052800EBF608EAF608E9F622F8
:09053100E0FBA3E0FAA3E0F922CB
:09053A00EBF0A3EAF0A3E9F022C2
:09054300E2FB08E2FA08E2F922E9
:09054C00EBF208EAF208E9F222E0
:0C055500E493FB740193FA740293F92202
:00000001FF
