:0300000002115595
:0C115500787FE4F6D8FD75810702119C3C
:1017CA0042004C0DFF42004A000242003802154115
:0317DA00003700D5
:1015F500121882900037EFF07B017A007940C00322
:10160500C002C0017B017A007937900076EBF0A328
:0E161500EAF0A3E9F0D001D002D003120A924D
:0116230022A4
:1016FD0090009BE4F0D2AF7F157E341215C07F129F
:10170D00120DB590009BE0FF120DB590009BE0040B
:03171D00F080F069
:0117200022A6
:0E18740053B3FE43B4017FF47E01121624220A
:101837009000B7EEF0A3EFF01217219000B7E0FE8B
:07184700A3E0FF121650227E
:0513B70090007FEFF043
:1013BC0090007FE0FCE41202CE7B007A007920786A
:1013CC00411202279000801207147F007E007D16C8
:1013DC007C43900080E0F8A3E0F9A3E0FAA3E0FBE3
:1013EC0012011EA804A905AA06AB077F007E487D42
:0913FC00557C461200291203027F
:0114050022C4
:100EBC00900061EEF0A3EFF0900063ECF0A3EDF086
:100ECC00900065E4F0A3E4F0900063E0FEA3E0FF83
:100EDC00900061E0FCA3E0FDD3ED9FEC9E404A90B6
:100EEC000061E0FEA3E0FF900065EEF0A3EFF09050
:100EFC000063E0FEA3E0FF900065E0FCA3E0FDD3FF
:100F0C00ED9FEC9E406C900065E0FEA3E0FF121696
:100F1C00507F147E00121624900066E024FFF0909F
:100F2C000065E034FFF080C722900061E0FEA3E092
:100F3C00FF900065EEF0A3EFF0900063E0FEA3E0FD
:100F4C00FF900065E0FCA3E0FDC3ED9FEC9E5022FA
:100F5C00900065E0FEA3E0FF1216507F147E001295
:100F6C001624900066E004F07006900065E004F032
:020F7C0080C72C
:010F7E002250
:1017E90053B3DF43B42053B1FE43B20153B1FD43B8
:0C17F900B2025390DF5380FE5380FD22AB
:101805009000C5EFF09000C5E0FF7E00EF64014E4B
:0A1815007004439020225390DF225C
:040003004380012213
:040007005380FE2202
:0418B8004380022245
:0418BC005380FD2236
:10181F000001000200030004000500060007000895
:08182F000009000A000B000C87
:1011E1009000B9E4F0A3E4F09000B9E0FEA3E0FFC1
:1011F100C3EF940CEE64809480506590004AE0FE49
:10120100A3E0FF90004CE0FCA3E0FDC3ED9FFFECE9
:101211009EFE7C007D0C12050D9000B9E0FCA3E060
:10122100FD1204FB90004AE0FCA3E0FDEF2DFDEE72
:101231003CFC9000B9E0FEA3E0FFEF25E0FFEE33B8
:10124100FE741F2FF58274003EF583ECF0A3EDF0E0
:101251009000BAE004F070069000B9E004F08088D4
:01126100226A
:08084400900000EEF0A3EFF0BC
:10084C009000067402F07BFF7A18791FC003C00277
:10085C00C0017B017A007907A801AC02AD03D0017D
:10086C00D002D0037E007F18120453900000E0FEEB
:10087C00A3E0FFD3EF940CEE940040047F018002C0
:10088C007F00900000E0FCA3E0FDC3ED9401EC942C
:10089C000050047E0180027E00EE4FFFEF60057E6B
:1008AC00FF7FFF221211E1900002E4F0A3E4F0902C
:1008BC000002E0FEA3E0FFC3EF940CEE6480948092
:1008CC005066900002E0FEA3E0FFEF25E0FFEE3360
:1008DC00FE74072FF58274003EF583E0FEA3E0FF63
:1008EC00900000E0FCA3E0FDEDB5072CECB506286C
:1008FC00900002E0FEA3E0FFEF25E0FFEE33FE7474
:10090C001F2FF58274003EF583E0FEA3E0FF9000FC
:10091C0000EEF0A3EFF08010900003E004F07006FE
:10092C00900002E004F0808712134C900004EEF06B
:10093C00A3EFF0900000E0FEA3E0FFEF24FAFFEE3F
:10094C0034FFFE900004E0FCA3E0FDC3ED9FEC9EA1
:10095C005007900006E4F0804A900000E0FEA3E00F
:10096C00FFEF24FAFFEE34FFFE900004E0FCA3E05E
:10097C00FDC3ED9FEC9E4025900000E0FEA3E0FF40
:10098C00EF2406FFEE3400FE900004E0FCA3E0FD33
:10099C00D3ED9FEC9E5006E47E007F002290000673
:1009AC007401F0900006E0FFEF1207C009C2000AC4
:1009BC00240100000A861218BC7F647E00121624E3
:1009CC0012000312134C900004EEF0A3EFF0900011
:1009DC0000E0FEA3E0FFEF24FAFFEE34FFFE9000F0
:1009EC0004E0FCA3E0FDC3ED9FEC9E40D69000001C
:1009FC00E0FEA3E0FFEF2406FFEE3400FE900004BF
:100A0C00E0FCA3E0FDD3ED9FEC9E50B71200077FF6
:100A1C00647E0012162480681200077F647E001228
:100A2C0016241218B812134C900004EEF0A3EFF039
:100A3C00900000E0FEA3E0FFEF24FAFFEE34FFFE8F
:100A4C00900004E0FCA3E0FDC3ED9FEC9E40D6902B
:100A5C000000E0FEA3E0FFEF2406FFEE3400FE9062
:100A6C000004E0FCA3E0FDD3ED9FEC9E50B7121800
:100A7C00BC7F647E001216248006E47E007F002278
:050A8C00E47E007F0084
:010A91002242
:0918A6009000BBEEF0A3EFF0226C
:101624009000BDEEF0A3EFF09000BDE0FEA3E0FF5C
:10163400EF4E60177FE87E031214DB9000BEE024B7
:0C164400FFF09000BDE034FFF080DD22DC
:0814DB00900089EEF0A3EFF090
:1014E300900089E0FCA3E0FDE41202C9120302901C
:1014F300008BEEF0A3EFF090008BE0FEA3E0FFEF94
:101503004E60110090008CE024FFF090008BE034DB
:04151300FFF080E382
:0115170022B1
:1017210053B3FE53B4FE43DE0453DF3F53DFEFD226
:10173100DC538EBF43DF0353DFFB75D60075D10049
:0417410075D98522AF
:101650009000BFEEF0A3EFF0C2DF9000BFE0FEA36A
:10166000E0FF7F00EEFF7E008FD49000BFE0FEA37E
:0C167000E0FFEF54FFF5DCD2DED2DF22F9
:08149B0090009CEEF0A3EFF0BD
:1014A30090009CE0FEA3E0FF90009EEFF090009E72
:1014B300E0FF7E00C3EF9415EE9402501A90009E55
:1014C300E0FF7E001216507F147E00121624900057
:0714D3009EE0240AF080D620
:0114DA0022EF
:0814060090008DEEF0A3EFF061
:10140E0090008F7401F0A374F4F090008DE0FEA3B1
:10141E00E0FF90008FE0FCA3E0FDD3ED9FEC9E403B
:10142E002290008FE0FEA3E0FF1216507F147E0084
:10143E00121624900090E024F6F090008FE034FF16
:03144E00F080C764
:011451002278
:1015530090009FEFF09000A0ECF0A3EDF090009FBF
:10156300E0FFEF1207C015790015850115850215F7
:10157300850300001585438E08438901758AEA7542
:081583008CCB7F001216A82298
:101745009000A2EBF0A3EAF0A3E9F09000A2E0FB81
:10175500A3E0FAA3E0F99000A5EBF0A3EAF0A3E972
:02176500F02270
:10167C009000C6EFF09000C6E0FFEF1207C0169A7C
:10168C0000169E0116A10216A403000016A743889B
:0C169C00102243884043C80443C40822C5
:1016A8009000C7EFF09000C7E0FFEF1207C016C622
:1016B8000016CA0116CD0216D003000016D35388AF
:0C16C800EF225388BF53C8FB53C4F72225
:03000B000212DC02
:1012DC00C0E0C0F0C083C082C0D075D000C000C0D8
:1012EC0001C002C003C004C005C006C0077B007A61
:1012FC00007900C003C002C0019000A5E0FBA3E090
:10130C00FAA3E0F9D082D083D0E06B7008E9658253
:10131C007003EA6583600E9000A5E0FBA3E0FAA3DE
:10132C00E0F91207E6D007D006D005D004D003D0E0
:10133C0002D001D000D0D0D082D083D0F0D0E03217
:0617DD004300AB00000018
:1010230090009112071453B1BF53B2BF53B17F5312
:10103300B27F900091E0F8A3E0F9A3E0FAA3E0FB0C
:101043007F407E427D0F7C00120650A804A905AAAA
:1010530006AB07C374FF9BFF74FF9AFEE499FDE49C
:1010630098FC78081207018FC6900091E0F8A3E07E
:10107300F9A3E0FAA3E0FB7F407E427D0F7C0012E0
:101083000650A804A905AA06AB07C374FF9BFF7407
:10109300FF9AFEE499FDE498FCEF54FFFFEE540041
:1010A300FEED5400FDEC5400FC8FC575987043872A
:0E10B3008053C4F843C42043C4081218C0225E
:03002000D2AC223D
:0318C000C2AC2295
:0517AA009000C1EFF00A
:1017AF00C2999000C1E0FFEF64FFFF9000C2EFF01D
:0A17BF009000C1E0FF8F993099FD02
:0117C90022FD
:10145200900084EBF0A3EAF0A3E9F0900087EDF0AE
:10146200900088E4F0900087E0FF900088E0FEEEB4
:10147200C39F5024900084E0FBA3E0FAA3E0F9901C
:101482000088E0FF8F82758300120479FF1217AA89
:08149200900088E004F080CD19
:01149A00222F
:0B1882009000C8E599F09000C8E0FF5E
:01188D002238
:1010C100E5875410FF7E00EF64104E600302115457
:1010D100900095E584F0900096E585F0900095E00C
:1010E100FF7E00EF25E0FFEE33FE900096E0FDED80
:1010F1005401FD7C00EF2DFFEE3CFE900097EEF0D9
:10110100A3EFF0900098E024F1F0900097E034FF15
:10111100F0900097E0FEA3E0FFEF5401FF900096EE
:10112100EFF0900097E0FEA3E0FFEEC313FEEF1394
:10113100FF900095EFF075C7AA75C755900095E02F
:10114100FF8F8475C7AA75C755900096E0FF8F85FC
:031151005387EFD2
:011154002278
:101767009000A8EBF0A3EAF0A3E9F09000A8E0FB53
:10177700A3E0FAA3E0F99000ABEBF0A3EAF0A3E94A
:02178700F0224E
:0300230002126264
:10126200C0E0C0F0C083C082C0D075D000C000C052
:1012720001C002C003C004C005C006C00730983ACE
:10128200C2987B007A007900C003C002C0019000BE
:10129200ABE0FBA3E0FAA3E0F9D082D083D0E06B0D
:1012A2007008E965827003EA6583600E9000ABE026
:1012B200FBA3E0FAA3E0F91207E6309902C299D043
:1012C20007D006D005D004D003D002D001D000D080
:0A12D200D0D082D083D0F0D0E032FB
:10184E0053B1FD43B20243B202C28153B1FB43B264
:07185E000443B204C2822220
:10000E0043B38053B47F43E101C2EF53E8F043F6AC
:02001E000122BD
:0918AF00C2EF43E84030EFFD22D6
:10134C00900067E4F0A3E4F0900069E4F0A3E4F00B
:10135C0090006BE4F0A3E4F01218AFE5C2540FFF59
:10136C007E00900067EEF0A3EFF0AFC37E0090001C
:10137C0069EEF0A3EFF0900069E0FEA3E0FFEFC48C
:10138C00F8540FC868FFEEC454F048FE900067E0B4
:10139C00FCA3E0FDEE4CFEEF4DFF90006BEEF0A3D6
:0A13AC00EFF090006BE0FEA3E0FFFD
:0113B6002214
:0517E30042006D000052
:0C188E0053B1FB43B20443B204D28222E7
:10158B0090006FE0FCA3E0FDA3E0FEA3E0FF7B0176
:10159B007A0079007800EF2BFFEE3AFEED39FDEC87
:1015AB0038FC90006F1207145388EF758AEA758C1C
:0515BB00CB4388102263
:1015180090006DE0FEA3E0FFEF4E70047F018002B3
:101528007F007E0090006DEEF0A3EFF090006DE07C
:10153800FEA3E0FFEF4E6004D2828002C28253888D
:0A154800EF758AEA758CCB4388101A
:011552002276
:0F18650090006FE0FCA3E0FDA3E0FEA3E0FF22F4
:1015C0009000C3EEF0A3EFF04396205396F75396A6
:1015D000F94397209000C3E0FCA3E0FD7F001215C3
:1015E00053D2A912188E7BFF7A15798B1217457F7B
:0515F0000012167C2230
:050DB50090004EEFF07C
:100DBA00D28290004FE4F0A3E4F090004FE0FEA34B
:100DCA00E0FFC3EF9408EE64809480504090004F97
:100DDA00E0FEA3E0FF90004EE0FEA807EE088002C6
:100DEA00C313D8FCFFEF5401FF90004FE0FCA3E0CF
:100DFA00FD74512DF58274003CF583EFF09000509C
:100E0A00E004F0700690004FE004F080AD90006FAF
:100E1A00120720000000001218657B017A00790091
:100E2A007800C31206F070EFC28290004FE4F0A37C
:100E3A00E4F090004FE0FEA3E0FFC3EF9408EE64F5
:100E4A008094805059121865A804A905AA06AB0710
:100E5A0090004FE0FEA3E0FFEF2401FFEE3400FE16
:100E6A00EE3395E0FDFCC31206F060D990004FE026
:100E7A00FEA3E0FF74512FF58274003EF583E0FF74
:100E8A007E00EF64014E7004D2828002C28290001A
:100E9A0050E004F0700690004FE004F080941218BD
:100EAA00657B097A0079007800C31206F060EFD2F8
:010EBA0082B5
:010EBB002214
:0C189A009000AEEBF0A3EAF0A3E9F0220E
:100F7F00900059EBF0A3EAF0A3E9F0900059E0FBE1
:100F8F00A3E0FAA3E0F9758206758300E475F0001B
:100F9F001205E7900059E0FBA3E0FAA3E0F9758290
:100FAF0008758300E475F0001205E7900059E0FB27
:100FBF00A3E0FAA3E0F9758205758300E41204D962
:100FCF00900060E0FF900059E0FBA3E0FAA3E0F986
:100FDF00758203758300EF1204D990005FE0FF90D4
:100FEF000059E0FBA3E0FAA3E0F9758204758300D2
:100FFF00EF1204D990005CE0FBA3E0FAA3E0F9C084
:10100F0003C002C001900059E0FBA3E0FAA3E0F98E
:04101F001207712221
:100A9200900073EBF0A3EAF0A3E9F0900073E0FB9F
:100AA200A3E0FAA3E0F9121789900073E0FBA3E038
:100AB200FAA3E0F9758204758300120479FEEFC38C
:100AC2009E5003020B73900073E0FBA3E0FAA3E0D5
:100AD200F9758204758300120479FF900073E0FBBC
:100AE200A3E0FAA3E0F9758203758300120479FE8C
:100AF200EE8FF0A4FFAEF0900073E0FBA3E0FAA348
:100B0200E0F9758208758300120562FDACF0C3ED51
:100B12009FEC9E4018900073E0FBA3E0FAA3E0F97B
:100B2200758208758300E475F0001205E790007382
:100B3200E0FBA3E0FAA3E0F97582037583001204D7
:100B420079FF7E00900073E0FBA3E0FAA3E0F97561
:100B52008208758300EE8FF012059A900073E0FB15
:100B6200A3E0FAA3E0F975820575830074FF12040D
:100B7200A6900073E0FBA3E0FAA3E0F97582047586
:100B82008300120479FF900073E0FBA3E0FAA3E074
:100B9200F9758203758300120479FEEE8FF0A4FFCB
:100BA200AEF0900073E0FBA3E0FAA3E0F9758206D1
:100BB200758300120562FDACF0C3ED9FEC9E4018F8
:100BC200900073E0FBA3E0FAA3E0F9758206758357
:100BD20000E475F0001205E7900073E0FBA3E0FA71
:100BE200A3E0F9758203758300120479FF7E0090F9
:100BF2000076E0FBA3E0FAA3E0F9C003C002C00163
:100C0200900073E0FBA3E0FAA3E0F9758206758316
:100C120000120562FDACF0900073E0FBA3E0FAA3C2
:100C2200E0F9120751E92DF9EA3CFAA801AC02AD4C
:100C320003D001D002D003120453900073E0FBA34F
:100C4200E0FAA3E0F9758203758300120479FF7E4E
:100C520000900073E0FBA3E0FAA3E0F97582067549
:100C62008300EE8FF012059A900073E0FBA3E0FA86
:100C7200A3E0F975820575830074011204A67F0151
:010C8200224F
:100C8300900079EBF0A3EAF0A3E9F0900079E0FBA0
:100C9300A3E0FAA3E0F9121789EF7003020DB290F3
:100CA3000079E0FBA3E0FAA3E0F975820475830001
:100CB300120479FF900079E0FBA3E0FAA3E0F97551
:100CC3008203758300120479FEEE8FF0A4FFAEF069
:100CD300900079E0FBA3E0FAA3E0F975820875833D
:100CE30000120562FDACF0C3ED9FEC9E401890002E
:100CF30079E0FBA3E0FAA3E0F9758208758300E4C9
:100D030075F0001205E7900079E0FBA3E0FAA3E099
:100D1300F9758203758300120479FF7E00900079D0
:100D2300E0FBA3E0FAA3E0F97582087583001205DE
:100D330062FDACF0900079E0FBA3E0FAA3E0F912C6
:100D43000751E92DF9EA3CFAC003C002C001900043
:100D53007CE0FBA3E0FAA3E0F9A801AC02AD03D069
:100D630001D002D003120453900079E0FBA3E0FA10
:100D7300A3E0F9758203758300120479FF7E009066
:100D83000079E0FBA3E0FAA3E0F97582087583001C
:100D9300EE8FF012059A900079E0FBA3E0FAA3E04E
:100DA300F975820575830074FF1204A67F01227F03
:020DB30000221C
:1016D4009000B1EBF0A3EAF0A3E9F09000B1E0FBD5
:1016E400A3E0FAA3E0F9758205758300120479FF7B
:0916F400EF60037F00227F012258
:101789009000B4EBF0A3EAF0A3E9F09000B4E0FB19
:10179900A3E0FAA3E0F9758205758300120479FFC5
:0117A900221D
:1000260002036EE86480F8E933E83360110460F097
:10003600ED33EC337009E8FCE9FDEAFEEBFF220440
:1000460060DED3EB9FEA9EE99DE8C2E78CF0C2F73B
:1000560095F0400CE8CCF8E9CDF9EACEFAEBCFFB07
:1000660012033985D0F05804700320D5B3E8047024
:10007600075002B2D502037892D5EC0460F7E4CCBF
:10008600C0E0C398F8603B94186008400DD0E0FBD0
:10009600020350E4FBFAC9FC8028E830E406E4C910
:1000A600FBE4CAFCE830E305E4C9CACBFCE8540724
:1000B6006010F8C3E913F9EA13FAEB13FBEC13FC2F
:1000C600D8F130F52FC3E49CFCEF9BFFEE9AFEEDD2
:1000D60099FDD0E0FBEF4E4D4C701222DB0302037C
:1000E60075EC2CFCEF33FFEE33FEED33FDED30E720
:1000F600EB020350EF2BFFEE3AFEED39FDD0E0FBAD
:1001060050130BBB0003020378ED13FDEE13FEEF55
:0801160013FFEC13FC0203507F
:10011E00EC4D6011E8497017ED33EC3304600DE4DB
:10012E00FCFFFEFD22E933E8330470F802036E1281
:10013E00033958046009E4CC248150062850090282
:10014E000378284003020375C0E0EB4A7044B9807F
:10015E0006D0E0FB020364EF4E701CBD8008EBFF7F
:10016E00EAFEE9FD80EBE98DF0A4FEE5F002020760
:10017E00E9CDF9EAFEEBFFEF89F0A4FCE5F0CE89BC
:10018E00F0A42EFFE435F0CD89F0A42DFEE435F079
:10019E008067EF4E7005BD80D780C3EF8BF0A4ACA7
:1001AE00F0EE8BF0A42CFCE435F0F8EF8AF0A42CE2
:1001BE00E5F038FCE433CB8DF0A42CFCE5F03BF8F5
:1001CE00EE8AF0A42CFCE5F038F8E433CF89F0A4E5
:1001DE002CFCE5F038CF3400CE89F0A42FFFE5F0EB
:1001EE003EFEE433C98DF0A42EFEE5F039CD8AF043
:1001FE00A42FFFE5F03EFEE43DFD33D0E0FB5007BB
:10020E000BBB000F020378EC2CFCEF33FFEE33FE3A
:06021E00ED33FD02035068
:10022400020378EC5D046005E85904700302036E70
:10023400120339580460F6EC4860F2EC7004FDFED9
:10024400FF22C860DB2481C85009C39860025006AD
:100254000203759850CAF582E9294B4A7005AB82AE
:1002640002036475F0007C1A7880C3EF9BEE9AED6C
:1002740099400DC3EF9BFFEE9AFEED99FDE842F025
:10028400DC23ACF0D0E0FFD0E0FED0E0FDAB822078
:10029400E7101BEB60BAEC2CFCEF33FFEE33FEED02
:1002A40033FD020350E803F830E705C0F075F000B1
:1002B400EF2FFFEE33FEED33FD40B830E7C280AAE6
:1002C40075F020800E75F010800575F0087D007EB5
:1002D400007F003392D530D5031206E2EC33401090
:1002E400EF33FFEE33FEED33FDEC33FCD5F0ED22BE
:0E02F400E5F0247EA2D513CC92E7CDCEFF22FA
:10030200EDD2E7CD33EC3392D524814006E4FFFEF3
:10031200FDFC22FCE4CFCECDCC24E0501174FF8052
:10032200EDC3CC13CCCD13CDCE13CECF13CF0470EF
:07033200F030D5DE0206E207
:10033900E9D2E7C933E833F892D5EDD2E7CD33EC0A
:0703490033FC5002B2D52283
:10035000EC30E7100FBF000C0EBE00080DBD00040E
:100360000BEB6014A2D5EB13FCED92E7FD2274FFBA
:10037000FCFDFEFF22E480F8A2D574FF13FC7D8013
:03038000E480EF27
:101161000216FDE493A3F8E493A34003F68001F291
:1011710008DFF48029E493A3F85407240CC8C3338F
:10118100C4540F4420C8834004F456800146F6DF5E
:10119100E4800B01020408102040809017CAE47E0D
:1011A100019360BCA3FF543F30E509541FFEE49353
:1011B100A360010ECF54C025E060A840B8E493A31A
:1011C100FAE493A3F8E493A3C8C582C8CAC583CA45
:1011D100F0A3C8C582C8CAC583CADFE9DEE780BEFD
:0117E8000000
:10038300E709F608DFFA8046E709F208DFFA803E5C
:1003930088828C83E709F0A3DFFA8032E309F60849
:1003A300DFFA8078E309F208DFFA807088828C83B1
:1003B300E309F0A3DFFA806489828A83E0A3F60865
:1003C300DFFA805889828A83E0A3F208DFFA804C3F
:1003D30080D280FA80C680D4806980F28033801016
:1003E30080A680EA809A80A880DA80E280CA80337F
:1003F30089828A83ECFAE493A3C8C582C8CCC583F7
:10040300CCF0A3C8C582C8CCC583CCDFE9DEE780C6
:100413000D89828A83E493A3F608DFF9ECFAA9F045
:10042300EDFB2289828A83ECFAE0A3C8C582C8CC9B
:10043300C583CCF0A3C8C582C8CCC583CCDFEADEB4
:10044300E880DB89828A83E493A3F208DFF980CC16
:1004530088F0EF60010E4E60C388F0ED2402B4040F
:100463000050B9F582EB2402B4040050AF232345B6
:0604730082239003D37305
:10047900BB010CE58229F582E5833AF583E0225038
:1004890006E92582F8E622BBFE06E92582F8E22282
:0D049900E58229F582E5833AF583E493229C
:1004A600BB010FF8E58229F582E5833AF583E0285A
:1004B600F0225009C58229F8E58226F622BBFE09FC
:1004C600C58229F8E22582F222F8EA2583F583E936
:0304D60093282246
:1004D900F8BB010DE58229F582E5833AF583E8F059
:1004E900225006E92582C8F622BBFE05E92582C805
:0204F900F222ED
:1004FB00EF8DF0A4A8F0CF8CF0A428CE8DF0A42E15
:02050B00FE22CE
:10050D00BC000BBE0029EF8DF084FFADF022E4CCD2
:10051D00F875F008EF2FFFEE33FEEC33FCEE9DEC9B
:10052D00984005FCEE9DFE0FD5F0E9E4CEFD22EDE1
:10053D00F8F5F0EE8420D21CFEADF075F008EF2F2B
:10054D00FFED33FD4007985006D5F0F222C398FD1C
:05055D000FD5F0EA22B9
:10056200BB0110E58229F582E5833AF583E0F5F0D7
:10057200A3E0225009E92582F886F008E622BBFEB4
:100582000AE92582F8E2F5F008E222E5832AF583FA
:08059200E993F5F0A3E99322BF
:10059A00BB010DC58229C582C5833AC5830207EC12
:1005AA005011C58229F808E5F026F618F5F0E5821B
:1005BA0036F622BBFE11C58229F808E225F0F5F0CD
:1005CA00F218E23582F222F8E58229F582E5832AD9
:0D05DA00F58374019325F0F5F0E4933822C9
:1005E700F8BB0111E58229F582E5833AF583E8F046
:1005F700E5F0A3F0225009E92582C8F608A6F02203
:0D060700BBFE09E92582C8F2E5F008F222E9
:1006140075F008758200EF2FFFEE33FECD33CDCC9D
:1006240033CCC58233C5829BED9AEC99E582984020
:100634000CF582EE9BFEED9AFDEC99FC0FD5F0D6FD
:10064400E4CEFBE4CDFAE4CCF9A88222B800C1B927
:100654000059BA002DEC8BF084CFCECDFCE5F0CB65
:10066400F97818EF2FFFEE33FEED33FDEC33FCEB9E
:1006740033FB10D703994004EB99FB0FD8E5E4F959
:10068400FA227818EF2FFFEE33FEED33FDEC33FC46
:10069400C933C910D7059BE99A4007EC9BFCE99A3A
:1006A400F90FD8E0E4C9FAE4CCFB2275F010EF2F7F
:1006B400FFEE33FEED33FDCC33CCC833C810D7077F
:1006C4009BEC9AE899400AED9BFDEC9AFCE899F8BA
:0E06D4000FD5F0DAE4CDFBE4CCFAE4C8F9224D
:0E06E200C3E49FFFE49EFEE49DFDE49CFC2229
:1006F000EB9FF5F0EA9E42F0E99D42F0E89C45F060
:0107000022D6
:10070100E8600FECC313FCED13FDEE13FEEF13FFD6
:03071100D8F122FA
:0C071400ECF0A3EDF0A3EEF0A3EFF02258
:10072000A8828583F0D083D0821207371207371250
:100730000737120737E473E493A3C583C5F0C58375
:10074000C8C582C8F0A3C583C5F0C583C8C582C823
:010750002286
:10075100BB010789828A830208145005E9F802085F
:1007610002BBFE05E9F802082689828A830208385D
:10077100BB011A89828A83D0F0D0E0F8D0E0F9D0A9
:10078100E0FAD0E0FBE8C0E0C0F002081D5016E935
:10079100F8D083D082D0E0F9D0E0FAD0E0FBC0827B
:1007A100C08302080BBBFE16E9F8D083D082D0E0EB
:0F07B100F9D0E0FAD0E0FBC082C08302082F220B
:1007C000D083D082F8E4937012740193700DA3A3C8
:1007D00093F8740193F5828883E4737402936860DC
:0607E000EFA3A3A380DFDC
:0607E6008A838982E4739E
:1007EC00C5F0F8A3E028F0C5F0F8E5821582700298
:0607FC001583E038F02235
:09080200E6FB08E6FA08E6F9221B
:09080B00EBF608EAF608E9F62212
:09081400E0FBA3E0FAA3E0F922E5
:09081D00EBF0A3EAF0A3E9F022DC
:09082600E2FB08E2FA08E2F92203
:09082F00EBF208EAF208E9F222FA
:0C083800E493FB740193FA740293F9221C
:00000001FF
