:0300000002100CDF
:0C100C00787FE4F6D8FD758107021053D0
:10160F0042004C0DFF42004A0002420038021541D1
:03161F0000370091
:1013FF00121680900037EFF07B017A007940C0031E
:10140F00C002C0017B017A007937900065EBF0A331
:0E141F00EAF0A3E9F0D001D002D003120A5087
:01142D00229C
:101507007FB07E047D007C00120EDAD2AF12000E8F
:101517007F027E001208027F681215B67FF47E01F3
:0515270012142E80F2F9
:01152C00229C
:0E16720053B3FE43B4017FF47E0112142E2206
:10165B009000A0EEF0A3EFF012152D9000A0E0FE8D
:07166B00A3E0FF12145A2254
:05126E0090006EEFF09E
:1012730090006EE0FCE41202CE7B007A00792078C5
:101283004112022790006F1207037F007E007D1634
:101293007C4390006FE0F8A3E0F9A3E0FAA3E0FB3E
:1012A30012011EA804A905AA06AB077F007E487D8C
:0912B300557C46120029120302C9
:0112BC00220F
:100D7300900056EEF0A3EFF0900058ECF0A3EDF0E6
:100D830090005AE4F0A3E4F0900058E0FEA3E0FFE3
:100D9300900056E0FCA3E0FDD3ED9FEC9E404A900B
:100DA3000056E0FEA3E0FF90005AEEF0A3EFF090B0
:100DB3000058E0FEA3E0FF90005AE0FCA3E0FDD35F
:100DC300ED9FEC9E406C90005AE0FEA3E0FF1214EE
:100DD3005A7F147E0012142E90005BE024FFF090E3
:100DE300005AE034FFF080C722900056E0FEA3E0F3
:100DF300FF90005AEEF0A3EFF0900058E0FEA3E05E
:100E0300FF90005AE0FCA3E0FDC3ED9FEC9E50224F
:100E130090005AE0FEA3E0FF12145A7F147E0012E2
:100E2300142E90005BE004F0700690005AE004F08A
:020E330080C776
:010E3500229A
:1015F30053B3DF43B42053B1FE43B20153B1FD43B0
:0C160300B2025390DF5380FE5380FD22A2
:101629009000ACEFF09000ACE0FF7E00EF64014E5B
:0A1639007004439020225390DF223A
:040003004380012213
:040007005380FE2202
:04169E004380022261
:0416A2005380FD2252
:101643000001000200030004000500060007000873
:081653000009000A000B000C65
:101098009000A2E4F0A3E4F09000A2E0FEA3E0FF39
:1010A800C3EF940CEE64809480506590004AE0FE93
:1010B800A3E0FF90004CE0FCA3E0FDC3ED9FFFEC34
:1010C8009EFE7C007D0C12050D9000A2E0FCA3E0C2
:1010D800FD1204FB90004AE0FCA3E0FDEF2DFDEEBD
:1010E8003CFC9000A2E0FEA3E0FFEF25E0FFEE331A
:1010F800FE741F2FF58274003EF583ECF0A3EDF02B
:101108009000A3E004F070069000A2E004F080884C
:0111180022B4
:08080200900000EEF0A3EFF0FE
:10080A009000067402F07BFF7A167943C003C00297
:10081A00C0017B017A007907A801AC02AD03D001BF
:10082A00D002D0037E007F18120453900000E0FE2D
:10083A00A3E0FFD3EF940CEE940040047F01800202
:10084A007F00900000E0FCA3E0FDC3ED9401EC946E
:10085A000050047E0180027E00EE4FFFEF60057EAD
:10086A00FF7FFF22121098900002E4F0A3E4F090B8
:10087A000002E0FEA3E0FFC3EF940CEE64809480D4
:10088A005066900002E0FEA3E0FFEF25E0FFEE33A2
:10089A00FE74072FF58274003EF583E0FEA3E0FFA5
:1008AA00900000E0FCA3E0FDEDB5072CECB50628AE
:1008BA00900002E0FEA3E0FFEF25E0FFEE33FE74B6
:1008CA001F2FF58274003EF583E0FEA3E0FF90003F
:1008DA0000EEF0A3EFF08010900003E004F0700641
:1008EA00900002E004F08087121203900004EEF0F8
:1008FA00A3EFF0900000E0FEA3E0FFEF24FAFFEE82
:10090A0034FFFE900004E0FCA3E0FDC3ED9FEC9EE3
:10091A005007900006E4F0804A900000E0FEA3E051
:10092A00FFEF24FAFFEE34FFFE900004E0FCA3E0A0
:10093A00FDC3ED9FEC9E4025900000E0FEA3E0FF82
:10094A00EF2406FFEE3400FE900004E0FCA3E0FD75
:10095A00D3ED9FEC9E5006E47E007F0022900006B5
:10096A007401F0900006E0FFEF12077E098000098B
:10097A00E20100000A441216A27F647E0012142EBD
:10098A00120003121203900004EEF0A3EFF090009D
:10099A0000E0FEA3E0FFEF24FAFFEE34FFFE900032
:1009AA0004E0FCA3E0FDC3ED9FEC9E40D69000005E
:1009BA00E0FEA3E0FFEF2406FFEE3400FE90000401
:1009CA00E0FCA3E0FDD3ED9FEC9E50B71200077F39
:1009DA00647E0012142E80681200077F647E001263
:1009EA00142E12169E121203900004EEF0A3EFF0DA
:1009FA00900000E0FEA3E0FFEF24FAFFEE34FFFED2
:100A0A00900004E0FCA3E0FDC3ED9FEC9E40D6906D
:100A1A000000E0FEA3E0FFEF2406FFEE3400FE90A4
:100A2A000004E0FCA3E0FDD3ED9FEC9E50B7121644
:100A3A00A27F647E0012142E8006E47E007F0022CC
:050A4A00E47E007F00C6
:010A4F002284
:09168C009000A4EEF0A3EFF0229F
:10142E009000A6EEF0A3EFF09000A6E0FEA3E0FF82
:10143E00EF4E60177FE87E031213929000A7E02410
:0C144E00FFF09000A6E034FFF080DD22EB
:08139200900078EEF0A3EFF0EB
:10139A00900078E0FCA3E0FDE41202C91203029077
:1013AA00007AEEF0A3EFF090007AE0FEA3E0FFEF00
:1013BA004E60110090007BE024FFF090007AE03448
:0413CA00FFF080E3CD
:0113CE0022FC
:10152D0053B3FE53B4FE43DE0453DF3F53DFEFD21C
:10153D00DC538EBF43DF0353DFFB75D60075D1003F
:04154D0075D98522A5
:10145A009000A8EEF0A3EFF0C2DF9000A8E0FEA390
:10146A00E0FF7F00EEFF7E008FD49000A8E0FEA38D
:0C147A00E0FFEF54FFF5DCD2DED2DF22F1
:0813520090008BEEF0A3EFF018
:10135A0090008BE0FEA3E0FF90008DEFF090008DEF
:10136A00E0FF7E00C3EF9415EE9402501A90008DB0
:10137A00E0FF7E0012145A7F147E0012142E900091
:07138A008DE0240AF080D67B
:011391002239
:0812BD0090007CEEF0A3EFF0BD
:1012C50090007E7401F0A374F4F090007CE0FEA31E
:1012D500E0FF90007EE0FCA3E0FDD3ED9FEC9E4097
:1012E5002290007EE0FEA3E0FF12145A7F147E00D8
:1012F50012142E90007FE024F6F090007EE034FF7B
:03130500F080C7AE
:0113080022C2
:1013CF009000ADEFF09000ADE0FFEF12077E13ED50
:1013DF000013F90113F90213F903000013F9438EF7
:1013EF0008758A80758CC14389017F001214B2225F
:1015510090008EEBF0A3EAF0A3E9F090008EE0FB9F
:10156100A3E0FAA3E0F9900091EBF0A3EAF0A3E97C
:02157100F02266
:101486009000AEEFF09000AEE0FFEF12077E14A4DE
:101496000014A80114AB0214AE03000014B1438873
:0C14A600102243884043C80443C40822BD
:1014B2009000AFEFF09000AFE0FFEF12077E14D084
:1014C2000014D40114D70214DA03000014DD538887
:0C14D200EF225388BF53C8FB53C4F7221D
:03000B000211934C
:10119300C0E0C0F0C083C082C0D075D000C000C022
:1011A30001C002C003C004C005C006C0077B007AAB
:1011B300007900C003C002C001900091E0FBA3E0EE
:1011C300FAA3E0F9D082D083D0E06B7008E965829E
:1011D3007003EA6583600E900091E0FBA3E0FAA33D
:1011E300E0F91207A4D007D006D005D004D003D06D
:1011F30002D001D000D0D0D082D083D0F0D0E03262
:06162200430097000000E8
:100EDA0090008012070353B1BF53B2BF53B17F537F
:100EEA00B27F900080E0F8A3E0F9A3E0FAA3E0FB68
:100EFA007F407E427D0F7C00120650A804A905AAF5
:100F0A0006AB07C374FF9BFF74FF9AFEE499FDE4E6
:100F1A0098FC78081206F08FC6900080E0F8A3E0EB
:100F2A00F9A3E0FAA3E0FB7F407E427D0F7C00122A
:100F3A000650A804A905AA06AB07C374FF9BFF7451
:100F4A00FF9AFEE499FDE498FCEF54FFFFEE54008B
:100F5A00FEED5400FDEC5400FC8FC5759870438774
:0E0F6A008053C4F843C42043C4081216A622C4
:03002000D2AC223D
:0316A600C2AC22B1
:0515B6009000AAEFF017
:1015BB00C2999000AAE0FFEF64FFFF9000ABEFF041
:0A15CB009000AAE0FF8F993099FD0F
:0115D50022F3
:10130900900073EBF0A3EAF0A3E9F0900076EDF01A
:10131900900077E4F0900076E0FF900077E0FEEE31
:10132900C39F5024900073E0FBA3E0FAA3E0F99077
:101339000077E0FF8F82758300120479FF1215B6DA
:08134900900077E004F080CD74
:011351002279
:0B1680009000B0E599F09000B0E0FF92
:01168B00223C
:100F7800E5875410FF7E00EF64104E600302100BEB
:100F8800900084E584F0900085E585F0900084E089
:100F9800FF7E00EF25E0FFEE33FE900085E0FDEDDB
:100FA8005401FD7C00EF2DFFEE3CFE900086EEF034
:100FB800A3EFF0900087E024F1F0900086E034FF82
:100FC800F0900086E0FEA3E0FFEF5401FF9000855B
:100FD800EFF0900086E0FEA3E0FFEEC313FEEF13F0
:100FE800FF900084EFF075C7AA75C755900084E09C
:100FF800FF8F8475C7AA75C755900085E0FF8F8558
:031008005387EF1C
:01100B0022C2
:10157300900094EBF0A3EAF0A3E9F0900094E0FB71
:10158300A3E0FAA3E0F9900097EBF0A3EAF0A3E954
:02159300F02244
:03002300021119AE
:10111900C0E0C0F0C083C082C0D075D000C000C09C
:1011290001C002C003C004C005C006C00730983A18
:10113900C2987B007A007900C003C002C001900008
:1011490097E0FBA3E0FAA3E0F9D082D083D0E06B6B
:101159007008E965827003EA6583600E900097E084
:10116900FBA3E0FAA3E0F91207A4309902C299D0CF
:1011790007D006D005D004D003D002D001D000D0CA
:0A118900D0D082D083D0F0D0E03245
:1015D60053B37F43B480E5E954FCFFEF4401F5E9DA
:0D15E60043E98043EA8053EC7F43A8802254
:10000E0043B38053B47F43E101C2EF53E8F043F6AC
:02001E000122BD
:09169500C2EF43E84030EFFD22F2
:1012030090005CE4F0A3E4F090005EE4F0A3E4F06B
:10121300900060E4F0A3E4F0121695E5C2540FFFCA
:101223007E0090005CEEF0A3EFF0AFC37E00900071
:101233005EEEF0A3EFF090005EE0FEA3E0FFEFC4EC
:10124300F8540FC868FFEEC454F048FE90005CE009
:10125300FCA3E0FDEE4CFEEF4DFF900060EEF0A32B
:0A126300EFF0900060E0FEA3E0FF52
:01126D00225E
:100E360090004EEBF0A3EAF0A3E9F090004EE0FB41
:100E4600A3E0FAA3E0F9758206758300E475F00065
:100E56001205E790004EE0FBA3E0FAA3E0F97582E5
:100E660008758300E475F0001205E790004EE0FB7C
:100E7600A3E0FAA3E0F9758205758300E41204D9AC
:100E8600900055E0FF90004EE0FBA3E0FAA3E0F9E6
:100E9600758203758300EF1204D9900054E0FF9029
:100EA600004EE0FBA3E0FAA3E0F975820475830027
:100EB600EF1204D9900051E0FBA3E0FAA3E0F9C0D9
:100EC60003C002C00190004EE0FBA3E0FAA3E0F9E4
:040ED60012072F22AE
:100A5000900062EBF0A3EAF0A3E9F0900062E0FB03
:100A6000A3E0FAA3E0F9121595900062E0FBA3E081
:100A7000FAA3E0F9758204758300120479FEEFC3CE
:100A80009E5003020B31900062E0FBA3E0FAA3E06A
:100A9000F9758204758300120479FF900062E0FB0F
:100AA000A3E0FAA3E0F9758203758300120479FECE
:100AB000EE8FF0A4FFAEF0900062E0FBA3E0FAA39B
:100AC000E0F9758208758300120562FDACF0C3ED94
:100AD0009FEC9E4018900062E0FBA3E0FAA3E0F9CF
:100AE000758208758300E475F0001205E7900062D6
:100AF000E0FBA3E0FAA3E0F975820375830012041A
:100B000079FF7E00900062E0FBA3E0FAA3E0F975B4
:100B10008208758300EE8FF012059A900062E0FB68
:100B2000A3E0FAA3E0F975820575830074FF12044F
:100B3000A6900062E0FBA3E0FAA3E0F975820475D9
:100B40008300120479FF900062E0FBA3E0FAA3E0C7
:100B5000F9758203758300120479FEEE8FF0A4FF0D
:100B6000AEF0900062E0FBA3E0FAA3E0F975820624
:100B7000758300120562FDACF0C3ED9FEC9E40183A
:100B8000900062E0FBA3E0FAA3E0F97582067583AA
:100B900000E475F0001205E7900062E0FBA3E0FAC4
:100BA000A3E0F9758203758300120479FF7E00903B
:100BB0000065E0FBA3E0FAA3E0F9C003C002C001B6
:100BC000900062E0FBA3E0FAA3E0F975820675836A
:100BD00000120562FDACF0900062E0FBA3E0FAA316
:100BE000E0F912070FE92DF9EA3CFAA801AC02ADD1
:100BF00003D001D002D003120453900062E0FBA3A3
:100C0000E0FAA3E0F9758203758300120479FF7E90
:100C100000900062E0FBA3E0FAA3E0F9758206759C
:100C20008300EE8FF012059A900062E0FBA3E0FAD9
:100C3000A3E0F975820575830074011204A67F0193
:010C40002291
:100C4100900068EBF0A3EAF0A3E9F0900068E0FB04
:100C5100A3E0FAA3E0F9121595EF7003020D70906D
:100C61000068E0FBA3E0FAA3E0F975820475830054
:100C7100120479FF900068E0FBA3E0FAA3E0F975A4
:100C81008203758300120479FEEE8FF0A4FFAEF0AB
:100C9100900068E0FBA3E0FAA3E0F9758208758390
:100CA10000120562FDACF0C3ED9FEC9E4018900070
:100CB10068E0FBA3E0FAA3E0F9758208758300E41C
:100CC10075F0001205E7900068E0FBA3E0FAA3E0ED
:100CD100F9758203758300120479FF7E0090006824
:100CE100E0FBA3E0FAA3E0F9758208758300120521
:100CF10062FDACF0900068E0FBA3E0FAA3E0F9121A
:100D0100070FE92DF9EA3CFAC003C002C0019000C7
:100D11006BE0FBA3E0FAA3E0F9A801AC02AD03D0BC
:100D210001D002D003120453900068E0FBA3E0FA63
:100D3100A3E0F9758203758300120479FF7E0090A8
:100D41000068E0FBA3E0FAA3E0F97582087583006F
:100D5100EE8FF012059A900068E0FBA3E0FAA3E0A1
:100D6100F975820575830074FF1204A67F01227F45
:020D710000225E
:1014DE0090009AEBF0A3EAF0A3E9F090009AE0FBFB
:1014EE00A3E0FAA3E0F9758205758300120479FF73
:0914FE00EF60037F00227F012250
:1015950090009DEBF0A3EAF0A3E9F090009DE0FB3D
:1015A500A3E0FAA3E0F9758205758300120479FFBB
:0115B5002213
:1000260002036EE86480F8E933E83360110460F097
:10003600ED33EC337009E8FCE9FDEAFEEBFF220440
:1000460060DED3EB9FEA9EE99DE8C2E78CF0C2F73B
:1000560095F0400CE8CCF8E9CDF9EACEFAEBCFFB07
:1000660012033985D0F05804700320D5B3E8047024
:10007600075002B2D502037892D5EC0460F7E4CCBF
:10008600C0E0C398F8603B94186008400DD0E0FBD0
:10009600020350E4FBFAC9FC8028E830E406E4C910
:1000A600FBE4CAFCE830E305E4C9CACBFCE8540724
:1000B6006010F8C3E913F9EA13FAEB13FBEC13FC2F
:1000C600D8F130F52FC3E49CFCEF9BFFEE9AFEEDD2
:1000D60099FDD0E0FBEF4E4D4C701222DB0302037C
:1000E60075EC2CFCEF33FFEE33FEED33FDED30E720
:1000F600EB020350EF2BFFEE3AFEED39FDD0E0FBAD
:1001060050130BBB0003020378ED13FDEE13FEEF55
:0801160013FFEC13FC0203507F
:10011E00EC4D6011E8497017ED33EC3304600DE4DB
:10012E00FCFFFEFD22E933E8330470F802036E1281
:10013E00033958046009E4CC248150062850090282
:10014E000378284003020375C0E0EB4A7044B9807F
:10015E0006D0E0FB020364EF4E701CBD8008EBFF7F
:10016E00EAFEE9FD80EBE98DF0A4FEE5F002020760
:10017E00E9CDF9EAFEEBFFEF89F0A4FCE5F0CE89BC
:10018E00F0A42EFFE435F0CD89F0A42DFEE435F079
:10019E008067EF4E7005BD80D780C3EF8BF0A4ACA7
:1001AE00F0EE8BF0A42CFCE435F0F8EF8AF0A42CE2
:1001BE00E5F038FCE433CB8DF0A42CFCE5F03BF8F5
:1001CE00EE8AF0A42CFCE5F038F8E433CF89F0A4E5
:1001DE002CFCE5F038CF3400CE89F0A42FFFE5F0EB
:1001EE003EFEE433C98DF0A42EFEE5F039CD8AF043
:1001FE00A42FFFE5F03EFEE43DFD33D0E0FB5007BB
:10020E000BBB000F020378EC2CFCEF33FFEE33FE3A
:06021E00ED33FD02035068
:10022400020378EC5D046005E85904700302036E70
:10023400120339580460F6EC4860F2EC7004FDFED9
:10024400FF22C860DB2481C85009C39860025006AD
:100254000203759850CAF582E9294B4A7005AB82AE
:1002640002036475F0007C1A7880C3EF9BEE9AED6C
:1002740099400DC3EF9BFFEE9AFEED99FDE842F025
:10028400DC23ACF0D0E0FFD0E0FED0E0FDAB822078
:10029400E7101BEB60BAEC2CFCEF33FFEE33FEED02
:1002A40033FD020350E803F830E705C0F075F000B1
:1002B400EF2FFFEE33FEED33FD40B830E7C280AAE6
:1002C40075F020800E75F010800575F0087D007EB5
:1002D400007F003392D530D5031206E2EC33401090
:1002E400EF33FFEE33FEED33FDEC33FCD5F0ED22BE
:0E02F400E5F0247EA2D513CC92E7CDCEFF22FA
:10030200EDD2E7CD33EC3392D524814006E4FFFEF3
:10031200FDFC22FCE4CFCECDCC24E0501174FF8052
:10032200EDC3CC13CCCD13CDCE13CECF13CF0470EF
:07033200F030D5DE0206E207
:10033900E9D2E7C933E833F892D5EDD2E7CD33EC0A
:0703490033FC5002B2D52283
:10035000EC30E7100FBF000C0EBE00080DBD00040E
:100360000BEB6014A2D5EB13FCED92E7FD2274FFBA
:10037000FCFDFEFF22E480F8A2D574FF13FC7D8013
:03038000E480EF27
:10101800021507E493A3F8E493A34003F68001F2D2
:1010280008DFF48029E493A3F85407240CC8C333D9
:10103800C4540F4420C8834004F456800146F6DFA8
:10104800E4800B010204081020408090160FE47E13
:10105800019360BCA3FF543F30E509541FFEE4939D
:10106800A360010ECF54C025E060A840B8E493A364
:10107800FAE493A3F8E493A3C8C582C8CAC583CA8F
:10108800F0A3C8C582C8CAC583CADFE9DEE780BE47
:0116280000C1
:10038300E709F608DFFA8046E709F208DFFA803E5C
:1003930088828C83E709F0A3DFFA8032E309F60849
:1003A300DFFA8078E309F208DFFA807088828C83B1
:1003B300E309F0A3DFFA806489828A83E0A3F60865
:1003C300DFFA805889828A83E0A3F208DFFA804C3F
:1003D30080D280FA80C680D4806980F28033801016
:1003E30080A680EA809A80A880DA80E280CA80337F
:1003F30089828A83ECFAE493A3C8C582C8CCC583F7
:10040300CCF0A3C8C582C8CCC583CCDFE9DEE780C6
:100413000D89828A83E493A3F608DFF9ECFAA9F045
:10042300EDFB2289828A83ECFAE0A3C8C582C8CC9B
:10043300C583CCF0A3C8C582C8CCC583CCDFEADEB4
:10044300E880DB89828A83E493A3F208DFF980CC16
:1004530088F0EF60010E4E60C388F0ED2402B4040F
:100463000050B9F582EB2402B4040050AF232345B6
:0604730082239003D37305
:10047900BB010CE58229F582E5833AF583E0225038
:1004890006E92582F8E622BBFE06E92582F8E22282
:0D049900E58229F582E5833AF583E493229C
:1004A600BB010FF8E58229F582E5833AF583E0285A
:1004B600F0225009C58229F8E58226F622BBFE09FC
:1004C600C58229F8E22582F222F8EA2583F583E936
:0304D60093282246
:1004D900F8BB010DE58229F582E5833AF583E8F059
:1004E900225006E92582C8F622BBFE05E92582C805
:0204F900F222ED
:1004FB00EF8DF0A4A8F0CF8CF0A428CE8DF0A42E15
:02050B00FE22CE
:10050D00BC000BBE0029EF8DF084FFADF022E4CCD2
:10051D00F875F008EF2FFFEE33FEEC33FCEE9DEC9B
:10052D00984005FCEE9DFE0FD5F0E9E4CEFD22EDE1
:10053D00F8F5F0EE8420D21CFEADF075F008EF2F2B
:10054D00FFED33FD4007985006D5F0F222C398FD1C
:05055D000FD5F0EA22B9
:10056200BB0110E58229F582E5833AF583E0F5F0D7
:10057200A3E0225009E92582F886F008E622BBFEB4
:100582000AE92582F8E2F5F008E222E5832AF583FA
:08059200E993F5F0A3E99322BF
:10059A00BB010DC58229C582C5833AC5830207AA54
:1005AA005011C58229F808E5F026F618F5F0E5821B
:1005BA0036F622BBFE11C58229F808E225F0F5F0CD
:1005CA00F218E23582F222F8E58229F582E5832AD9
:0D05DA00F58374019325F0F5F0E4933822C9
:1005E700F8BB0111E58229F582E5833AF583E8F046
:1005F700E5F0A3F0225009E92582C8F608A6F02203
:0D060700BBFE09E92582C8F2E5F008F222E9
:1006140075F008758200EF2FFFEE33FECD33CDCC9D
:1006240033CCC58233C5829BED9AEC99E582984020
:100634000CF582EE9BFEED9AFDEC99FC0FD5F0D6FD
:10064400E4CEFBE4CDFAE4CCF9A88222B800C1B927
:100654000059BA002DEC8BF084CFCECDFCE5F0CB65
:10066400F97818EF2FFFEE33FEED33FDEC33FCEB9E
:1006740033FB10D703994004EB99FB0FD8E5E4F959
:10068400FA227818EF2FFFEE33FEED33FDEC33FC46
:10069400C933C910D7059BE99A4007EC9BFCE99A3A
:1006A400F90FD8E0E4C9FAE4CCFB2275F010EF2F7F
:1006B400FFEE33FEED33FDCC33CCC833C810D7077F
:1006C4009BEC9AE899400AED9BFDEC9AFCE899F8BA
:0E06D4000FD5F0DAE4CDFBE4CCFAE4C8F9224D
:0E06E200C3E49FFFE49EFEE49DFDE49CFC2229
:1006F000E8600FECC313FCED13FDEE13FEEF13FFE8
:03070000D8F1220B
:0C070300ECF0A3EDF0A3EEF0A3EFF02269
:10070F00BB010789828A830207D25005E9F80207E5
:10071F00C0BBFE05E9F80207E489828A830207F667
:10072F00BB011A89828A83D0F0D0E0F8D0E0F9D0EB
:10073F00E0FAD0E0FBE8C0E0C0F00207DB5016E9BA
:10074F00F8D083D082D0E0F9D0E0FAD0E0FBC082BD
:10075F00C0830207C9BBFE16E9F8D083D082D0E070
:0F076F00F9D0E0FAD0E0FBC082C0830207ED2290
:10077E00D083D082F8E4937012740193700DA3A30A
:10078E0093F8740193F5828883E47374029368601E
:06079E00EFA3A3A380DF1E
:0607A4008A838982E473E0
:1007AA00C5F0F8A3E028F0C5F0F8E58215827002DA
:0607BA001583E038F02277
:0907C000E6FB08E6FA08E6F9225E
:0907C900EBF608EAF608E9F62255
:0907D200E0FBA3E0FAA3E0F92228
:0907DB00EBF0A3EAF0A3E9F0221F
:0907E400E2FB08E2FA08E2F92246
:0907ED00EBF208EAF208E9F2223D
:0C07F600E493FB740193FA740293F9225F
:00000001FF
