:0300000002115892
:0C115800787FE4F6D8FD75810702119F36
:1017C10042004C0DFF42004A00024200380215411E
:0317D100003700DE
:1015A000121858900037EFF07B017A007940C003A1
:1015B000C002C0017B017A007937900070EBF0A384
:0E15C000EAF0A3E9F0D001D002D003120A92A3
:0115CE0022FA
:10167F007FB07E047D007C00121026D2AF12000EC8
:10168F007F157E3412156B7F12120DB57F49120D27
:0A169F00B57FF47E011215CF80F232
:0116A900221E
:0E184A0053B3FE43B4017FF47E011215CF228A
:10180D009000B5EEF0A3EFF01216FC9000B5E0FEDF
:07181D00A3E0FF1215FB22FE
:05140A00900079EFF0F5
:10140F00900079E0FCE41202CE7B007A007920781C
:10141F004112022790007A1207147F007E007D167A
:10142F007C4390007AE0F8A3E0F9A3E0FAA3E0FB95
:10143F0012011EA804A905AA06AB077F007E487DEE
:09144F00557C461200291203022B
:011458002271
:100EBF00900061EEF0A3EFF0900063ECF0A3EDF083
:100ECF00900065E4F0A3E4F0900063E0FEA3E0FF80
:100EDF00900061E0FCA3E0FDD3ED9FEC9E404A90B3
:100EEF000061E0FEA3E0FF900065EEF0A3EFF0904D
:100EFF000063E0FEA3E0FF900065E0FCA3E0FDD3FC
:100F0F00ED9FEC9E406C900065E0FEA3E0FF121594
:100F1F00FB7F147E001215CF900066E024FFF09047
:100F2F000065E034FFF080C722900061E0FEA3E08F
:100F3F00FF900065EEF0A3EFF0900063E0FEA3E0FA
:100F4F00FF900065E0FCA3E0FDC3ED9FEC9E5022F7
:100F5F00900065E0FEA3E0FF1215FB7F147E0012E8
:100F6F0015CF900066E004F07006900065E004F085
:020F7F0080C729
:010F8100224D
:1017A50053B3DF43B42053B1FE43B20153B1FD43FC
:0C17B500B2025390DF5380FE5380FD22EF
:1017DB009000C3EFF09000C3E0FF7E00EF64014E7A
:0A17EB007004439020225390DF2287
:040003004380012213
:040007005380FE2202
:04188E00438002226F
:041892005380FD2260
:1017F50000010002000300040005000600070008C0
:081805000009000A000B000CB1
:1011E4009000B7E4F0A3E4F09000B7E0FEA3E0FFC2
:1011F400C3EF940CEE64809480506590004AE0FE46
:10120400A3E0FF90004CE0FCA3E0FDC3ED9FFFECE6
:101214009EFE7C007D0C12050D9000B7E0FCA3E05F
:10122400FD1204FB90004AE0FCA3E0FDEF2DFDEE6F
:101234003CFC9000B7E0FEA3E0FFEF25E0FFEE33B7
:10124400FE741F2FF58274003EF583ECF0A3EDF0DD
:101254009000B8E004F070069000B7E004F08088D5
:011264002267
:08084400900000EEF0A3EFF0BC
:10084C009000067402F07BFF7A1779F5C003C002A2
:10085C00C0017B017A007907A801AC02AD03D0017D
:10086C00D002D0037E007F18120453900000E0FEEB
:10087C00A3E0FFD3EF940CEE940040047F018002C0
:10088C007F00900000E0FCA3E0FDC3ED9401EC942C
:10089C000050047E0180027E00EE4FFFEF60057E6B
:1008AC00FF7FFF221211E4900002E4F0A3E4F09029
:1008BC000002E0FEA3E0FFC3EF940CEE6480948092
:1008CC005066900002E0FEA3E0FFEF25E0FFEE3360
:1008DC00FE74072FF58274003EF583E0FEA3E0FF63
:1008EC00900000E0FCA3E0FDEDB5072CECB506286C
:1008FC00900002E0FEA3E0FFEF25E0FFEE33FE7474
:10090C001F2FF58274003EF583E0FEA3E0FF9000FC
:10091C0000EEF0A3EFF08010900003E004F07006FE
:10092C00900002E004F0808712134F900004EEF068
:10093C00A3EFF0900000E0FEA3E0FFEF24FAFFEE3F
:10094C0034FFFE900004E0FCA3E0FDC3ED9FEC9EA1
:10095C005007900006E4F0804A900000E0FEA3E00F
:10096C00FFEF24FAFFEE34FFFE900004E0FCA3E05E
:10097C00FDC3ED9FEC9E4025900000E0FEA3E0FF40
:10098C00EF2406FFEE3400FE900004E0FCA3E0FD33
:10099C00D3ED9FEC9E5006E47E007F002290000673
:1009AC007401F0900006E0FFEF1207C009C2000AC4
:1009BC00240100000A861218927F647E001215CF63
:1009CC0012000312134F900004EEF0A3EFF090000E
:1009DC0000E0FEA3E0FFEF24FAFFEE34FFFE9000F0
:1009EC0004E0FCA3E0FDC3ED9FEC9E40D69000001C
:1009FC00E0FEA3E0FFEF2406FFEE3400FE900004BF
:100A0C00E0FCA3E0FDD3ED9FEC9E50B71200077FF6
:100A1C00647E001215CF80681200077F647E00127E
:100A2C0015CF12188E12134F900004EEF0A3EFF0B6
:100A3C00900000E0FEA3E0FFEF24FAFFEE34FFFE8F
:100A4C00900004E0FCA3E0FDC3ED9FEC9E40D6902B
:100A5C000000E0FEA3E0FFEF2406FFEE3400FE9062
:100A6C000004E0FCA3E0FDD3ED9FEC9E50B7121800
:100A7C00927F647E001215CF8006E47E007F0022F8
:050A8C00E47E007F0084
:010A91002242
:09187C009000B9EEF0A3EFF02298
:1015CF009000BBEEF0A3EFF09000BBE0FEA3E0FFB6
:1015DF00EF4E60177FE87E0312152E9000BCE024BB
:0C15EF00FFF09000BBE034FFF080DD2234
:08152E00900083EEF0A3EFF042
:10153600900083E0FCA3E0FDE41202C912030290CE
:101546000085EEF0A3EFF0900085E0FEA3E0FFEF4C
:101556004E601100900086E024FFF0900085E03494
:04156600FFF080E32F
:01156A00225E
:1016FC0053B3FE53B4FE43DE0453DF3F53DFEFD24C
:10170C00DC538EBF43DF0353DFFB75D60075D1006E
:04171C0075D98522D4
:1015FB009000BDEEF0A3EFF0C2DF9000BDE0FEA3C4
:10160B00E0FF7F00EEFF7E008FD49000BDE0FEA3D5
:0C161B00E0FFEF54FFF5DCD2DED2DF224E
:0814EE0090009AEEF0A3EFF06C
:1014F60090009AE0FEA3E0FF90009CEFF090009C25
:10150600E0FF7E00C3EF9415EE9402501A90009C03
:10151600E0FF7E001215FB7F147E001215CF9000AF
:071526009CE0240AF080D6CE
:01152D00229B
:08145900900087EEF0A3EFF014
:101461009000897401F0A374F4F0900087E0FEA36A
:10147100E0FF900089E0FCA3E0FDD3ED9FEC9E40EE
:1014810022900089E0FEA3E0FF1215FB7F147E008D
:101491001215CF90008AE024F6F0900089E034FF25
:0314A100F080C711
:0114A4002225
:1013BA0090009DEFF090009EECF0A3EDF090009D60
:1013CA00E0FFEF1207C013E0001404011404021432
:1013DA00040300001404438E0890009EE0FEA3E07C
:1013EA00FFEF54FFF58A90009EE0FEA3E0FFEEFFB8
:1013FA007E00EF54FFF58C4389017F0012165322B9
:101720009000A0EBF0A3EAF0A3E9F09000A0E0FBAA
:10173000A3E0FAA3E0F99000A3EBF0A3EAF0A3E999
:02174000F02295
:101627009000C4EFF09000C4E0FFEF1207C016452A
:1016370000164901164C02164F0300001652438844
:0C164700102243884043C80443C408221A
:101653009000C5EFF09000C5E0FFEF1207C01671D0
:1016630000167501167802167B030000167E538858
:0C167300EF225388BF53C8FB53C4F7227A
:03000B000212DFFF
:1012DF00C0E0C0F0C083C082C0D075D000C000C0D5
:1012EF0001C002C003C004C005C006C0077B007A5E
:1012FF00007900C003C002C0019000A3E0FBA3E08F
:10130F00FAA3E0F9D082D083D0E06B7008E9658250
:10131F007003EA6583600E9000A3E0FBA3E0FAA3DD
:10132F00E0F91207E6D007D006D005D004D003D0DD
:10133F0002D001D000D0D0D082D083D0F0D0E03214
:0617D4004300A900000023
:1010260090008B12071453B1BF53B2BF53B17F5315
:10103600B27F90008BE0F8A3E0F9A3E0FAA3E0FB0F
:101046007F407E427D0F7C00120650A804A905AAA7
:1010560006AB07C374FF9BFF74FF9AFEE499FDE499
:1010660098FC78081207018FC690008BE0F8A3E081
:10107600F9A3E0FAA3E0FB7F407E427D0F7C0012DD
:101086000650A804A905AA06AB07C374FF9BFF7404
:10109600FF9AFEE499FDE498FCEF54FFFFEE54003E
:1010A600FEED5400FDEC5400FC8FC5759870438727
:0E10B6008053C4F843C42043C4081218962285
:03002000D2AC223D
:03189600C2AC22BF
:051785009000BFEFF031
:10178A00C2999000BFE0FFEF64FFFF9000C0EFF046
:0A179A009000BFE0FF8F993099FD29
:0117A4002222
:1014A50090007EEBF0A3EAF0A3E9F0900081EDF067
:1014B500900082E4F0900081E0FF900082E0FEEE73
:1014C500C39F502490007EE0FBA3E0FAA3E0F990CF
:1014D5000082E0FF8F82758300120479FF12178561
:0814E500900082E004F080CDCC
:0114ED0022DC
:0B1858009000C6E599F09000C6E0FF8C
:011863002262
:1010C400E5875410FF7E00EF64104E600302115751
:1010D40090008FE584F0900090E585F090008FE01B
:1010E400FF7E00EF25E0FFEE33FE900090E0FDED83
:1010F4005401FD7C00EF2DFFEE3CFE900091EEF0DC
:10110400A3EFF0900092E024F1F0900091E034FF1E
:10111400F0900091E0FEA3E0FFEF5401FF900090F7
:10112400EFF0900091E0FEA3E0FFEEC313FEEF1397
:10113400FF90008FEFF075C7AA75C75590008FE038
:10114400FF8F8475C7AA75C755900090E0FF8F85FF
:031154005387EFCF
:011157002275
:101742009000A6EBF0A3EAF0A3E9F09000A6E0FB7C
:10175200A3E0FAA3E0F99000A9EBF0A3EAF0A3E971
:02176200F02273
:0300230002126561
:10126500C0E0C0F0C083C082C0D075D000C000C04F
:1012750001C002C003C004C005C006C00730983ACB
:10128500C2987B007A007900C003C002C0019000BB
:10129500A9E0FBA3E0FAA3E0F9D082D083D0E06B0C
:1012A5007008E965827003EA6583600E9000A9E025
:1012B500FBA3E0FAA3E0F91207E6309902C299D040
:1012C50007D006D005D004D003D002D001D000D07D
:0A12D500D0D082D083D0F0D0E032F8
:1018240053B1FD43B20243B202C28153B1FB43B28E
:071834000443B204C282224A
:10000E0043B38053B47F43E101C2EF53E8F043F6AC
:02001E000122BD
:09188500C2EF43E84030EFFD2200
:10134F00900067E4F0A3E4F0900069E4F0A3E4F008
:10135F0090006BE4F0A3E4F0121885E5C2540FFF80
:10136F007E00900067EEF0A3EFF0AFC37E00900019
:10137F0069EEF0A3EFF0900069E0FEA3E0FFEFC489
:10138F00F8540FC868FFEEC454F048FE900067E0B1
:10139F00FCA3E0FDEE4CFEEF4DFF90006BEEF0A3D3
:0A13AF00EFF090006BE0FEA3E0FFFA
:0113B9002211
:0C18640053B1FD43B20243B202C2812224
:1016AA00900093E0FCA3E0FDA3E0FEA3E0FF7B0132
:1016BA007A0079007800EF2BFFEE3AFEED39FDEC67
:0916CA0038FC9000931207142271
:0F183B00900093E0FCA3E0FDA3E0FEA3E0FF22FA
:10156B009000C1EEF0A3EFF04396205396F75396FD
:10157B00F94397209000C1E0FCA3E0FD7F0012131C
:10158B00BAD2A91218647BFF7A1679AA1217207F98
:05159B000012162722DA
:050DB50090004EEFF07C
:100DBA00C28190004FE4F0A3E4F090004FE0FEA35C
:100DCA00E0FFC3EF9408EE64809480504090004F97
:100DDA00E0FEA3E0FF90004EE0FEA807EE088002C6
:100DEA00C313D8FCFFEF5401FF90004FE0FCA3E0CF
:100DFA00FD74512DF58274003CF583EFF09000509C
:100E0A00E004F0700690004FE004F080AD9000938B
:100E1A001207200000000012183B7B017A007900BB
:100E2A007800C31206F070EFD28190004FE4F0A36D
:100E3A00E4F090004FE0FEA3E0FFC3EF9408EE64F5
:100E4A00809480505C90004FE0FEA3E0FFEF240105
:100E5A00FFEE3400FEEE3395E0FDFC900093E0F8DF
:100E6A00A3E0F9A3E0FAA3E0FBC31206F060D69070
:100E7A00004FE0FEA3E0FF74512FF58274003EF5A7
:100E8A0083E0FF7E00EF64014E7004C2818002D2CB
:100E9A0081900050E004F0700690004FE004F0806A
:100EAA009112183B7B097A0079007800C31206F088
:040EBA0060EFC281A2
:010EBE002211
:0C1870009000ACEBF0A3EAF0A3E9F0223A
:100F8200900059EBF0A3EAF0A3E9F0900059E0FBDE
:100F9200A3E0FAA3E0F9758206758300E475F00018
:100FA2001205E7900059E0FBA3E0FAA3E0F975828D
:100FB20008758300E475F0001205E7900059E0FB24
:100FC200A3E0FAA3E0F9758205758300E41204D95F
:100FD200900060E0FF900059E0FBA3E0FAA3E0F983
:100FE200758203758300EF1204D990005FE0FF90D1
:100FF2000059E0FBA3E0FAA3E0F9758204758300CF
:10100200EF1204D990005CE0FBA3E0FAA3E0F9C080
:1010120003C002C001900059E0FBA3E0FAA3E0F98B
:04102200120771221E
:100A920090006DEBF0A3EAF0A3E9F090006DE0FBAB
:100AA200A3E0FAA3E0F912176490006DE0FBA3E063
:100AB200FAA3E0F9758204758300120479FEEFC38C
:100AC2009E5003020B7390006DE0FBA3E0FAA3E0DB
:100AD200F9758204758300120479FF90006DE0FBC2
:100AE200A3E0FAA3E0F9758203758300120479FE8C
:100AF200EE8FF0A4FFAEF090006DE0FBA3E0FAA34E
:100B0200E0F9758208758300120562FDACF0C3ED51
:100B12009FEC9E401890006DE0FBA3E0FAA3E0F981
:100B2200758208758300E475F0001205E790006D88
:100B3200E0FBA3E0FAA3E0F97582037583001204D7
:100B420079FF7E0090006DE0FBA3E0FAA3E0F97567
:100B52008208758300EE8FF012059A90006DE0FB1B
:100B6200A3E0FAA3E0F975820575830074FF12040D
:100B7200A690006DE0FBA3E0FAA3E0F9758204758C
:100B82008300120479FF90006DE0FBA3E0FAA3E07A
:100B9200F9758203758300120479FEEE8FF0A4FFCB
:100BA200AEF090006DE0FBA3E0FAA3E0F9758206D7
:100BB200758300120562FDACF0C3ED9FEC9E4018F8
:100BC20090006DE0FBA3E0FAA3E0F975820675835D
:100BD20000E475F0001205E790006DE0FBA3E0FA77
:100BE200A3E0F9758203758300120479FF7E0090F9
:100BF2000070E0FBA3E0FAA3E0F9C003C002C00169
:100C020090006DE0FBA3E0FAA3E0F975820675831C
:100C120000120562FDACF090006DE0FBA3E0FAA3C8
:100C2200E0F9120751E92DF9EA3CFAA801AC02AD4C
:100C320003D001D002D00312045390006DE0FBA355
:100C4200E0FAA3E0F9758203758300120479FF7E4E
:100C52000090006DE0FBA3E0FAA3E0F9758206754F
:100C62008300EE8FF012059A90006DE0FBA3E0FA8C
:100C7200A3E0F975820575830074011204A67F0151
:010C8200224F
:100C8300900073EBF0A3EAF0A3E9F0900073E0FBAC
:100C9300A3E0FAA3E0F9121764EF7003020DB29018
:100CA3000073E0FBA3E0FAA3E0F975820475830007
:100CB300120479FF900073E0FBA3E0FAA3E0F97557
:100CC3008203758300120479FEEE8FF0A4FFAEF069
:100CD300900073E0FBA3E0FAA3E0F9758208758343
:100CE30000120562FDACF0C3ED9FEC9E401890002E
:100CF30073E0FBA3E0FAA3E0F9758208758300E4CF
:100D030075F0001205E7900073E0FBA3E0FAA3E09F
:100D1300F9758203758300120479FF7E00900073D6
:100D2300E0FBA3E0FAA3E0F97582087583001205DE
:100D330062FDACF0900073E0FBA3E0FAA3E0F912CC
:100D43000751E92DF9EA3CFAC003C002C001900043
:100D530076E0FBA3E0FAA3E0F9A801AC02AD03D06F
:100D630001D002D003120453900073E0FBA3E0FA16
:100D7300A3E0F9758203758300120479FF7E009066
:100D83000073E0FBA3E0FAA3E0F975820875830022
:100D9300EE8FF012059A900073E0FBA3E0FAA3E054
:100DA300F975820575830074FF1204A67F01227F03
:020DB30000221C
:1016D3009000AFEBF0A3EAF0A3E9F09000AFE0FBDA
:1016E300A3E0FAA3E0F9758205758300120479FF7C
:0916F300EF60037F00227F012259
:101764009000B2EBF0A3EAF0A3E9F09000B2E0FB42
:10177400A3E0FAA3E0F9758205758300120479FFEA
:011784002242
:1000260002036EE86480F8E933E83360110460F097
:10003600ED33EC337009E8FCE9FDEAFEEBFF220440
:1000460060DED3EB9FEA9EE99DE8C2E78CF0C2F73B
:1000560095F0400CE8CCF8E9CDF9EACEFAEBCFFB07
:1000660012033985D0F05804700320D5B3E8047024
:10007600075002B2D502037892D5EC0460F7E4CCBF
:10008600C0E0C398F8603B94186008400DD0E0FBD0
:10009600020350E4FBFAC9FC8028E830E406E4C910
:1000A600FBE4CAFCE830E305E4C9CACBFCE8540724
:1000B6006010F8C3E913F9EA13FAEB13FBEC13FC2F
:1000C600D8F130F52FC3E49CFCEF9BFFEE9AFEEDD2
:1000D60099FDD0E0FBEF4E4D4C701222DB0302037C
:1000E60075EC2CFCEF33FFEE33FEED33FDED30E720
:1000F600EB020350EF2BFFEE3AFEED39FDD0E0FBAD
:1001060050130BBB0003020378ED13FDEE13FEEF55
:0801160013FFEC13FC0203507F
:10011E00EC4D6011E8497017ED33EC3304600DE4DB
:10012E00FCFFFEFD22E933E8330470F802036E1281
:10013E00033958046009E4CC248150062850090282
:10014E000378284003020375C0E0EB4A7044B9807F
:10015E0006D0E0FB020364EF4E701CBD8008EBFF7F
:10016E00EAFEE9FD80EBE98DF0A4FEE5F002020760
:10017E00E9CDF9EAFEEBFFEF89F0A4FCE5F0CE89BC
:10018E00F0A42EFFE435F0CD89F0A42DFEE435F079
:10019E008067EF4E7005BD80D780C3EF8BF0A4ACA7
:1001AE00F0EE8BF0A42CFCE435F0F8EF8AF0A42CE2
:1001BE00E5F038FCE433CB8DF0A42CFCE5F03BF8F5
:1001CE00EE8AF0A42CFCE5F038F8E433CF89F0A4E5
:1001DE002CFCE5F038CF3400CE89F0A42FFFE5F0EB
:1001EE003EFEE433C98DF0A42EFEE5F039CD8AF043
:1001FE00A42FFFE5F03EFEE43DFD33D0E0FB5007BB
:10020E000BBB000F020378EC2CFCEF33FFEE33FE3A
:06021E00ED33FD02035068
:10022400020378EC5D046005E85904700302036E70
:10023400120339580460F6EC4860F2EC7004FDFED9
:10024400FF22C860DB2481C85009C39860025006AD
:100254000203759850CAF582E9294B4A7005AB82AE
:1002640002036475F0007C1A7880C3EF9BEE9AED6C
:1002740099400DC3EF9BFFEE9AFEED99FDE842F025
:10028400DC23ACF0D0E0FFD0E0FED0E0FDAB822078
:10029400E7101BEB60BAEC2CFCEF33FFEE33FEED02
:1002A40033FD020350E803F830E705C0F075F000B1
:1002B400EF2FFFEE33FEED33FD40B830E7C280AAE6
:1002C40075F020800E75F010800575F0087D007EB5
:1002D400007F003392D530D5031206E2EC33401090
:1002E400EF33FFEE33FEED33FDEC33FCD5F0ED22BE
:0E02F400E5F0247EA2D513CC92E7CDCEFF22FA
:10030200EDD2E7CD33EC3392D524814006E4FFFEF3
:10031200FDFC22FCE4CFCECDCC24E0501174FF8052
:10032200EDC3CC13CCCD13CDCE13CECF13CF0470EF
:07033200F030D5DE0206E207
:10033900E9D2E7C933E833F892D5EDD2E7CD33EC0A
:0703490033FC5002B2D52283
:10035000EC30E7100FBF000C0EBE00080DBD00040E
:100360000BEB6014A2D5EB13FCED92E7FD2274FFBA
:10037000FCFDFEFF22E480F8A2D574FF13FC7D8013
:03038000E480EF27
:1011640002167FE493A3F8E493A34003F68001F20C
:1011740008DFF48029E493A3F85407240CC8C3338C
:10118400C4540F4420C8834004F456800146F6DF5B
:10119400E4800B01020408102040809017C1E47E13
:1011A400019360BCA3FF543F30E509541FFEE49350
:1011B400A360010ECF54C025E060A840B8E493A317
:1011C400FAE493A3F8E493A3C8C582C8CAC583CA42
:1011D400F0A3C8C582C8CAC583CADFE9DEE780BEFA
:0117DA00000E
:10038300E709F608DFFA8046E709F208DFFA803E5C
:1003930088828C83E709F0A3DFFA8032E309F60849
:1003A300DFFA8078E309F208DFFA807088828C83B1
:1003B300E309F0A3DFFA806489828A83E0A3F60865
:1003C300DFFA805889828A83E0A3F208DFFA804C3F
:1003D30080D280FA80C680D4806980F28033801016
:1003E30080A680EA809A80A880DA80E280CA80337F
:1003F30089828A83ECFAE493A3C8C582C8CCC583F7
:10040300CCF0A3C8C582C8CCC583CCDFE9DEE780C6
:100413000D89828A83E493A3F608DFF9ECFAA9F045
:10042300EDFB2289828A83ECFAE0A3C8C582C8CC9B
:10043300C583CCF0A3C8C582C8CCC583CCDFEADEB4
:10044300E880DB89828A83E493A3F208DFF980CC16
:1004530088F0EF60010E4E60C388F0ED2402B4040F
:100463000050B9F582EB2402B4040050AF232345B6
:0604730082239003D37305
:10047900BB010CE58229F582E5833AF583E0225038
:1004890006E92582F8E622BBFE06E92582F8E22282
:0D049900E58229F582E5833AF583E493229C
:1004A600BB010FF8E58229F582E5833AF583E0285A
:1004B600F0225009C58229F8E58226F622BBFE09FC
:1004C600C58229F8E22582F222F8EA2583F583E936
:0304D60093282246
:1004D900F8BB010DE58229F582E5833AF583E8F059
:1004E900225006E92582C8F622BBFE05E92582C805
:0204F900F222ED
:1004FB00EF8DF0A4A8F0CF8CF0A428CE8DF0A42E15
:02050B00FE22CE
:10050D00BC000BBE0029EF8DF084FFADF022E4CCD2
:10051D00F875F008EF2FFFEE33FEEC33FCEE9DEC9B
:10052D00984005FCEE9DFE0FD5F0E9E4CEFD22EDE1
:10053D00F8F5F0EE8420D21CFEADF075F008EF2F2B
:10054D00FFED33FD4007985006D5F0F222C398FD1C
:05055D000FD5F0EA22B9
:10056200BB0110E58229F582E5833AF583E0F5F0D7
:10057200A3E0225009E92582F886F008E622BBFEB4
:100582000AE92582F8E2F5F008E222E5832AF583FA
:08059200E993F5F0A3E99322BF
:10059A00BB010DC58229C582C5833AC5830207EC12
:1005AA005011C58229F808E5F026F618F5F0E5821B
:1005BA0036F622BBFE11C58229F808E225F0F5F0CD
:1005CA00F218E23582F222F8E58229F582E5832AD9
:0D05DA00F58374019325F0F5F0E4933822C9
:1005E700F8BB0111E58229F582E5833AF583E8F046
:1005F700E5F0A3F0225009E92582C8F608A6F02203
:0D060700BBFE09E92582C8F2E5F008F222E9
:1006140075F008758200EF2FFFEE33FECD33CDCC9D
:1006240033CCC58233C5829BED9AEC99E582984020
:100634000CF582EE9BFEED9AFDEC99FC0FD5F0D6FD
:10064400E4CEFBE4CDFAE4CCF9A88222B800C1B927
:100654000059BA002DEC8BF084CFCECDFCE5F0CB65
:10066400F97818EF2FFFEE33FEED33FDEC33FCEB9E
:1006740033FB10D703994004EB99FB0FD8E5E4F959
:10068400FA227818EF2FFFEE33FEED33FDEC33FC46
:10069400C933C910D7059BE99A4007EC9BFCE99A3A
:1006A400F90FD8E0E4C9FAE4CCFB2275F010EF2F7F
:1006B400FFEE33FEED33FDCC33CCC833C810D7077F
:1006C4009BEC9AE899400AED9BFDEC9AFCE899F8BA
:0E06D4000FD5F0DAE4CDFBE4CCFAE4C8F9224D
:0E06E200C3E49FFFE49EFEE49DFDE49CFC2229
:1006F000EB9FF5F0EA9E42F0E99D42F0E89C45F060
:0107000022D6
:10070100E8600FECC313FCED13FDEE13FEEF13FFD6
:03071100D8F122FA
:0C071400ECF0A3EDF0A3EEF0A3EFF02258
:10072000A8828583F0D083D0821207371207371250
:100730000737120737E473E493A3C583C5F0C58375
:10074000C8C582C8F0A3C583C5F0C583C8C582C823
:010750002286
:10075100BB010789828A830208145005E9F802085F
:1007610002BBFE05E9F802082689828A830208385D
:10077100BB011A89828A83D0F0D0E0F8D0E0F9D0A9
:10078100E0FAD0E0FBE8C0E0C0F002081D5016E935
:10079100F8D083D082D0E0F9D0E0FAD0E0FBC0827B
:1007A100C08302080BBBFE16E9F8D083D082D0E0EB
:0F07B100F9D0E0FAD0E0FBC082C08302082F220B
:1007C000D083D082F8E4937012740193700DA3A3C8
:1007D00093F8740193F5828883E4737402936860DC
:0607E000EFA3A3A380DFDC
:0607E6008A838982E4739E
:1007EC00C5F0F8A3E028F0C5F0F8E5821582700298
:0607FC001583E038F02235
:09080200E6FB08E6FA08E6F9221B
:09080B00EBF608EAF608E9F62212
:09081400E0FBA3E0FAA3E0F922E5
:09081D00EBF0A3EAF0A3E9F022DC
:09082600E2FB08E2FA08E2F92203
:09082F00EBF208EAF208E9F222FA
:0C083800E493FB740193FA740293F9221C
:00000001FF
